:100000000C9462000C948A000C948A000C948A0070
:100010000C948A000C948A000C948A000C948A0038
:100020000C948A000C948A000C948A000C948A0028
:100030000C948A000C948A000C948A000C948A0018
:100040000C94BD130C948A000C942D140C9407147A
:100050000C948A000C948A000C948A000C948A00F8
:100060000C948A000C948A000000000024002700F1
:100070002A0000000000250028002B0000000000DE
:1000800023002600290004040404040404040202DA
:100090000202020203030303030301020408102007
:1000A0004080010204081020010204081020000012
:1000B0000008000201000003040700000000000027
:1000C00000005F1411241FBECFEFD8E0DEBFCDBF0C
:1000D00015E0A0E0B1E0E4EBF1E602C005900D927E
:1000E000A23DB107D9F728E0A2EDB5E001C01D920D
:1000F000A932B207E1F710E0C2E6D0E004C02197D0
:10010000FE010E94D230C136D107C9F70E949E1469
:100110000C94D8300C940000833081F028F48130A6
:1001200099F08230A9F008958730A9F08830C9F09D
:100130008430B1F4809180008F7D03C08091800075
:100140008F7780938000089584B58F7784BD08955C
:1001500084B58F7DFBCF8091B0008F778093B00006
:1001600008958091B0008F7DF9CFCF93DF93282F32
:1001700030E0F901E255FF4F8491F901E656FF4F57
:10018000D491F901EA57FF4FC491CC23A1F081111A
:100190000E948C00EC2FF0E0EE0FFF1FE458FF4FA1
:1001A000A591B491EC91ED2381E090E009F480E019
:1001B000DF91CF91089580E090E0FACF1F93CF9325
:1001C000DF93282F30E0F901E255FF4F8491F901C8
:1001D000E656FF4FD491F901EA57FF4FC491CC2363
:1001E000A9F0162F81110E948C00EC2FF0E0EE0F89
:1001F000FF1FEE58FF4FA591B4918FB7F894EC9183
:10020000111108C0D095DE23DC938FBFDF91CF9111
:100210001F910895DE2BF8CFCF93DF9390E0FC0180
:10022000E656FF4F24918A579F4FFC018491882303
:10023000C9F090E0880F991FFC01E859FF4FA59184
:10024000B491FC01EE58FF4FC591D49161110DC0DE
:100250009FB7F8948C91209582238C9388812823D2
:1002600028839FBFDF91CF910895623051F49FB7EB
:10027000F8943C91822F809583238C93E8812E2BD8
:10028000EFCF8FB7F894EC912E2B2C938FBFEACF42
:100290008E50806480937C0080917A00806480938B
:1002A0007A0080917A0086FDFCCF80917800909151
:1002B000790008953FB7F894809182079091830761
:1002C000A0918407B091850726B5A89B05C02F3F54
:1002D00019F00196A11DB11D3FBFBA2FA92F982F6C
:1002E0008827BC01CD01620F711D811D911D42E067
:1002F000660F771F881F991F4A95D1F70895AF920F
:10030000BF92CF92DF92EF92FF920F931F93CF9302
:10031000DF936C017B018B01040F151FEB015E0164
:10032000AE18BF08C017D10759F06991D601ED91F9
:10033000FC910190F081E02DC6010995892B79F798
:10034000C501DF91CF911F910F91FF90EF90DF904A
:10035000CF90BF90AF900895FC01538D448D252F11
:1003600030E0842F90E0821B930B541710F0CF964F
:10037000089501970895FC01918D828D981761F081
:10038000A28DAE0FBF2FB11D5D968C91928D9F5F98
:100390009F73928F90E008958FEF9FEF0895FC0177
:1003A000918D828D981731F0828DE80FF11D858D2A
:1003B00090E008958FEF9FEF0895FC01918D228DBD
:1003C000892F90E0805C9F4F821B91098F73992742
:1003D000089586E897E00E94DD0121E0892B09F469
:1003E00020E0822F089580E090E0892B29F00E9480
:1003F000E90181110C9400000895FC01A48DA80F5F
:10040000B92FB11DA35ABF4F2C91848D90E0019656
:100410008F739927848FA689B7892C93A089B18976
:100420008C91837080648C93938D848D981306C017
:100430000288F389E02D80818F7D80830895EF927B
:10044000FF920F931F93CF93DF93EC0181E0888F8E
:100450009B8D8C8D98131AC0E889F989808185FF5E
:1004600015C09FB7F894EE89FF896083E889F98900
:1004700080818370806480839FBF81E090E0DF9102
:10048000CF911F910F91FF90EF900895F62E0B8D55
:1004900010E00F5F1F4F0F731127E02E8C8D8E1110
:1004A0000CC00FB607FCFACFE889F989808185FF77
:1004B000F5CFCE010E94FD01F1CFEB8DEC0FFD2FAA
:1004C000F11DE35AFF4FF0829FB7F8940B8FEA8932
:1004D000FB8980818062CFCFCF93DF93EC01888D41
:1004E0008823B9F0AA89BB89E889F9898C9185FDAF
:1004F00003C0808186FD0DC00FB607FCF7CF8C913D
:1005000085FFF2CF808185FFEDCFCE010E94FD01F6
:10051000E9CFDF91CF9108951F93CF93DF93162FEB
:10052000EC0121970E945A01FE01EE0FFF1FEE0F12
:10053000FF1FED5EF84F6083718382839383FE011A
:10054000E151F94F3081311106C0FE01E551F94FFB
:100550008081882311F01123B9F0FE01E454FA4F91
:100560008081FE01E854FA4F208144E0849FC0015D
:1005700011248D50994F820F911D21E0FC012083A1
:10058000FE01ED5DF84F2083809123058823D1F093
:1005900020E0311106C0FE01E551F94F208181E0D4
:1005A0002827FE01EC54FA4F8081C055DA4F38817C
:1005B000F4E08F9FC00111248D50994F830F911D3E
:1005C000FC012083DF91CF911F9108950F931F931A
:1005D000CF93DF9360E088E00E94DE0061E088E076
:1005E0000E94DE000BE617E0C3EFD6E082E00E9437
:1005F000B50021E0892B09F020E0F801208389E093
:100600000E94B50021E0892B09F020E0F801218348
:10061000688186E00E94DE0069818EE00E94DE0033
:100620006A818AE00E94DE006B8181E10E94DE0027
:1006300061E083E10E94DE0060E083E10E94DE0071
:100640000E5F1F4F2496F7E0C331DF0779F661E0B4
:1006500082E10E94DE0060E082E10E94DE008FE025
:100660000E94B50021E0892B09F020E020937B0750
:1006700087E00E94B50021E0892B09F020E020935B
:100680007C0784E00E94B50021E0892B09F020E07E
:100690002093380683E00E94B50021E0892B09F001
:1006A00020E02093370680E10E944801909387065E
:1006B00080938606DF91CF911F910F9108950F933C
:1006C0001F93CF93DF93ACEAB5E008EB15E0A801E8
:1006D0009D01E90189919E0190E0FA016191AF01CC
:1006E000E62FF0E0880F991FBC016559784F6E0F17
:1006F0007F1F875A984FEF01C80FD91FFB019081C8
:100700008881891768F4E4E7F6E090E080E0619181
:10071000611150C08C58994F622F6A1BEC0168839D
:10072000D5E0203B3D07A9F621E030E08D9190E037
:10073000E801E9918E01F0E0880F991FAC0145595D
:10074000584F4E0F5F1F875A984FEF01C80FD91FA0
:10075000FA0190818881981770F4E4E7F6E08191BE
:100760008217130621F4CF010197EC011882D6E01D
:10077000E837FD07A1F72F5F3F4F25303105B1F670
:10078000E4E7F6E028E736E080E09191992331F044
:10079000A82FB0E0AC58B94F9C938F5F2E173F073E
:1007A000A1F7E82FF0E0EC58F94F843048F48F5F60
:1007B0001192FBCF01968430910509F0A8CFB0CFFC
:1007C0008093E405DF91CF911F910F910895CF930E
:1007D000C09122058091D906811117C081E08093D4
:1007E00007070E945A016093D4067093D506809340
:1007F000D6069093D70681E08093D8068093D206E0
:10080000C1FF8093E305CF910895C0FDEACF81E059
:100810008093FB06E6CFCF93C1E0C093FB060E9416
:100820005A016093E3067093E4068093E506909383
:10083000E6068091220581FFC093E305CF910C94D9
:10084000E703E3EFF6E081E0808B828B0E945A01A0
:100850006093E7067093E8068093E9069093EA06B2
:100860000895EF92FF920F931F93CF93DF933091F0
:1008700022053870F090260500911A051091730634
:1008800070911205E090970660918D06C4EAD5E05C
:1008900040EA55E021E0899190E0DA01ED91AD0167
:1008A000F0E0880F991FDC01A559B84FAE0FBF1FAC
:1008B000AC91AA2371F0875A984FE80FF91F8081F5
:1008C000811107C0311101C0F22E6E2D722F10E080
:1008D00001E02F5F2530F9F6F092260500931A0506
:1008E000109373067093120560938D06DF91CF917C
:1008F0001F910F91FF90EF900895CF93109267068C
:10090000C1E0C0933606109227060E945A016093F8
:10091000490670934A0680934B0690934C061092BA
:10092000810610927306C0930101C0930501809166
:1009300012058093260580918D06809397068091FD
:100940004D06882319F0CF910C940B04C0934806F0
:10095000CF910895CF92DF92FF920F931F93CF9381
:10096000DF93CCEAD5E068EB75E0AFEEB6E044EBA0
:1009700055E020EB35E0FF24F394899190E0FB01F2
:100980001191BF01E12FF0E0880F991F8C010559EB
:10099000184F0E0F1F1F875A984F6F01C80ED91E90
:1009A000F8019081F6018081891718F48C918F25C8
:1009B0008C93FA018191AF01F90111919F01F4E04B
:1009C0008F9FC00111248D50994F810F911DED9182
:1009D0001E2F1F25FC011083F5E0C03BDF0769F6E1
:1009E000DF91CF911F910F91FF90DF90CF900895ED
:1009F000EF92FF920F931F93CF93DF933CEAE32E86
:100A000035E0F32E08EB15E0D0E0C0E0D7018D9182
:100A10007D0190E0D801ED918D01F0E02196880FE5
:100A2000991FDC01A559B84FAE0FBF1F2C9122238F
:100A300059F0875A984FE80FF91F8081811104C03F
:100A400061E0CE010E948C02C430D105F9F6DF913D
:100A5000CF911F910F91FF90EF900895E3EFF6E093
:100A6000168A118E118A158208950E942E05809192
:100A700024089FEF980F9430B0F48150990BFC013B
:100A8000E259FA4F208186599A4FFC013081F4E0F7
:100A90002F9FC00111248D50994F830F911D21E08C
:100AA000FC0120830895853049F481E08093090793
:100AB00080930C07809304078093F8060895E3EF72
:100AC000F6E0128E158A1586118608950F931F93EE
:100AD0000E945F0540912605842F8150990B9C014F
:100AE000FC01E855FA4F808126593A4FF9012081DF
:100AF000F4E08F9FC00111248D50994F820F911DFA
:100B000021E0FC0120838091730690E020911A057A
:100B10002150330B821793070CF044C08E5E9A4F1E
:100B2000FC01818180930001809100014817B9F197
:100B30008130D9F58091880680930D074091550743
:100B40005091560760915707709158078091890618
:100B500090918A06A0918B06B0918C068A019B0128
:100B6000081B190B2A0B3B0B80911D0590911E054C
:100B7000A0911F05B091200580179107A207B30728
:100B800070F48091880691E08927809388064093CD
:100B9000890650938A0660938B0670938C061F918A
:100BA0000F91089580911205BDCF823029F4809174
:100BB000880680930807C2CF833029F48091880685
:100BC00080930007BBCF843009F0B8CF80918806AE
:100BD0008093FC06B3CFE3EFF6E0178E1382178203
:100BE00013861786138A178A138E08952F923F92C1
:100BF0004F925F926F927F928F929F92AF92BF922D
:100C0000CF92DF92EF92FF920F931F93CF93DF93D8
:100C1000CDB7DEB763970FB6F894DEBF0FBECDBF7A
:100C20000E9431040E9466058091DB0600918606D1
:100C300010918706811109C281E08093F90698011D
:100C400021503109A6EFBFEF0E94C3302FEF33E0F0
:100C500040E050E00E945430275F3F4F4F4F5F4FBE
:100C6000E22FF0E0E05AFA4F408150E0FE01319669
:100C700068E975E010E9C12E15E0D12E27E030E0DB
:100C80007F01CA01022E02C0959587950A94E2F76A
:100C9000182F11701193DB018D91BD01D6010D91BB
:100CA0006D01B4E08B9FC00111248D50994F800FCE
:100CB000911DDC011C932150310918F72091390650
:100CC0002111F2C081E020915F07909171072917EF
:100CD00008F080E020915B0790916D07291708F4D8
:100CE00082E020915D0790916F07291708F483E057
:100CF00020916B0790915907921708F484E0809334
:100D00003906E0913906209126052150330BB901AF
:100D1000660F771F660F771F20919706422E9091DE
:100D200025068091260631E001C0330F2A95EAF7A7
:100D3000232E1DEC812E16E0912E50E040E09B0109
:100D40002F5E3E4FD4016D914D01662309F46BC0B7
:100D5000FA01E755F94FB1E0B083F901E40FF51F4F
:100D6000FB87EA878901D12CC12C70E060E0AA855D
:100D7000BB853C90632C712C042C02C07594679445
:100D80000A94E2F75301B1E0AB22BB2480E0B0E06B
:100D9000A0E04A175B0779F081110DC0C8018A0FE6
:100DA0009B1FFC01808190E0042C02C095958795E3
:100DB0000A94E2F781701196A430B10551F7AB287F
:100DC00011F48823C1F0D701A60FB71F9C91911190
:100DD00035C13228AA85BB853C92B0E0A0E04A1715
:100DE0005B0729F05801AA0EBB1EF501108211966F
:100DF000A430B105A1F7673071050CF023C16F5F16
:100E00007F4FBFEFCB1ADB0AEA85FB857096FB8725
:100E1000EA87005F1F4FF0E4CF16D10409F0A7CF97
:100E2000962D9170E0E04F5F5F4F4430510509F01F
:100E300089CF8093260690932506E093390680910A
:100E40007107811118C080916D07811114C08091C4
:100E50006F07811110C080916B0781110CC0109237
:100E6000390610923A061092EB061092EC06109298
:100E7000ED061092EE0663960FB6F894DEBF0FBE35
:100E8000CDBFDF91CF911F910F91FF90EF90DF9039
:100E9000CF90BF90AF909F908F907F906F905F901A
:100EA0004F903F902F9008956BEE76E00CEA15E09E
:100EB000B8EBCB2EB5E0DB2E90E080E02150330B79
:100EC00041E02817390709F440E0FB014193BF01D5
:100ED000D8014D918D0150E0D601ED916D01F0E00A
:100EE000440F551FDA01A559B84FAE0FBF1F475A1F
:100EF000584FE40FF51F5C914081451708F098C0EA
:100F00001092EB061092EC061092ED061092EE068F
:100F1000E0912605E150FF0BEE0FFF1FEE0FFF1FC4
:100F200060919706062F41E050E001C0440F6A959A
:100F3000EAF7542E5094D901AE0FBF1FAD014F5E9A
:100F40005E4F5B874A87E80FF91FEF5EFE4FD12C9B
:100F5000C12C70E060E033243394AA85BB854C90AB
:100F6000842C912C002E02C0959487940A94E2F769
:100F7000A080B12C002E02C0B594A7940A94E2F789
:100F80004520D401AA29BB293D0141E064227724F0
:100F900040E0A0FF06C0A701460F571FDA014C91A1
:100FA0004325002E01C0440F0A94EAF74429AA857C
:100FB000BB854C934080452040E0672829F0A7017D
:100FC000460F571FDA014C91002E01C0440F0A94BE
:100FD000EAF744294083673071053CF56F5F7F4F26
:100FE000BFEFCB1ADB0A4A855B85405F5F4F5B87AB
:100FF0004A87709650E4C516D10409F0AECF4A2D49
:10100000417040932606482D417040932506F90112
:10101000E755F94F31E030838755994FDC013C9318
:101020001092390610923A066CCE70E060E0D8CF8C
:1010300001968430910509F043CF63CEAA85BB8524
:101040001C92D9CE70E060E0DCCE0E94EB0581E01E
:101050008093F906409055075090560760905707C7
:101060007090580790912105992381F0409289064C
:1010700050928A0660928B0670928C068093880646
:10108000109385060093840610928306809184064F
:1010900090918506801B910B97FF03C091958195D8
:1010A000910906973CF080918306811103C081E08D
:1010B00080938306809183068111A5C12BE0298747
:1010C00088E090E05985252E312C11E0A10148508F
:1010D000510968E070E09C0121503109A985A930CF
:1010E00008F495C1FB01E81BF90BE417F507B4F40C
:1010F000919581959109FC01E856FA4FE08580575A
:101100009A4FDC011896FC91B4E0EB9FC0011124CA
:101110008D50994F8F0F911DFC011083C9010097CD
:10112000D1F680910301882309F43FC0809197068E
:10113000E82E61E070E002C0660F771F8A95E2F743
:10114000E5EEF5E0809126058150990B880F991FF7
:10115000880F991F8F5E9E4F119210E050E040E083
:101160009C01240F351FD9012C9130E02623372311
:101170000E2C02C0359527950A94E2F7042E01C083
:10118000220F0A94EAF7122B4F5F5F4F443051054C
:1011900039F79F0121503109D9011C934096B6E0DF
:1011A000E532FB07C9F610920301ECEAF5E0FD8792
:1011B000EC8728EB35E03F872E87F12CE12CA1014D
:1011C00049505109598B488BAC85BD858D91BD87A0
:1011D000AC8790E0AE85BF85ED91BF87AE87F0E02C
:1011E000880F991FDC01A559B84FAE0FBF1F875A52
:1011F000984FE80FF91F9C918081891708F0A7C0CC
:1012000080912705982F9695969596959E9D90018D
:101210009F9D300D112490916706492F50E08A015F
:101220000250110917FF02C00F5F1F4F1595079558
:101230000F5F1F4F8695E82FF0E0FB87EA87E017E6
:10124000F10711F410E000E0A9014B515A4F6A0177
:1012500090FF26C0DA018C91982F9170998381FBC1
:10126000992790F99A8382FB992790F99B8383FBB6
:10127000882780F98C83FE0131964F01B12CA12C77
:10128000D4018D914D01BFEFAB1ABB0A882321F029
:1012900060E0C5010E948C02E4E0AE16B10481F763
:1012A00080919706882E21E030E001C0220F8A95B8
:1012B000EAF720952A8BA09026054A2D4150550B20
:1012C0005A01AA0CBB1CAA0CBB1CC80144E0880F25
:1012D000991F4A95E1F7A80EB91E90E080E0D5016C
:1012E000AF5EBE4F5D01FC0124E0EE0FFF1F2A95AB
:1012F000E1F7EA0DFB1D70E060E0A081BA89BA2336
:10130000BB8B2985293008F098C0821593050CF411
:1013100094C0B0836F5F7F4F31966430710569F779
:101320009801280F391FEA85FB85E217F30779F04A
:10133000F985F93028F0288939892817390739F0D3
:1013400001963FEFC31AD30A8830910561F64FEF3B
:10135000E41AF40A54E0E516F10409F035CF80915F
:101360008106609128080E94B7308093110590E0B3
:1013700030918806FC01E856FA4F208180579A4F39
:10138000DC01EC91B4E02B9FC00111248D50994FEA
:10139000E80FF92FF11D30838091890690918A061C
:1013A000A0918B06B0918C06B301A201481B590B8A
:1013B0006A0B7B0B80911D0590911E05A0911F0566
:1013C000B091200584179507A607B70708F053CDFD
:1013D00081E08327809388064092890650928A068E
:1013E00060928B0670928C0646CD805C9F4F803455
:1013F00034E0930709F464CE08171907B4F7498558
:101400004F5F4987F2CF80E490E01986F5CF8215CF
:1014100093050CF483CEF901E856FA4F8081F90167
:10142000E057FA4FE081F4E08F9FC00111248D5006
:10143000994FE80FF92FF11D70CED6014C9150E075
:1014400021E030E0062E02C0220F331F0A94E2F79B
:1014500024233523062E02C0359527950A94E2F7FA
:10146000082C01C0220F0A94EAF7BB892B2B20839A
:1014700051CF0E94EB0580918106609128080E945F
:10148000B7308093110590E0FC01E856FA4F2081B7
:1014900080579A4FFC013081F4E02F9FC001112446
:1014A0008D50994F830F911D21E0FC0120830895F9
:1014B0002F923F924F925F926F927F928F929F9264
:1014C000AF92BF92CF92DF92EF92FF920F931F9352
:1014D000CF93DF93CDB7DEB760970FB6F894DEBF3A
:1014E0000FBECDBFA091260880916706A1114EC006
:1014F00090912408913009F049C020914F07222390
:1015000009F444C080FD44C02091D306211111C0CC
:101510002091710721110DC020916D07211109C083
:1015200020916F07211105C020916B07222309F438
:1015300078C090913B0620910D012150330B9217FA
:1015400013060CF058C09F5F90933B06E091630632
:10155000F0E0ED58F94F208190912705222371F09A
:101560003FEF320F20913B062F5F492F469546955E
:101570004695439F200D112420933C06969520917B
:101580003C06921718F4291B20933C0680FFA2C347
:101590004091DE055091DF056091E0057091E10515
:1015A0007695679557954795403A06E8500701E0CC
:1015B00060077105E8F140931D0550931E05609387
:1015C0001F057093200590913C069923B1F191502D
:1015D0009093810680918106482F50E070912705F5
:1015E000272F269581112DC021502093DD0591E0F4
:1015F0009093DC0533C09091630610923B0621E086
:101600002093E205E92FF0E0EC58F94F20812223E6
:1016100031F0943020F49F5F9093630697CF91E070
:10162000FBCF10923C0610923B0690936306AECF20
:1016300040EA56E861E070E0BECF8695809381066F
:10164000C9CF9FEF980F2150330B9093DD0591E0A8
:10165000980F2417350761F61092DC05A11125C0FB
:1016600090912408943009F5909196069923E9F019
:101670009091DF0660918206713208F44DC28F713D
:1016800021E030E0861710F430E020E02B56394F8F
:10169000F9018081992309F441C290911A05923091
:1016A00008F43CC281508093970620912605215072
:1016B000330B220F331F220F331F8091970674E0E4
:1016C000440F551F7A95E1F74F5E5E4FFA01E20F26
:1016D000F31F608170E0082E02C0759567950A942B
:1016E000E2F76170698389010F5F1F4FFA01E00F14
:1016F000F11F608170E0082E02C0759567950A940D
:10170000E2F761706A83D9011296FA01EA0FFB1FB2
:10171000608170E0082E02C0759567950A94E2F723
:1017200061706B837901F3E0EF0EF11C4E0D5F1DCC
:10173000FA01408150E0082E02C0559547950A9461
:10174000E2F741704C836091DD05F0E16F9FB001DD
:1017500011246F5E7E4FAB01420F531FFA0140818F
:1017600050E0082E02C0559547950A94E2F7417063
:101770004D83AB01400F511FFA01408150E0082E0C
:1017800002C0559547950A94E2F741704E83AB012C
:101790004A0F5B1FFA01408150E0082E02C05595A8
:1017A00047950A94E2F741704F836E0D7F1DFB0150
:1017B000408150E0082E02C0559547950A94E2F703
:1017C000417048874091DC05F0E14F9FA001112452
:1017D0004F5E5E4F240F351FF901208130E0082E47
:1017E00002C0359527950A94E2F721702987040FE6
:1017F000151FF801208130E0082E02C0359527958D
:101800000A94E2F721702A87A40FB51F2C9130E0CB
:10181000082E02C0359527950A94E2F721702B8790
:10182000F701E40FF51F208130E0890102C0159512
:1018300007958A95E2F7C80181708C878E010B5F4E
:101840001F4F188B0F87E8ED2E2EE5E03E2E0DE79B
:1018500016E01E870D8710E000E0F2E0CF2EF5E0E5
:10186000DF2EE12CF12CAAEA8A2E99249394A12C44
:10187000B12CBEEF4B2EB4E05B2E612C712CEF85AA
:10188000F8898191F88BEF87811107C0E9E0F0E0DA
:10189000EC0FFD1FE00FF11F8081F10181931F010B
:1018A000ED85FE858191FE87ED87882309F442C08E
:1018B0008091260881113EC080913C0681113AC07A
:1018C00080910E0190E09801220F331F02C0959580
:1018D00087952A95E2F780FF2DC080910F019091A6
:1018E00010018A3AF1E09F070CF024C18091DD06D7
:1018F000811119C10E94E62FA30192010E94543068
:1019000064557340810991097093D7056093D6059A
:1019100020910F01309110018091D6059091D7054B
:10192000821793073CF0E1E0F0E0EC0FFD1FE00FC1
:10193000F11F10820F5F1F4F0430110509F09FCF78
:10194000AE014F5F5F4F5A0110E000E0B3E04B2E55
:10195000512C612C712C8AEA282E33243394F50102
:1019600081915F0198012F5F3F4F4901882309F45E
:1019700072C0F801E358F94F8081882309F46BC1E4
:1019800080912608811167C180913C06811163C155
:10199000C801880F991F42E050E002C0440F551F54
:1019A0008A95E2F7CA0120910E0130E08223932349
:1019B000892B09F450C180910F01909110018A3A4E
:1019C00051E095070CF0FEC02091DE053091DF0557
:1019D0004091E0055091E10556954795379527953B
:1019E000D101A81BB90B0E947E302AEA31E040E009
:1019F00050E00E94863069017A01C114D104E104EB
:101A0000F10409F4DAC00E94E62FA70196010E94B2
:101A100054306B017C0181E08D87C114D104E10455
:101A2000F10409F418C1C801880F991F880F991F84
:101A3000FC01E55DF84FC082D182E282F382815CD5
:101A4000984FFC01C082D182E282F382F801E55C0A
:101A5000F84F0D85008384010430110509F07FCF14
:101A60008091550790915607A0915707B09158075C
:101A70004091D2055091D3056091D4057091D50560
:101A80008C019D01041B150B260B370BB901A80116
:101A90004093DE055093DF056093E0057093E10508
:101AA0008093D2059093D305A093D405B093D50528
:101AB000809148069091E205992309F4D1C08111E3
:101AC000D2C00E94E7031092E20580913806882375
:101AD00009F4DEC08091E3058111CAC00E9421048F
:101AE00081E08093010160960FB6F894DEBF0FBECF
:101AF000CDBFDF91CF911F910F91FF90EF90DF90BD
:101B0000CF90BF90AF909F908F907F906F905F909D
:101B10004F903F902F9008958F70B2CD80932605FF
:101B200080931205C2CD0E94E62FA50194010E9468
:101B30005430EACE853592400CF4FCCE8091DD061F
:101B4000811134C00E94E62FA70196010E945430F3
:101B50006C5A7D4F8F4F9F4F7093D7056093D6057A
:101B6000F1013197808181110AC0E1E0F0E0EC0FD2
:101B7000FD1FE00FF11F8081882309F4DBCE209147
:101B80000F01309110018091D6059091D70528174B
:101B900039070CF4CFCEE1E0F0E0EC0FFD1FE00FD1
:101BA000F11F808131E083278083C4CE0E94E62F1D
:101BB0002CEA31E040E050E0C9CF60E070E080E026
:101BC00090E027CF853592400CF445C00E94E62F67
:101BD0002AEA35E040E050E00E9454306C5A7D4FD4
:101BE0008F4F9F4F20910F013091100162177307A3
:101BF00094F50E94E62FA30192010E9454309B01AC
:101C0000AC012F5F3F4F4F4F5F4F2D87C090DE05D8
:101C1000D090DF05E090E005F090E1052130B1F0D3
:101C2000C701B601660F771F881F991F30E02F5F2D
:101C30003F4F032E000C440B550B0E948630690168
:101C40007A0160E0C4010E948C02E7CEF694E7942A
:101C5000D794C794F6CF60E0C4010E948C02FBCEFB
:101C6000882309F432CF0E940B04109248062DCF2E
:101C70001092E3050E945A0160932707709328078A
:101C80008093290790932A0781E08093500728CFFB
:101C900010910101113031F48091E30581110BC0E5
:101CA0000E94210480910401181708F019CF1F5FCA
:101CB0001093010118CF1092E3050E945A0160931E
:101CC0002707709328078093290790932A0710937A
:101CD0005007E8CF90919706492F21E030E002C0ED
:101CE000220F331F9A95E2F7E0912605E150FF0B92
:101CF000EE0FFF1FEE0FFF1F86958150990B54E0EA
:101D0000880F991F5A95E1F7E80FF91FCF018F5EF1
:101D10009E4F6C01A9E5B6E00DE516E0F601619174
:101D20006F01862F90E082239323892B91F48C916D
:101D30007601F1E0EF1AF108042E01C0880F0A9431
:101D4000EAF7862BF70180831D920A171B0731F7EC
:101D5000CACE81E0EDCF0C944630FF920F931F93D3
:101D6000CF93DF93EC018B01FB01F0800E943E30AA
:101D7000F81621F06F2DCE010E944630F801F18057
:101D80002196CE010E943E30F81621F06F2DCE0133
:101D90000E944630C801DF91CF911F910F91FF90B3
:101DA00008954F925F926F927F928F929F92AF921F
:101DB000BF92CF92DF92EF92FF920F931F93CF9338
:101DC000DF936091260590E080E00E94AB0E02E177
:101DD00015E0D0E0C0E0F80161918F012196CE01BD
:101DE0000E94AB0EC830D105B1F760911A0589E0A9
:101DF00090E00E94AB0E609104018AE090E00E94A6
:101E0000AB0E609127058BE090E00E94AB0E6091D5
:101E10001B058CE090E00E94AB0E60911C058DE0EC
:101E200090E00E94AB0E6091F006660F8091F10683
:101E3000F4E08F9FC0011124682B8091EF06682B7E
:101E40008091F20628E0829FC0011124682B8EE069
:101E500090E00E94AB0E60917E06660F80917F0637
:101E6000E4E08E9FC0011124682B80917D06682BD1
:101E700080918006F8E08F9FC0011124682B8FE0CD
:101E800090E00E94AB0E6FE071E080E190E00E9474
:101E9000AD0E6091060182E190E00E94AB0E609170
:101EA0000601709107018091080190910901672F47
:101EB000782F892F992783E190E00E94AB0E6091E3
:101EC0000601709107018091080190910901BC0100
:101ED0008827992784E190E00E94AB0E609106016B
:101EE000709107018091080190910901692F77276E
:101EF0008827992785E190E00E94AB0E60919706B4
:101F000086E190E00E94AB0E6091DB06660F809147
:101F1000DD0624E0829FC0011124682B8091D90640
:101F2000682B8091DF06E8E08E9FC0011124682BAA
:101F30008091E106F0E18F9FC0011124682B87E1B9
:101F400090E00E94AB0E6091DC06660F8091DE0689
:101F500024E0829FC0011124682B8091DA06682B4F
:101F60008091E006E8E08E9FC0011124682B8091EB
:101F7000E206F0E18F9FC0011124682B88E190E018
:101F80000E94AB0E60914D0689E190E00E94AB0E7D
:101F900060914E068AE190E00E94AB0E60912205AE
:101FA0008BE190E00E94AB0E0DE816E0CFE1D0E0AF
:101FB000F80161918F01CE010E94AB0E2196C732CC
:101FC000D105B1F760910E0187E290E00E94AB0E5F
:101FD0006AE071E088E290E00E94AD0E812C9924C5
:101FE000939494E0A92EB12CF12CE12C10E000E0A8
:101FF000E801CF5EDE4F6701FEEFDF1A270120EC1C
:10200000421A2DEF520A34016E187F086885E0E10C
:102010006E9FC00111246881682BC6010E94AB0E1F
:10202000FE01E01BF10BEA0DFB1D6C8520E1629FB8
:10203000C00111246081682BC3018C0D9D1D0E947D
:10204000AB0E60968FEFC81AD80A4C145D04F1F6F7
:102050000F5F1F4FE0E4EE0EF11CFFEFAF1ABF0A57
:1020600020E4820E911C0430110511F6DF91CF910E
:102070001F910F91FF90EF90DF90CF90BF90AF90A6
:102080009F908F907F906F905F904F9008950C94E9
:102090003E304F925F926F927F928F929F92AF925B
:1020A000BF92CF92DF92EF92FF920F931F93CF9345
:1020B000DF9390E080E00E9447108093260502E1C4
:1020C00015E0D0E0C0E02196CE010E944710F80153
:1020D00081938F01C830D105B1F789E090E00E946B
:1020E000471080931A058AE090E00E944710809381
:1020F00004018BE090E00E944710809327058295B1
:102100008F70809328088CE090E00E9447108093A5
:102110001B058DE090E00E94471080931C058EE027
:1021200090E00E944710282F81708093EF0621FBDA
:10213000882780F98093F00622FB882780F9809316
:10214000F10623FB222720F92093F2068FE090E08E
:102150000E944710282F817080937D0621FB8827DD
:1021600080F980937E0622FB882780F980937F0682
:1021700023FB222720F92093800680E190E00E9433
:102180003E3080930F0181E190E00E943E308093C9
:10219000100110920601109207011092080110928E
:1021A000090182E190E00E944710C82ED12CF12C49
:1021B000E12CC0920601D0920701E0920801F09252
:1021C000090183E190E00E944710D82AC0920601DD
:1021D000D0920701E0920801F092090184E190E0B9
:1021E0000E944710E82AC0920601D0920701E092AF
:1021F0000801F092090185E190E00E944710F82A59
:10220000C0920601D0920701E0920801F092090104
:1022100086E190E00E9447108093970687E190E066
:102220000E944710282F81708093D90621FB8827B0
:1022300080F98093DB0622FB882780F98093DD06F6
:1022400023FB882780F98093DF0622952170209355
:10225000E10688E190E00E944710282F817080936A
:10226000DA0621FB882780F98093DC0622FB882789
:1022700080F98093DE0623FB882780F98093E006AF
:10228000229521702093E20689E190E00E94471098
:1022900091E0811101C090E090934D068AE190E0B9
:1022A0000E94471091E0811101C090E090934E068A
:1022B0008BE190E00E944710809322050DE816E024
:1022C000CFE1D0E0CE010E944710F80181938F0149
:1022D0002196C732D105B1F787E290E00E944710FE
:1022E00080930E0188E290E00E943E3080930A01C4
:1022F00089E290E00E943E3080930B0184E0A82E9A
:10230000B12C812C99249394F12CE12C10E000E065
:102310006701FEEFDF1AE801CF5EDE4F270180EC98
:10232000481A8DEF580A34016E187F08C6010E94C2
:102330004710982F9F70988382958F708887C3016C
:102340008C0D9D1D0E944710FE01E01BF10BEA0D54
:10235000FB1D982F9F70908382958F708C87EFEF75
:10236000CE1ADE0A60964C145D0401F70F5F1F4F12
:10237000F0E4EF0EF11C80E4880E911CEFEFAE1A32
:10238000BE0A0430110521F6DF91CF911F910F9104
:10239000FF90EF90DF90CF90BF90AF909F908F9085
:1023A0007F906F905F904F9008952F923F925F9231
:1023B0006F927F928F929F92AF92BF92CF92DF9255
:1023C000EF92FF920F931F93CF93DF9300D01F9252
:1023D000CDB7DEB7E0919607F091970782E0808352
:1023E000E0919207F09193071082E0919407F091A9
:1023F00095078FEC808310929E07E0919A07F091E9
:102400009B0786E08083E0919807F091990780818F
:1024100080618083E0919807F091990780818860BE
:102420008083E0919807F09199078081806880838C
:10243000E0919807F091990780818F7D808384E1F6
:102440000E944801BC01990F880B990B6115710519
:102450008105910511F00E94353061E088E00E940D
:102460000C0161E082E10E940C0161E083E10E94C5
:102470000C0160E082E00E940C0160E089E00E94B3
:102480000C0161E086E00E940C0161E08EE00E9498
:102490000C0161E08AE00E940C0161E081E10E9490
:1024A0000C0160E084E00E940C0162E08FE00E9479
:1024B0000C0160E087E00E940C0160E083E00E9474
:1024C0000C010E94E6028091750781110E94D10ED5
:1024D0000E94491080917607882309F41DC1A9E55F
:1024E000B7E0EBE6F7E080818C93818111968C93C5
:1024F00011973296129627E0ED37F207A1F72224C2
:102500002394312C9091760780916407891708F401
:1025100003C131E0309312073093F6063093FA0688
:102520003093FE06309302073093060710920A0795
:1025300030930E070E945A01609355077093560717
:1025400080935707909358070091890610918A0647
:1025500020918B0630918C066B017C01C01AD10A48
:10256000E20AF30A00911D0510911E0520911F0536
:10257000309120050C151D052E053F0570F42091A6
:102580008806A1E02A272093880660938906709325
:102590008A0680938B0690938C06809188068093A0
:1025A0000507B0912205BB8322E735E03A832983F2
:1025B00098EAA92E95E0B92E6AE675E02EE6822EFD
:1025C00025E0922E3AE6632E35E0732E04EA15E0FC
:1025D00040EAE42E45E0F42EE6E7F5E0512CAF01A9
:1025E00046575540819190E0A981BA812D91BA83D7
:1025F000A98330E0DC01AA0FBB1FCD018559984F9C
:102600006C01C20ED31ECD01875A984F820F931FC3
:10261000D6012C91DC018C91821748F4C101042E63
:1026200001C0880F0A94EAF7BB81B827BB83D401A5
:102630008D914D01D3012D913D01B4E08B9FC001DF
:1026400011248D50994F280F392F311DAB818A2FBE
:1026500090E0042E02C0959587950A94E2F7817068
:10266000D9018C93D8018D918D0190E0D7012D91E6
:102670007D0130E0880F991FDC01A559B84F6D012D
:10268000C20ED31E875A984F820F931FD6012C91EA
:10269000DC018C91821720F4BB81BF7CB529BB8300
:1026A000D5018D915D01DB012D91BD01B4E08B9FC2
:1026B000C00111248D50994F280F392F311DAB8146
:1026C0008A2F90E0A4E095958795AA95E1F783700D
:1026D0009927DD24D3948417950709F0D12CD901CB
:1026E000DC92B0E15B0E20E4521279CF3B81309353
:1026F0002205A9E5B7E0EBE6F7E080818C938181C4
:1027000011968C9311973296129687E0ED37F80761
:10271000A1F70E94E602F6CE8091220580738031F7
:1027200031F1B8F48823E1F00F900F900F90DF9112
:10273000CF911F910F91FF90EF90DF90CF90BF90BE
:10274000AF909F908F907F906F905F903F902F9071
:102750000895803279F0803339F780E29EE402C038
:1027600088EE93E09093250580932405DDCF88E8DB
:1027700093E1F8CF80E197E2F5CF1F920F920FB669
:102780000F9211242F933F938F939F93AF93BF93F7
:1027900080917E0790917F07A0918007B09181077B
:1027A00030917D0723E0230F2D3758F50196A11DA9
:1027B000B11D20937D0780937E0790937F07A093A0
:1027C0008007B09381078091820790918307A09141
:1027D0008407B09185070196A11DB11D80938207E2
:1027E00090938307A0938407B0938507BF91AF911F
:1027F0009F918F913F912F910F900FBE0F901F903F
:10280000189526E8230F0296A11DB11DD2CF1F9265
:102810000F920FB60F9211242F933F934F935F9314
:102820006F937F938F939F93AF93BF93EF93FF9398
:1028300086E897E00E94FD01FF91EF91BF91AF9173
:102840009F918F917F916F915F914F913F912F91C8
:102850000F900FBE0F901F9018951F920F920FB6FA
:102860000F9211242F938F939F93EF93FF93E091F7
:102870009607F09197078081E0919C07F0919D0762
:1028800082FD1BC0908180919F078F5F8F73209185
:10289000A007821741F0E0919F07F0E0EA57F84F58
:1028A000958F80939F07FF91EF919F918F912F912B
:1028B0000F900FBE0F901F9018958081F4CFE6E81F
:1028C000F7E01382128288EE93E0A0E0B0E0848308
:1028D0009583A683B78384EC95E09183808385EC10
:1028E00090E09587848784EC90E09787868780ECDA
:1028F00090E0918B808B81EC90E0938B828B82ECCB
:1029000090E0958B848B86EC90E0978B868B118E74
:10291000128E138E148E8091270582958F7080936E
:1029200028088091260580932708809126088093A7
:10293000250880912408809323080895CF93DF937E
:10294000CDB7DEB7C955D1090FB6F894DEBF0FBEBB
:10295000CDBF789484B5826084BD84B5816084BD28
:1029600085B5826085BD85B5816085BD80916E002D
:10297000816080936E00109281008091810082605E
:10298000809381008091810081608093810080919B
:1029900080008160809380008091B100846080938A
:1029A000B1008091B00081608093B00080917A0086
:1029B000846080937A0080917A00826080937A00AC
:1029C00080917A00816080937A0080917A0080689B
:1029D00080937A001092C1000E94D5118E010F5F82
:1029E0001F4F1EAB0DAB025D1F4F18AF0FAB0E9408
:1029F000E60280913806882309F4BCC1909137061D
:102A00009093360680910401813009F059C12091DC
:102A10003506222309F44DC12091670640915507E0
:102A2000509156076091570770915807C090310632
:102A3000D0903206E0903306F09034064C195D09D0
:102A40006E097F09322F3695382731702E963FAFA9
:102A50002E972F961FAE2F972F96EEADFFAD2F9787
:102A6000EE0FFF1FEE0FFF1FE75DF94FC080D18013
:102A7000E280F380C416D506E606F70608F019C111
:102A800020FF17C180932806109235069111C0C00F
:102A900080914D06882309F4D1C180913606809338
:102AA00027062090750729AE222009F449C00CEAB8
:102AB00015E048EBC42E45E0D42E54EA852E55E0AF
:102AC000952E60EAE62E65E0F62E70EBA72E75E0F7
:102AD000B72ED8018D918D0190E0D601ED916D0159
:102AE000F0E0880F991FDC01A559B84FAE0FBF1F4A
:102AF000875A984FE80FF91F9C9180818917A8F099
:102B0000F401808190E0D701EC91F0E0880F991FEB
:102B1000DC01A559B84FAE0FBF1F875A984FE80F79
:102B2000F91F9C918081891710F40E947D04BFEFEA
:102B30008B1A9B0AEFEFEE1AFE0AA016B10649F6B1
:102B400080917B078093260890916907891729F067
:102B50009091220592FF10922408209077072DAEC5
:102B600070907607222009F49BC19091650791111E
:102B700006C0809325089091240890932308209103
:102B80001B0590911C054091620730917407431713
:102B900010F4282F91E04091680730917A0743178D
:102BA00010F4282F92E0409172073091600734179B
:102BB00010F4282F93E040916E0730915C07341792
:102BC00010F4282F94E020931B0590931C0581E0BE
:102BD000211101C080E08093260890932408109270
:102BE000210580913E0600912608F090240880136C
:102BF00085C190913D069F1181C180913D068F1145
:102C00009BC19091270880912605981395C19BC17F
:102C10008091270681114FC080914D0681114BC0D4
:102C20008091670680FF03C08F5F8093670621E075
:102C300020932806409155075091560760915707F9
:102C400070915807809167068695817060968FAF66
:102C5000609761961FAE61976196EEADFFAD61978B
:102C6000EE0FFF1FEE0FFF1FE75DF94F809131065A
:102C700090913206A0913306B09134061A012B01CF
:102C8000281A390A4A0A5B0AD201C101B695A795EA
:102C90009795879580839183A283B3834093310670
:102CA00050933206609333067093340620933506B2
:102CB00002C09111ADCF809128068111E9CEEDCEF1
:102CC0009923C9F3909127069111F5CF90914D0664
:102CD0009111F1CF00915507109156072091570798
:102CE00030915807909167069695917062969FAFC4
:102CF000629763961FAE63976396EEADFFAD6397E1
:102D0000EE0FFF1FEE0FFF1FE75DF94F40913106F9
:102D100050913206609133067091340628013901D2
:102D2000441A550A660A770AB301A2017695679597
:102D3000579547954083518362837383009331068F
:102D400010933206209333063093340691E090932B
:102D5000350690910501913011F4909328068695DF
:102D6000981720F081E080930501A5CF9F5F909395
:102D70000501A1CFC0900601D0900701E0900801A5
:102D8000F0900901A0910A01B0910B01CD018A5A7E
:102D900091408B3A910528F10091670610E0A70158
:102DA00096010E947E302FEF33E040E050E00E9419
:102DB000543049015A01C701B60122E030E040E039
:102DC00050E00E945430821A930AA40AB50AC8013E
:102DD00095958795082700FF2CC0C80CD91CEA1CC4
:102DE000FB1C8091550790915607A0915707B09111
:102DF00058074091490650914A0660914B067091E0
:102E00004C06841B950BA60BB70BC816D906EA0611
:102E1000FB0608F050CF81E0809328060E945A01FB
:102E20006093490670934A0680934B0690934C0634
:102E300042CFC818D908EA08FB08D3CF1092280659
:102E400091E090934F0780916706209127058217A4
:102E500030F48F5F809367060E94580A1ECE9093CD
:102E600067068091730620911A052150330B821753
:102E700013069CF48F5F809373068091730690E035
:102E8000FC01EE5EFA4F2081209326058357994F6F
:102E9000DC018C9180939706DFCF10927306EDCF03
:102EA00071109DCE10912408A6E7B5E062E775E0A9
:102EB00030E020E08D9190E0FB014191BF0150E0B6
:102EC0002F5F3F4F880F991FFC01E559F84FE40F22
:102ED000F51F875A984F840F951F4081FC01808110
:102EE000841720F41217130639F0122F24303105FD
:102EF00009F71093240873CE10E0F8CF1092610602
:102F00001092620610923C0610923B0691E090935C
:102F100021051092EB06109274061092EC061092A6
:102F200075061092ED06109276061092EE0610923B
:102F30007706801709F461CE81E080930301109237
:102F4000390610923A0671100AC010923F0610928C
:102F50004006109241061092420610924706809059
:102F6000550790905607A0905707B090580780914A
:102F7000550690915606A0915706B0915806140137
:102F80002501281A390A4A0A5B0AD201C10181398E
:102F9000904DA340B10510F010925406EDEBF6E011
:102FA000A9EBB6E041915191619171911401250114
:102FB000241A350A460A570AB201A1014139504D77
:102FC0006340710508F01C92119626E0ED3CF20773
:102FD00049F71F2DF0923D0600933E06772009F435
:102FE00083C70E945F050E942E050E94390A81E076
:102FF0008093F906A0918606B091870690916407A8
:10300000911127C0B0938506A09384061092830681
:103010001092530640914F06509150066091510610
:103020007091520614012501241A350A460A570ADE
:10303000B201A1014039504D6340710510F48093F5
:10304000530680924F0690925006A0925106B0927D
:10305000520680918406909185068A1B9B0B97FFF0
:1030600003C091958195910906973CF08091830664
:10307000811103C081E080938306809183068823B9
:1030800069F080915306882309F4D2C18FEF93E051
:103090008A1B9B0B90930B0180930A018091220560
:1030A00088702A968FAF2A97209003016090DF06E0
:1030B000F0911A05FFAF5090950640902105309091
:1030C00096062091970680917306C82ED12C2396E0
:1030D000DFAECEAE23974F2F4150550B2D965FAFED
:1030E0004EAF2D9710918806C0908906D0908A0621
:1030F000E0908B06F0908C0660911D0570911E0586
:1031000080911F059091200567966CAF7DAF8EAFC3
:103110009FAF679784EA95E025969FAF8EAF25977E
:10312000A0EAB5E02996BFAFAEAF299730E023966D
:10313000EEADFFAD2397E257F94F6996FFAFEEAFC3
:1031400069972596AEADBFAD25978D912596BFAFFA
:10315000AEAF259790E02996AEADBFAD2997ED9122
:103160002996BFAFAEAF2997F0E0880F991FDC0119
:10317000A559B84FAE0FBF1F875A984FE80FF91FD8
:103180008C9190819817C0F42A96BFAD2A97B111FF
:1031900002C0272C232F81E0820FEDE8F6E0319367
:1031A000662031F04FAD423018F0462C582E312CAD
:1031B00056E0E539F50799F7822F90E0FC01E855D4
:1031C000FA4F5081FC01E659FA4F408164E0569F66
:1031D000C00111248D50994F840F911DE1E0DC0155
:1031E000EC9323964EAD5FAD23972D966EAD7FADDC
:1031F0002D97461757070CF048C16996AEADBFAD85
:103200006997BC916A96BFAF6A976A96FFAD6A9755
:10321000F217C9F0F1113FC110930D07B501A401D8
:103220004C195D096E097F0967968CAD9DADAEADF9
:10323000BFAD679784179507A607B70720F491E0FD
:103240001927750164013F5F343009F07ACF10937C
:103250008806209397065092950640922105309259
:10326000960620920301C0928906D0928A06E092C7
:103270008B06F0928C066A96AFAD6A97A093020116
:10328000E6E7F5E02396FFAFEEAF239722E735E0C0
:1032900021963FAF2EAF21975EE6452E55E0552E85
:1032A0006AE6662E65E0762E602F70E0FB01E7523D
:1032B000F94FAAE72A2EA5E03A2E2396AEADBFAD70
:1032C00023978D912396BFAFAEAF239790E02196C1
:1032D000AEADBFAD21972D912196BFAFAEAF219777
:1032E00030E0880F991FAC014559584F420F531FCA
:1032F000875A984F820F931FDA012C91DC018C9131
:10330000821720F48081B1E08B278083D2018D91D8
:103310002D01D3012D913D01B4E08B9FC0011124FB
:103320008D50994F820F911D2081DC012C93329694
:1033300023962EAD3FAD23972216330609F0BDCF5D
:103340009091790780916707DB01A752B94F8917E0
:1033500068F418968C911897E1E08E2718968C9354
:103360001897E027F0E0E752F94F808718968C9184
:10337000882319F081E080930A078091630729ACC4
:103380008215E8F480914D0691E0892780934D06DF
:10339000909305018091670680FF07C090912705F3
:1033A000891718F48F5F809367060E945A01609313
:1033B000490670934A0680934B0690934C06809181
:1033C0004D06882319F081E08093F6068091650709
:1033D0003DAC831530F480914E0691E089278093AF
:1033E0004E0600914E06002329F081E08093FE06F0
:1033F0008093020780915306882309F4AAC00E9493
:10340000EB0580910A0190910B018A3A21E0920725
:103410000CF066C0803891050CF056C081E08093B6
:10342000120781E08093F60681E08093FA0654C08B
:1034300080914E0624E0829FC0011124FC01E658D1
:10344000FA4FC080D180E280F3808E579A4FFC0102
:1034500020813181428153812C193D094E095F0938
:103460000E947E302FEF33E040E050E00E94543065
:10347000C20ED31EE41EF51EC0920601D0920701B3
:10348000E0920801F092090109CEE0918D066A965A
:10349000EFAF6A97BACE6A964FAD6A97413019F48A
:1034A00010930807BBCE6A965FAD6A97523019F445
:1034B00010930007B3CE6A966FAD6A97633009F038
:1034C000ADCE1093FC06AACE8F3F91050CF4A9CF88
:1034D0008E3791400CF4A8CF81E08093FE0618C08F
:1034E000853542E09407A4F021E0209302078B3752
:1034F00052E095076CF0209306078A3F62E096073A
:103500003CF020930A078937934014F020930E076C
:103510001093F906B501A4014C195D096E097F09E4
:1035200080911D0590911E05A0911F05B091200569
:1035300084179507A607B70760F481E01827109352
:1035400088068092890690928A06A0928B06B09295
:103550008C069091710780915F078917A8F580917B
:103560000401883009F034C181E080930401109295
:10357000670610927306809112058093260580914C
:103580008D068093970681E0809348068092890695
:1035900090928A06A0928B06B0928C068092780652
:1035A00090927906A0927A06B0927B068093880664
:1035B0000E947D0480910401823009F416C108F054
:1035C00009C1813009F40DC190916D0780915B07AD
:1035D0008917E0F580912705803809F00AC180E25B
:1035E0008093270510912705812F82958F708093F6
:1035F0002808109267061092730680911205809336
:10360000260580918D068093970681E08093480679
:103610008092890690928A06A0928B06B0928C06C0
:103620008092780690927906A0927A06B0927B06F4
:10363000809388060E947D04103409F4DCC01038A1
:1036400009F4DDC080EC103209F4D6C08091470641
:10365000882309F470C00E94EB058091890690913F
:103660008A06A0918B06B0918C06B501A401481B77
:10367000590B6A0B7B0B80911D0590911E05A09143
:103680001F05B0912005B695A79597958795841746
:103690009507A607B70770F48091880691E08927FF
:1036A000809388068092890690928A06A0928B0663
:1036B000B0928C068091780690917906A0917A0656
:1036C000B0917B0614012501281A390A4A0A5B0ABF
:1036D000D201C10181349244AF40B10510F0109283
:1036E0004706F09088064091470650E0A8E9B5E00B
:1036F00090E9C92E95E0D92E27E030E070E0F11076
:1037000009C0CA01022E02C0959587950A94E2F776
:10371000782F71708D91F60111916F01F4E08F9FF8
:10372000C00111248D50994F810F911DFC017083B0
:103730002150310918F790916F0780915D07891723
:1037400008F079C08092430690924406A092450604
:10375000B09246061092830680913F0690914006F3
:10376000A0914106B09142060097A105B10509F468
:1037700053C0B501A401481B590B6A0B7B0B82E0B7
:1037800076956795579547958A95D1F740930601A9
:1037900050930701609308017093090114E0019FA1
:1037A000F0011124DF01AE57BA4F8D919D910D901C
:1037B000BC91A02D84179507A607B70710F5809335
:1037C000060190930701A0930801B093090124C05A
:1037D000880FCBCE843059F0883009F0F5CE80E8E0
:1037E00001C08FEF80934706EFCE8AEAFBCF88E8CF
:1037F000F9CF880FF5CE80EF8093470627CF8FEF64
:10380000FBCFE658FA4F80819181A281B38148179E
:1038100059076A077B0798F280E10E94480190935C
:1038200085068093840680923F0690924006A0927F
:103830004106B092420690916B0780915907891713
:1038400030F429AC222009F44CC30E944910809125
:103850008106609128080E94B730809311059091ED
:103860004706911144C090E0E0918806DC01A8561B
:10387000BA4F2C9180579A4FDC013C91B4E02B9FBA
:10388000C00111248D50994F830F911DDC01EC93E1
:103890008091550790915607A0915707B09158070E
:1038A0004091890650918A0660918B0670918C0632
:1038B0008C019D01041B150B260B370B40911D0538
:1038C00050911E0560911F0570912005401751070A
:1038D0006207730760F421E0E227E0938806809393
:1038E000890690938A06A0938B06B0938C069091DC
:1038F000770780916507981740F480912508809399
:103900002608809123088093240880917B07809368
:10391000F406C0905507D0905607E0905707F090F6
:1039200058072090990630909A0640909B06509038
:103930009C0680909D0690909E06A0909F06B09059
:10394000A00680911D0590911E05A0911F05B091C4
:1039500020058C019D01369527951795079527968B
:103960000CAF1DAF2EAF3FAF279710919806609018
:1039700023056DAE21EB36E03AAF29AF49EA56E0B8
:1039800021965FAF4EAF219761EA76E0712C612CF2
:1039900001E0A9ADBAAD9D91BAAFA9AF2196EEAD48
:1039A000FFAD219781912196FFAFEEAF2197981738
:1039B00038F4DB010C93460157011601270111E091
:1039C000E9ADFAAD319780832196EEADFFAD219739
:1039D00031971082FB018081882309F478C0D701D8
:1039E000C60188199909AA09BB0927962CAD3DADD6
:1039F0004EAD5FAD2797281739074A075B0718F4C4
:103A0000102746015701D701C60182199309A4095D
:103A1000B50986319641A540B10510F0DB011C9235
:103A2000412F4027B4E06B16710414F00C94232F3F
:103A3000F301EC54FA4F8081F301E055FA4F2081F5
:103A4000E4E08E9FC00111248D50994F820F911D8B
:103A5000DC014C931DAEE4EBF5E02996FFAFEEAF31
:103A6000299720EB35E023963FAF2EAF2397A1EAAD
:103A7000B6E02996EEADFFAD299781912996FFAF6B
:103A8000EEAF29972396EEADFFAD239721912396B4
:103A9000FFAFEEAF239730E0F4E08F9FC001112419
:103AA000AC014D50594F420F531FFA014081411153
:103AB0004C918D50994F820F931FFC0140831196BA
:103AC00029962EAD3FAD2997285B354091F65FEFE3
:103AD000651A750A6F5F7F4F88E06816710409F0F8
:103AE00058CF6DAC609223051093980620929906EA
:103AF00030929A0640929B0650929C0680929D06B8
:103B000090929E06A0929F06B092A0069091750793
:103B100080916307891720F480917607882331F01C
:103B200090917C0780916A07891710F40E947D04A8
:103B30000E945A014B015C018C189D08AE08BF0819
:103B400067968CAE9DAEAEAEBFAE679780925107C2
:103B500090925207A0925307B09254076093550772
:103B6000709356078093570790935807EDECF6E053
:103B700050E040E0FF24F3942081222311F40C94C0
:103B80003A2F10824F5F5F4F319644305105A1F7B5
:103B9000C0902405D0902505F12CE12CE3E2F7E05C
:103BA000FAAFE9AF03E117E030E020E07724739447
:103BB000A9ADBAAD4D91BAAFA9AF442331F1D80147
:103BC0002D903D904D905C904B015C0182189308C4
:103BD000A408B508C814D904EA04FB04B0F4F90138
:103BE000E454FA4F4081F901E854FA4FE081A4E02F
:103BF0004A9FA00111244D50594FE40FF52FF11D9C
:103C00001082E9ADFAAD319710822DAC2220F1F18E
:103C1000F901EC54FA4F4081F901E055FA4FE08187
:103C2000F0E0A4E04A9FA0011124DA01AD50B94FA1
:103C3000AE0FBF1F5C90D901A151B94F6C90A0E0AD
:103C4000611005C0D901A551B94FAC91A7255A12F1
:103C50001DC0D8012D903D904D905C904B015C01B2
:103C600082189308A408B508A1E58A16A3EC9A0661
:103C7000A104B10458F0611004C0D901A551B94F95
:103C80006C904D50594FE40FF51F60822F5F3F4FEE
:103C90000C5F1F4F2430310509F08ACF0091E706F1
:103CA0001091E8062091E9063091EA061B012C01EB
:103CB000201A310A420A530A92018101C016D10624
:103CC000E206F30610F410920307013117422105B2
:103CD000310510F0109205074091D9060091E306D6
:103CE0001091E4062091E5063091E6061B012C01B7
:103CF000201A310A420A530A92018101C016D106E4
:103D0000E206F30658F4411104C02091D80622239C
:103D100019F02091220520FD1092FB060091D40697
:103D20001091D5062091D6063091D7062B013C0183
:103D3000401A510A620A730A93018201C016D10621
:103D4000E206F30638F441110C94732F1092070722
:103D50001092D8064423D1F040912105411114C09E
:103D60004091D306411112C04091710741110EC01C
:103D700040916D0741110AC040916F07411106C083
:103D800040916B07411102C0109207074091D20683
:103D9000442349F00135134C2105310520F01092E0
:103DA000F9061092D2062091D106222351F06135F6
:103DB00053EC75078105910520F01092F9061092D9
:103DC000D106209150072223A9F0009127071091D6
:103DD00028072091290730912A07601B710B820B5D
:103DE000930B603D77408105910520F00E942104EE
:103DF000109250079FE3C92E97E0D92E10E000E003
:103E0000F60140805180628073800F5F1F4F411424
:103E1000510461047104C1F19801265C384F7901A5
:103E2000D9013C90332081F167968CAC9DACAEAC4F
:103E3000BFAC679784149504A604B70410F40C94DF
:103E4000852F60E0C8010E948C023A94D7013C9211
:103E5000332011F40C947D2FF801EE0FFF1FEE0FAD
:103E6000FF1FE95DF84F80819181A281B38188199C
:103E70009909AA09BB09840D951DA61DB71DF60158
:103E800080839183A283B383B4E0CB0ED11C043032
:103E9000110509F0B5CF10924F07EBE6F7E0A9E561
:103EA000B7E080818C93818111968C931197329623
:103EB000129607E0ED37F007A1F780912605809371
:103EC000270880E090E0892B11F40C94F7140E94ED
:103ED000E901882311F40C94F7140E9400000C945B
:103EE000F7140E94D10EB3CC809179078823F1F1A9
:103EF000109223050E94AA0480916707811127C0B0
:103F00008092550690925606A0925706B092580697
:103F1000809154068823C1F08091EF068823E1F058
:103F20008091F0068823C1F08091F1068823A1F0EA
:103F30008091F206882381F01092EF061092F0062D
:103F40001092F1061092F20681E0809354060E94CE
:103F5000390A0E946605CBCC81E08093EF068093FE
:103F6000F0068093F1068093F206EECF002311F461
:103F70000C94D2280E943505EE24E394E0922305A8
:103F80001092F906B2E0FB1609F474C2BF1508F4EA
:103F9000DAC0FF2009F4F1C1FE10A9CC0E94390A51
:103FA0000E946605DE011196CE014196FD01119237
:103FB0008E179F07E1F7209126052150330B220F22
:103FC000331F220F331F8091970661E070E001C01C
:103FD000660F8A95EAF7962E90948091DA068823E8
:103FE00009F411C2809171078093EB0680916D07EF
:103FF0008093EC0680916F078093ED0680916B07AC
:104000008093EE0680914F078823A9F1809167067F
:1040100080FF31C0FCEAEF2EF5E0FF2E08EB15E043
:1040200040918106E0E14E9FA0011124420F531FF1
:10403000D12CC12CF70181917F01F80171918F0181
:1040400090E0880F991F8559984F870F911DFC01AB
:104050008081882349F0C601840F951F8F5E9E4F93
:10406000FC01708179217083FFEFCF1ADF0A64E0D1
:10407000C616D104F9F64DEC56E090E080E071E010
:10408000FA016191AF01662351F0FC01E20FF31FC9
:10409000EA0FFB1F7083FC01E755F94F708301960F
:1040A0008430910569F704EA15E020EAE22E25E064
:1040B000F22E9D0150E040E081E0F80191918F01E6
:1040C000692F70E0F701C1907F01D12C3B01660C94
:1040D000771CB3016559784F5B01AC0CBD1CF50131
:1040E0009081992389F0F301E75AF84FEC0DFD1DFB
:1040F0009081911109C0F901808381838283838338
:10410000FA01E755F94F84834F5F5F4F2C5F3F4FB4
:104110004430510591F680E190E041E251E02D916B
:10412000222371F0FA01E81BF90B30E020E07081E6
:10413000792170832F5F3F4F709620343105B9F796
:10414000019769F7D4CB133009F456C5143009F040
:10415000CECB0E94EB057091970624967FAF2497F3
:1041600080912105882391F0E0928806E0921A055B
:104170008092890690928A06A0928B06B0928C0655
:10418000109273061092720670930C019091720651
:1041900080911A0540918806992309F4C8C7282FF1
:1041A00030E0F901E856FA4F508120573A4FD901D3
:1041B0006C91B4E05B9F900111242D50394F260F74
:1041C000311DF9014083A091E00650910C0124EAD1
:1041D00035E03AAF29AF60EA75E07EAF6DAF28EA0F
:1041E000222E25E0322E3AE6432E35E0532E6CEA9D
:1041F000662E65E0762E78EBC72E75E0D72EF12C73
:10420000E12CE9ADFAAD2191FAAFE9AF30E0EDADC7
:10421000FEAD6191FEAFEDAF70E0220F331FF901EB
:10422000E559F84FE60FF71FB081BFAF275A384F57
:10423000620F731FFB01B081F10121911F01F20197
:1042400061912F0170E0F4E02F9F90011124A111E2
:1042500071C72D50394F620F731FFB014083FFADB3
:10426000BF17B0F0F301208130E0F601608170E00B
:10427000220F331FF901E559F84FE60FF71F275AB0
:10428000384F260F371F6081F90120812617B8F4B7
:1042900091118F5F682F6150770B9B01FB01EE5EE0
:1042A000FA4F91E09E0D90832357394F24966FADBE
:1042B0002497F9016083902F883009F410E0FFEF14
:1042C000EF1AFF0A2FEF621A720A3FEFC31AD30ADE
:1042D00064E0E616F10409F094CF80931A059093F8
:1042E000720650930C0110932408009189061091D6
:1042F0008A0620918B0630918C0675016401C01AE4
:10430000D10AE20AF30A00911D0510911E052091C1
:104310001F05309120050C151D052E053F0560F485
:1043200021E04227409388068092890690928A066F
:10433000A0928B06B0928C06482F50E030E020E02F
:1043400081E0241735079CF4992389F0F901E85698
:10435000FA4FE081D901A057BA4F6C9174E0E79F02
:10436000F0011124ED50F94FE60FF11D80832F5F0E
:104370003F4F2830310529F7BACA0E94F804E9E511
:10438000F6E030E020E061E0719171111BC0D901CD
:10439000A455BA4F8C9190E0D901A854BA4F4C91D2
:1043A00050E0880F991FDC01A559B84FA40FB51F25
:1043B0007C91772339F0875A984F840F951FDC0141
:1043C0007C917627DF0111977C932F5F3F4F24303C
:1043D0003105D1F68091E206882381F08091710742
:1043E0008093EB0680916D078093EC0680916F07B8
:1043F0008093ED0680916B078093EE060E94390A48
:104400000E943104A6CD0CEA15E078EBE72E75E0AA
:10441000F72E90E080E088248394F80141918F0189
:10442000642F70E0F70141917F0150E05B01AA0C1D
:10443000BB1CB5016559784F6B01C40ED51EF60142
:10444000D080DD2091F0F501E75AF84FE40FF51F19
:10445000408141110AC0F901E80FF91FEA0FFB1F63
:104460008082FC01E755F94F8082019684309105E6
:10447000A1F619CE0E9466050E94EB05E092F906AE
:10448000809121052091860630918706811104C014
:1044900080916407882331F0309385062093840649
:1044A000109283068091840690918506821B930B5F
:1044B00097FF03C091958195910906973CF08091F3
:1044C0008306811103C081E0809383068091830677
:1044D000882309F474C18FEF93E0821B930B8A3A0F
:1044E000F1E09F07F4F48038910574F481E0809343
:1044F000120744244A9481E08093F6064A9481E0AE
:104500008093FA064A9407C0412C8F3F91059CF393
:104510008E379140A4F381E08093FE069FEF940DC7
:104520001DC0853512E091070CF449C121E02093AC
:1045300002078B3732E093070CF443C12093060740
:104540008A3F42E094070CF43EC120930A07893762
:1045500093400CF43AC120930E0794E080916206D8
:10456000811135C181E0809361061092600610923E
:104570005F0610925E0630916106332309F490C005
:10458000809126058150990B880F991F880F991FDC
:10459000C0905F06D09060064091620610915D0663
:1045A00000915E06FCEAEF2EF5E0FF2EA8EB4A2E06
:1045B000A5E05A2EB4EA2B2EB5E03B2E20EA622E5F
:1045C00025E0722EA9EAB6E0532F21E0FC01E95A5A
:1045D000F640FAAFE9AFF70181917F0190E0F20177
:1045E00061912F01E62FF0E0880F991FBC016559FA
:1045F000784F6E0F7F1F875A984FE80FF91FFEAF55
:10460000EDAFFB018081EDADFEAD9081981798F480
:1046100089AD9AAD8A0F9B1F41E050E002C0440F64
:10462000551F8A95E2F7CA01C42AD92A51E05C9342
:10463000122F432F50E0F10181911F0190E0F3010F
:1046400061913F01E62FF0E0880F991FBC01655989
:10465000784F6E0F7F1F875A984FE80FF91FFEAFF4
:10466000EDAFFB018081EDADFEAD9081981738F480
:10467000F1E01496FC931497022F432F50E02F5F24
:104680001196253009F0A7CF50936106409362063A
:1046900000935E06D0926006C0925F0610935D069E
:1046A0008091DC06882309F444C080916206882347
:1046B00009F43FC020915D062223A9F02150330B5D
:1046C000F901E455FA4F808190E028543A4FD9011E
:1046D0002C91880F991F8559984F820F911DFC01CD
:1046E00080818823C9F020915E06222311F1215098
:1046F000330BF901EC55FA4F808190E020563A4F88
:10470000D9012C91880F991F8559984F820F911DBF
:10471000FC01808181110DC081E0809361061092BF
:10472000620610925D0610925E061092600610926C
:104730005F0680918106609128080E94B7308093BF
:10474000110590E030918806FC01E856FA4F20816F
:1047500080579A4FDC014C91B4E02B9FC00111248B
:104760008D50994F840F911DFC01308380918906F3
:1047700090918A06A0918B06B0918C06B501A40198
:10478000481B590B6A0B7B0B80911D0590911E05F0
:10479000A0911F05B091200584179507A607B707BC
:1047A00008F0A5C881E08327809388068092890657
:1047B00090928A06A0928B06B0928C0698C890E0E0
:1047C000CDCE91E0CBCE92E0C9CE93E0C7CE809122
:1047D0005E06C09026056C2D6150770B6B01CC0CEA
:1047E000DD1CCC0CDD1C209027052694312C20915B
:1047F0009706FF24F39401C0FF0C2A95EAF788235B
:1048000009F4DCC090E09C0121503109D901AA0FC4
:10481000BB1FAA0FBB1FBEAFADAFECEAF5E02596FC
:10482000FFAFEEAF259708EB15E023961FAF0EAF55
:10483000239724EA35E021963FAF2EAF219740EA37
:1048400055E05AAF49AF69EA76E02B967FAF6EAF7D
:104850002B973D0130E020E0EE24E394DC01A455E9
:10486000B94F2996BFAFAEAF29972596EEADFFADF4
:10487000259781912596FFAFEEAF259790E023967F
:10488000AEADBFAD23974D912396BFAFAEAF23978B
:1048900050E0880F991FDC01A559B84FA40FB51F30
:1048A000875A984F840F951F4C91FC018081841783
:1048B00008F5D601AF5EBE4F90E080E0821593050B
:1048C0007CF46C91AD014C195D09460D571DFA0140
:1048D000408146274F2164276C9301965096EECF76
:1048E0002B96AEADBFAD2B97EC922996EEADFFADFA
:1048F0002997E0822196AEADBFAD21978D9121968B
:10490000BFAFAEAF219790E0E9ADFAAD4191FAAFFC
:10491000E9AF50E0880F991FDC01A559B84FA40FEB
:10492000B51F875A984F840F951F4C91DC018C91CD
:10493000841768F5C9018F5E9E4F50E040E0421534
:104940005305D4F4DC0170E060E05C908D01021B43
:10495000130BEDADFEAD0E0F1F1FF80110811525D5
:104960001F2151265D926F5F7F4F6430710569F79B
:104970004F5F5F4F4096E3CF2B96AEADBFAD2B9709
:104980001496EC922996EEADFFAD2997E0822B9616
:104990000EAD1FAD2B970F5F1F4F2B961FAF0EAFA6
:1049A0002B972C5F3F4F1FEFC11AD10A4FEF641AAC
:1049B000740A2031310509F058CFDDCD60915F06D2
:1049C000709160067EAF6DAF20915D062150330B74
:1049D000ACEAB5E0BAAFA9AFE8EBF5E02596FFAFDA
:1049E000EEAF259704EA15E021961FAF0EAF219791
:1049F00040EA55E023965FAF4EAF239779EA672EE2
:104A000076E0772E492E990F5508B101640D751D7A
:104A10002B967FAF6EAF2B97C201821993092D960B
:104A20009FAF8EAF2D9711E0D901A755B94F2996A9
:104A3000BFAFAEAF2997E9ADFAAD8191FAAFE9AF5B
:104A400090E02596AEADBFAD25974D912596BFAFB1
:104A5000AEAF259750E0880F991FFC01E559F84F3C
:104A6000E40FF51F875A984F840F951F4081FC0172
:104A70008081841708F05AC070E060E081E090E027
:104A8000062E02C0880F991F0A94E2F74DAD5EAD65
:104A900084239523892BE9F1D601AF5EBE4F50E008
:104AA00040E042155305ACF5FA01E40DF51DE215A1
:104AB000F30544F12D96EEADFFAD2D97E40FF51FF4
:104AC0000C9184E0EE0FFF1F8A95E1F7EF5EFE4F39
:104AD000CF018C0D9D1D65969FAF8EAF6597CD0163
:104AE0008C199D09860F971FFC01808180278F21DB
:104AF00008276596EEADFFAD659700834F5F5F4F6A
:104B00005096CFCFF7FFDCCF2B96EEADFFAD2B97B6
:104B1000D5CF6F5F7F4F6031710509F0AFCFD30103
:104B20001C932996EEADFFAD299710832196AEAD6B
:104B3000BFAD21978D912196BFAFAEAF219790E089
:104B40002396EEADFFAD239741912396FFAFEEAFD5
:104B5000239750E0880F991FFC01E559F84FE40FA7
:104B6000F51F875A984F840F951F4081DC018C9167
:104B7000841798F590E080E041E050E0082E02C0F4
:104B8000440F551F0A94E2F7EDADFEAD4E235F23AF
:104B9000452BB9F0F901EF5EFE4F50E040E04215C1
:104BA00053057CF46081DF01A21BB30BA80FB91F72
:104BB0007C9176277F21672760834F5F5F4F7096D8
:104BC000EECF019680319105B9F6D30114961C936E
:104BD0002996EEADFFAD29971083FFEF6F1A7F0A7C
:104BE0002C5F3F4F0FEFC01AD00A49AD5AAD405B62
:104BF000554009F020CFBFCC88E2ECE2F5E0DE01C1
:104C0000119601900D928A95E1F70E9431040E945D
:104C100066050E94390A8091D106811102C0E09296
:104C2000F9060E945F03109171061093700620919F
:104C300086063091870621503109A9EFBFEF0E9407
:104C4000C3302FEF33E040E050E00E945430690160
:104C50007A01F6E0CF0ED11CE11CF11CEC2DC092C4
:104C6000710680918106609128080E94B730809378
:104C70001105E53008F0D3C0E8E6F6E008E0C09E94
:104C80009001112490E080E0DC01A20FB31F41E00D
:104C900050E04C0F5D1FA40FB51F4C91419301963E
:104CA0008830910589F7E8E9F5E020E935E008E684
:104CB00016E040EA55E08191D9017D919D01D8012E
:104CC0006D918D01B4E08B9FC00111248D50994FDF
:104CD000870F911DDC016C934E175F0761F7809180
:104CE000110590E0E0918806DC01A856BA4F2C919E
:104CF00080579A4FDC013C91B4E02B9FC0011124F6
:104D00008D50994F830F911DDC01EC9380915507D5
:104D100090915607A0915707B09158074091890686
:104D200050918A0660918B0670918C068C019D01D2
:104D3000041B150B260B370B40911D0550911E05CA
:104D400060911F0570912005401751076207730796
:104D500060F421E0E227E09388068093890690932F
:104D60008A06A0938B06B0938C06809174065091AE
:104D70007506409176069091770680902705869477
:104D8000912C2091260530E0B90161507109660F20
:104D9000771F660F771FE09197062E2E44244394C9
:104DA000512C01C0440CEA95EAF7742C7094F090F1
:104DB0007106BDECCB2EB6E0DB2E1AAE19AEFB01B0
:104DC000EF5EFE4F5F01D601ED916D01EE2309F418
:104DD00004C1A9ADBAADAA0DBB1D10E000E090E082
:104DE00080E0081519050CF0F4C0EC90E720AC0148
:104DF0004859594FFA014081022C01C0440F0A94CE
:104E0000EAF74E294C93F2E0FF12DCC082309105A4
:104E10000CF0DCC001960F5F1F4F5096E2CF1C11C3
:104E20003DC08091710790914F07992391F0909127
:104E300067069F7071F481110CC090916D079111FC
:104E400008C090916F07911104C090916B0799234E
:104E500029F190915F07891798F020916D07909143
:104E60005B07291768F020916F0790915D0729175C
:104E700038F020916B0790915907291708F07FC0EF
:104E800081117DC080916D07811179C080916F077C
:104E9000811175C080916B07811171C081E0809391
:104EA00068061092690610926A0610926B061092BC
:104EB0006C0610926D0610926E0610926F060E949C
:104EC000E62F26E030E040E050E00E945430AB0195
:104ED000BC014E5F5F4F6F4F7F4F409366062CE0E3
:104EE000E4E5F5E0DE01999601900D922A95E1F74F
:104EF000FE01B996A0E010E000E0642F70E0CF0161
:104F000002964081518146175707A9F401151105F2
:104F100009F048C04DA55EA55AA749A74FA558A9B5
:104F20005CA74BA749A95AA95EA74DA74BA95CA9A5
:104F300058AB4FA7A2E00F5F1F4FFC0106301105D1
:104F4000F1F60A1B110960E070E0CB0110161106A2
:104F500044F40E94E62F9801110F440B550B0E9458
:104F60005430660F771F44244394512C4C0E5D1E21
:104F7000640D751DDB0198968C9180936506E09118
:104F80006606F0E0E859F94F81E080839091710660
:104F9000953009F088CEE0916506F0E0E859F94FC8
:104FA000808381CE0530110529F232972FA838ACC5
:104FB000E215F30529F04681578141935193F6CFCD
:104FC000A3E0B9CF873091050CF424CF90E080E0C6
:104FD00022CF90E040E050E080E009AD1AAD0F5FD5
:104FE0001F4F1AAF09AF0430110509F0ECCE8093C2
:104FF0007406509375064093760690937706109248
:10500000EB061092EC061092ED061092EE0681115E
:1050100004C081E0809363067EC04091DE064111AA
:105020000FC0A4E7B6E088E796E051E0ED91EE23EB
:1050300021F0F0E0E651F94F50838A179B07B1F752
:1050400080914F07882311F40C94771C8091670698
:1050500080FD02C00C94771C41111BC08091810619
:10506000A4E7B6E048E756E010E1819FC0011124B3
:105070008F5E9E4FED91EE2349F0E150FF0BE60F5E
:10508000F71FE80FF91F1081172110834A175B07DC
:1050900089F710916406E12FF0E0E959F94F80811A
:1050A000882399F180916306E82FF0E0ED58F94FDD
:1050B0009081992311F0853018F081E08093630688
:1050C0004091810600916306E02FF0E0ED58F94F22
:1050D000808190E021503109220F331F220F331FAE
:1050E000FC0131972E0F3F1F50E1459FF001112425
:1050F000EF5EFE4FE20FF31F2081422A408261E003
:105100000E948C020F5F009363061F5F109364067A
:10511000193028F081E0809364060C94771C62E0DB
:10512000F6120C94771C1430A8F70C94771C40935B
:10513000120749C8EFADBE1708F45E2D2D50394F48
:10514000260F371F61E05E151F0409F060E0F901CA
:105150006083F301208130E0F601608170E0220F6E
:10516000331FF901E559F84FE60FF71F275A384F5B
:10517000260F371F6081F9012081261708F09FC88C
:1051800091118F5F682F6150770B9B01FB01EE5EE1
:10519000FA4F91E09E0D90832357394FF9015083C8
:1051A0009A2F8AC80E94350511E0109323051092AA
:1051B000F90682E0F81609F4B1C28F1508F429C186
:1051C000FF2009F421C2F1120C94771C0E943104D3
:1051D0000E94660580912105209186063091870600
:1051E000882309F4A2C61092D30682E080930D01B1
:1051F000309385062093840610928306809184065E
:1052000090918506821B930B97FF03C09195819522
:10521000910906973CF080918306811103C081E0DB
:1052200080938306809183068823A1F0ABEFBFEFC4
:105230000E94C3302FEF33E040E050E00E94543032
:105240002B5F3F4F4F4F5F4F26573A4FF9018081F9
:1052500080930D011091D306112309F44DC291E002
:10526000909307079093D206809188068093090750
:105270004091890650918A0660918B0670918C0648
:1052800095018401041B150B260B370B40911D055E
:1052900050911E0560911F05709120054017510720
:1052A0006207730758F489278093880680928906DD
:1052B00090928A06A0928B06B0928C061092750688
:1052C00010927606109277063CEA232E35E0332EB4
:1052D00048EB442E45E0542E0DEC16E0FF24F394E9
:1052E000EE24E394D1018D911D0190E0D201ED9166
:1052F0002D01F0E0880F991FDC01A559B84FAE0FC2
:10530000BF1F875A984FE80FF91F9C91808189171A
:1053100010F4F092D3064091D30640937406F8013E
:1053200081918F01882309F4A2C131971082B09036
:105330000D01CB2CD12CA090270580912605815002
:10534000990BBC01660F771F660F771F9091970628
:10535000892E8A2D8695869586954150550B849F7A
:105360009001859F300D112484E0220F331F8A9510
:10537000E1F7260F371F2F5E3E4FAE014F5F5F4FA5
:105380003A01A301ADA9BEA94A1B5B0B4C155D05F3
:105390000CF440C1A6942A2D30E0E1E0F0E002C018
:1053A000EE0FFF1F9A95E2F7AE2EA094CB018F5E11
:1053B0009E4FF0E0E0E0712CE217F3070CF04BC1D8
:1053C000A1E0B0E0AC0FBD1FA70DB11DCC90D12C5A
:1053D000DC0170E060E0A601062E02C055954795FD
:1053E0000A94E2F741705527082C01C0440F0A9433
:1053F000EAF75C915A21452B4D936F5F7F4F6430E4
:10540000710549F773947B1408F0712C319640961E
:10541000D3CF93E0F91609F485C1A4E0FA120C94F5
:10542000771C0E94AA041093F9060E945F050E944F
:10543000EB0580912105209186063091870688230F
:10544000D9F18091DF06882309F441C380911A05C0
:10545000823008F43CC38091970691E0980F9093B6
:1054600095061092960680938D0680938E06809303
:105470008F06809390068093910680939206809386
:105480009306809394068092890690928A06A09251
:105490008B06B0928C0681E0809388063093850657
:1054A000209384061092830680912705813208F4A8
:1054B0001AC380E280938206D090760780916407B9
:1054C000D81630F410928306309385062093840614
:1054D0000091950610E03090960664EA75E0B0EA17
:1054E000EB2EB5E0FB2E50E040E0DB018D91BD01DD
:1054F00090E0D701ED917D01F0E04F5F5F4F880FA5
:10550000991FDC01A559B84FAE0FBF1F875A984F9E
:10551000E80FF91F8C919081981720F40417150754
:1055200009F0342E4430510501F7309296068091EF
:10553000840690918506821B930B97FF03C091957B
:105540008195910906973CF080918306811103C0F3
:1055500081E08093830680918306909127059132A4
:1055600008F4C3C2882389F0D1100FC0215031093B
:10557000AFEDBFEF0E94C3302FEF33E040E050E0CB
:105580000E9454302195209382069091820620E259
:1055900030E0F901E91BF109CF0121E01E161F06D9
:1055A0000CF020E02093120721E0853091050CF4E7
:1055B00020E02093F60621E0893091050CF420E0EC
:1055C0002093FA0621E08D3091050CF420E0209321
:1055D000FE0621E0813191050CF420E020930207C2
:1055E00021E0853191050CF420E02093060721E0AD
:1055F000893191050CF420E020930A0721E04D97B2
:105600000CF0C3C220E0C1C20E94F8048091E10600
:105610000C94EC2180E0F0E0E0E0A9014E0F5F1F68
:10562000DA014C9150E0082C02C0559547950A9438
:10563000E2F7417055270E2E01C0440F0A94EAF795
:10564000842B3196E430F10541F7F30181933F015A
:10565000205F3F4F96CE109224081092D3060E94EE
:105660007D04E0912605F0E0E755F94FE382F394DD
:10567000F5E0FF1237CE809171079091D20691111B
:105680000EC081110FC090916D0791110BC09091C8
:105690006F07911107C090916B07911103C091E0C2
:1056A0009093F9069091D906992389F081110CC045
:1056B00090916D07911108C090916F07911104C0EE
:1056C00090916B07992329F091E09093070781113E
:1056D0000FC080916D0781110BC080916F07811100
:1056E00007C080916B07811103C081E08093F906A8
:1056F0000E94390A0C94771C0E945F03EDECF6E0DF
:1057000081E09191992321F0DF0111971C92182FCC
:105710008F5F8530B1F71093D306ADCF0E94F605A9
:105720000C94771C0E9431040E9466051092230598
:105730000E94EB051093F9068091210520918606C1
:1057400030918706811104C080916407882331F06D
:1057500030938506209384061092830680918406F8
:1057600090918506821B930B97FF03C091958195BD
:10577000910906973CF080918306811103C081E076
:105780008093830680918306882341F08FEF93E016
:10579000821B930B9093100180930F0180910F0156
:1057A000909110018A3A01E09007BCF4803891058D
:1057B00054F481E08093120781E08093F60681E043
:1057C0008093FA0606C08F3F9105B4F38E3791405F
:1057D000B4F381E08093FE0618C0853522E092077D
:1057E000A4F021E0209302078B3732E093076CF09E
:1057F000209306078A3F42E094073CF020930A0773
:105800008937934014F020930E07809181066091B0
:1058100028080E94B7308093110590E030918806E7
:10582000FC01E856FA4F208180579A4FDC014C91D9
:10583000B4E02B9FC00111248D50994F840F911D0E
:10584000FC01308320901D0530901E0540901F05FF
:105850005090200529AE3AAE4BAE5CAE80918906E1
:1058600090918A06A0918B06B0918C062401350197
:10587000481A590A6A0A7B0AD301C201C9ACDAACD8
:10588000EBACFCACC816D906EA06FB0660F481E076
:105890008327809388068092890690928A06A09238
:1058A0008B06B0928C065CEA452E55E0552E68EBCF
:1058B000C62E65E0D62E74EBE72E75E0F72E00EBD2
:1058C00015E0EDE7F6E0A0EB6A2EA5E07A2E61E0A8
:1058D000D2018D912D0190E0D6012D916D0130E026
:1058E000880F991FAC014559584F420F531F875AD3
:1058F000984F820F931FDA012C91DC018C91821753
:1059000018F4808186278083D7018D917D01D8018D
:105910002D918D01B4E08B9FC00111248D50994FC2
:10592000820F911D2191DC012C936414750481F682
:1059300010910E0140917C064090890650908A0695
:1059400060908B0670908C06C0907806D090790697
:10595000E0907A06F0907B0600918806EDECF6E088
:1059600030E020E0A3E0B0E06191662301F1722F06
:10597000812F90E0022E02C0959587950A94E2F758
:105980008F5F837009F481E0AD01072E01C0440FE1
:105990000A94EAF7942F9095192301C0880F7A95FD
:1059A000EAF7182B7501640124013501062F2E5FDB
:1059B0003F4F28303105C1F6009388064092890692
:1059C00050928A0660928B0670928C0640937C06F9
:1059D00010930E01C0927806D0927906E0927A0672
:1059E000F0927B06442311F40C94771C0E94EB0583
:1059F000B501A401441955096609770989AD9AAD25
:105A0000ABADBCADB695A7959795879584179507CF
:105A1000A607B70760F481E0082700938806809204
:105A2000890690928A06A0928B06B0928C068C18FA
:105A30009D08AE08BF08B1E48B16B2E49B06BFE038
:105A4000AB06B10410F010927C06C12ED12C20912F
:105A50007C061223612E712CF090880668E975E0AF
:105A6000A0E9B5E050E040E0FB018191BF01ED917C
:105A7000F0E001E010E0042E02C0000F111F0A94B4
:105A8000E2F70621172124E0829FC00111248D50E6
:105A9000994FE80FF91F012B81F035E1831636E1AC
:105AA000930635E0A306B10440F4F0824F5F5F4FE8
:105AB00048305105C9F60C94771CC601042E02C06B
:105AC000959587950A94E2F781708083EFCF809156
:105AD0002605809395061092960691E090931A05FC
