:100000000C9462000C948A000C948A000C948A0070
:100010000C948A000C948A000C948A000C948A0038
:100020000C948A000C948A000C948A000C948A0028
:100030000C948A000C948A000C948A000C948A0018
:100040000C9452070C948A000C94C2070C949C07E1
:100050000C948A000C948A000C948A000C948A00F8
:100060000C948A000C948A000000000024002700F1
:100070002A0000000000250028002B0000000000DE
:1000800023002600290004040404040404040202DA
:100090000202020203030303030301020408102007
:1000A0004080010204081020010204081020000012
:1000B0000008000201000003040700000000000027
:1000C0000000F40711241FBECFEFD8E0DEBFCDBF84
:1000D00016E0A0E0B1E0E4EDFEE302C005900D9271
:1000E000A030B107D9F728E0A0E0B6E001C01D922A
:1000F000A739B207E1F710E0C2E6D0E004C02197CB
:10010000FE010E94621FC136D107C9F70E945A083A
:100110000C94681F0C940000833081F028F4813027
:1001200099F08230A9F008958730A9F08830C9F09D
:100130008430B1F4809180008F7D03C08091800075
:100140008F7780938000089584B58F7784BD08955C
:1001500084B58F7DFBCF8091B0008F778093B00006
:1001600008958091B0008F7DF9CFCF93DF93282F32
:1001700030E0F901E255FF4F8491F901E656FF4F57
:10018000D491F901EA57FF4FC491CC23A1F081111A
:100190000E948C00EC2FF0E0EE0FFF1FE458FF4FA1
:1001A000A591B491EC91ED2381E090E009F480E019
:1001B000DF91CF91089580E090E0FACF1F93CF9325
:1001C000DF93282F30E0F901E255FF4F8491F901C8
:1001D000E656FF4FD491F901EA57FF4FC491CC2363
:1001E000A9F0162F81110E948C00EC2FF0E0EE0F89
:1001F000FF1FEE58FF4FA591B4918FB7F894EC9183
:10020000111108C0D095DE23DC938FBFDF91CF9111
:100210001F910895DE2BF8CFCF93DF9390E0FC0180
:10022000E656FF4F24918A579F4FFC018491882303
:10023000C9F090E0880F991FFC01E859FF4FA59184
:10024000B491FC01EE58FF4FC591D49161110DC0DE
:100250009FB7F8948C91209582238C9388812823D2
:1002600028839FBFDF91CF910895623051F49FB7EB
:10027000F8943C91822F809583238C93E8812E2BD8
:10028000EFCF8FB7F894EC912E2B2C938FBFEACF42
:100290008E50806480937C0080917A00806480938B
:1002A0007A0080917A0086FDFCCF80917800909151
:1002B000790008953FB7F8948091EC079091ED078D
:1002C000A091EE07B091EF0726B5A89B05C02F3F80
:1002D00019F00196A11DB11D3FBFBA2FA92F982F6C
:1002E0008827BC01CD01620F711D811D911D42E067
:1002F000660F771F881F991F4A95D1F70895AF920F
:10030000BF92CF92DF92EF92FF920F931F93CF9302
:10031000DF936C017B018B01040F151FEB015E0164
:10032000AE18BF08C017D10759F06991D601ED91F9
:10033000FC910190F081E02DC6010995892B79F798
:10034000C501DF91CF911F910F91FF90EF90DF904A
:10035000CF90BF90AF900895FC01538D448D252F11
:1003600030E0842F90E0821B930B541710F0CF964F
:10037000089501970895FC01918D828D981761F081
:10038000A28DAE0FBF2FB11D5D968C91928D9F5F98
:100390009F73928F90E008958FEF9FEF0895FC0177
:1003A000918D828D981731F0828DE80FF11D858D2A
:1003B00090E008958FEF9FEF0895FC01918D228DBD
:1003C000892F90E0805C9F4F821B91098F73992742
:1003D000089580EF97E00E94DD0121E0892B09F468
:1003E00020E0822F089580E090E0892B29F00E9480
:1003F000E90181110C9400000895FC01A48DA80F5F
:10040000B92FB11DA35ABF4F2C91848D90E0019656
:100410008F739927848FA689B7892C93A089B18976
:100420008C91837080648C93938D848D981306C017
:100430000288F389E02D80818F7D80830895EF927B
:10044000FF920F931F93CF93DF93EC0181E0888F8E
:100450009B8D8C8D98131AC0E889F989808185FF5E
:1004600015C09FB7F894EE89FF896083E889F98900
:1004700080818370806480839FBF81E090E0DF9102
:10048000CF911F910F91FF90EF900895F62E0B8D55
:1004900010E00F5F1F4F0F731127E02E8C8D8E1110
:1004A0000CC00FB607FCFACFE889F989808185FF77
:1004B000F5CFCE010E94FD01F1CFEB8DEC0FFD2FAA
:1004C000F11DE35AFF4FF0829FB7F8940B8FEA8932
:1004D000FB8980818062CFCFCF93DF93EC01888D41
:1004E0008823B9F0AA89BB89E889F9898C9185FDAF
:1004F00003C0808186FD0DC00FB607FCF7CF8C913D
:1005000085FFF2CF808185FFEDCFCE010E94FD01F6
:10051000E9CFDF91CF9108950F931F93CF93DF938E
:1005200060E088E00E94DE0061E088E00E94DE007A
:1005300010927E0710927D07C0917D07D0917E07B3
:10054000C830D1050CF042C082E00E94B5008E0197
:10055000000F111FF801EA53F84F21E0892B09F031
:1005600020E0208389E00E94B500F801EA53F84FAB
:1005700021E0892B09F020E021838E01000F111F5B
:10058000000F111F0C56184FF801608186E00E9481
:10059000DE00F80161818EE00E94DE00F8016281D8
:1005A0008AE00E94DE00F801638181E10E94DE00A2
:1005B00061E083E10E94DE0060E083E10E94DE00F2
:1005C0002196D0937E07C0937D07B6CF61E082E18C
:1005D0000E94DE0060E082E10E94DE008FE00E9467
:1005E000B50021E0892B09F020E02093D60787E0B1
:1005F0000E94B50021E0892B09F020E02093D70765
:10060000DF91CF911F910F910895CF92DF92EF92DA
:10061000FF920F931F93CF93DF9320914A0730915E
:100620004B07FDE6CF2EF5E0DF2ECDEDD5E07E01C8
:10063000860141E050E0D8018D919D918D01F70137
:10064000A191B1917F01880F991FBC016A53784F26
:100650006A0F7B1F8C54984FA80FB91FFB01908124
:100660008C918917A0F4E4E2F6E090E080E09C0130
:100670008430910561F0619171910196672BB9F712
:10068000F901EE0FFF1FEC5DF94F518340834F5F7F
:100690005F4F4530510579F641E050E0D6018D912C
:1006A0009D916D01E991F991880F991FBC016A53E1
:1006B000784F6E0F7F1F8C54984FDF01A80FB91F22
:1006C000FB0190818C91981798F4E4E2F6E026E023
:1006D000EC32F20759F08191919184179507B9F79F
:1006E000CF010297DC011D921C92F1CF24E030E093
:1006F0004F5F5F4F4530510589F630934B0720938C
:100700004A07A4E2B6E090E080E0E6E0AC32BE0743
:1007100091F424E030E030937E0720937D07FC01C4
:10072000EE0FFF1FEC5DF94F8430910594F40196B4
:1007300011921192F9CF2D913D912115310529F397
:10074000FC01EE0FFF1FEC5DF94F31832083019612
:10075000DCCF9093010680930006DF91CF911F912B
:100760000F91FF90EF90DF90CF90089581E08093FC
:10077000A8070E945A016093590770935A07809303
:100780005B0790935C070895EF92FF920F931F937E
:10079000CF93DF93EC012197FE01E158F84FE08001
:1007A0008E01000F111FF801EB51FA4F0190F081FB
:1007B000E02DD801A352BA4FEE0FFF1FEE0FFF1F1F
:1007C000EC56F84F8D919C91E80FF91FFF24F3949C
:1007D0008E2D8F2580830E945A01FE01EE0FFF1F90
:1007E000EE0FFF1FE759F84F608371838283938375
:1007F000FE01E758F84FF082809108058823C9F080
:10080000E11017C0F801EB52FA4F0190F081E02D92
:10081000D801A353BA4FEE0FFF1FEE0FFF1FEC5688
:10082000F84F8D919C91E80FF91FF082CB59D84F6A
:10083000F882DF91CF911F910F91FF90EF90089573
:10084000CF92DF92EF92FF920F931F93CF93DF939C
:100850008C0110927E0710927D0785EE95E02DEDBC
:1008600035E0CFE7D7E0A801DE01EE24E39465E0B0
:100870008D3E9607D9F0FA01F190AF01FF2011F0FB
:10088000FC90FE24FC01C190D190CF01F90161914F
:1008900071919F01F601EE0FFF1FEE0FFF1FEC5647
:1008A000F84FE60FF71FF0821196E1CF0E945A0130
:1008B00010927E0710927D0750910805A9E6B7E0D7
:1008C000F12CE12C2991211132C06D937D938D93F0
:1008D0009C9313976801CE0CDF1CF60140819701B1
:1008E0002758384FF9014083552309F1F60140811B
:1008F0009701220F331FF901EB52FA4F0190F0815B
:10090000E02D23533A4F6F01CC0CDD1CCC0CDD1CC9
:10091000F601EC56F84F6F01F90120813181F601A3
:10092000E20FF31F4083F701EB59F84F4083FFEFCD
:10093000EF1AFF0A149624E0E216F10419F6F09279
:100940007E07E0927D07DF91CF911F910F91FF907D
:10095000EF90DF90CF9008958091CF078823B1F07A
:100960008091BD07811112C081E090E0909326052F
:10097000809325059093100580930F051092D90759
:100980001092D8071092200510921F058091D5076C
:100990008823B1F08091C307811112C082E090E0FA
:1009A00090932605809325059093100580930F055D
:1009B0001092D9071092D8071092200510921F05A7
:1009C0008091CD078823B1F08091BB07811112C0BF
:1009D00083E090E090932605809325059093100581
:1009E00080930F051092D9071092D8071092200516
:1009F00010921F058091C9078823B1F08091B70735
:100A0000811112C084E090E0909326058093250523
:100A10009093100580930F051092D9071092D80774
:100A20001092200510921F0508958091CC0788230D
:100A300041F08091BA07811104C081E090E00E94EA
:100A4000C4038091C807882341F08091B6078111C3
:100A500004C082E090E00E94C4038091CA0788230A
:100A600041F08091B807811104C083E090E00E94BA
:100A7000C4038091C607882341F08091B407811197
:100A800004C084E090E00C94C40308951092AE0773
:100A90001092A9071092A10710929D0720918F082C
:100AA00030919008C901019784309105C0F4880FF6
:100AB000991FFC01E55BFA4F0190F081E02D855C08
:100AC0009A4FEE0FFF1FEE0FFF1FEC56F84FDC01A1
:100AD0008D919C91E80FF91F81E080830895253066
:100AE000310549F481E08093AE078093A907809394
:100AF000A10780939D0708950F931F931092AA0753
:100B00001092AD071092A507109299072091250524
:100B100030912605C9010197880F991FFC01ED5BF3
:100B2000FA4F0190F081E02D855C9A4FEE0FFF1F88
:100B3000EE0FFF1FEC56F84FDC018D919C91E80FF2
:100B4000F91F81E0808380911F05909120054091DD
:100B5000D8075091D90741505109841795070CF0D7
:100B600047C0880F991FFC01EF5EFA4F8081918189
:100B70009093010180930001809100019091010107
:100B80002817390791F181309105B9F58091370720
:100B90008093AA074091E2075091E3076091E40730
:100BA0007091E5078091330790913407A091350744
:100BB000B09136078A019B01081B190B2A0B3B0BCE
:100BC000D901C801813A9648A140B10570F08091E1
:100BD000370791E089278093370740933307509375
:100BE000340760933507709336071F910F9108956E
:100BF00080910F0590911005BBCF8230910529F4AB
:100C0000809137078093AD07C5CF8330910529F4D4
:100C1000809137078093A507BDCF049709F0BACF1D
:100C20008091370780939907B5CFE4E9F7E0178EF5
:100C30001382178213861786138A178A138E0895D4
:100C40008091DC07882339F10E94150680914007C6
:100C50009091410760919508709196080E942B1F12
:100C60007093050560930405660F771FFB01EB5732
:100C7000FA4F0190F081E02D6B587A4FEE0FFF1F75
:100C8000EE0FFF1FEC56F84FDB018D919C91E80FA2
:100C9000F91F81E0808308950C94BA1E60912505A8
:100CA00090E080E00E944C0610927E0710927D0733
:100CB00080917D0790917E07883091059CF4FC011E
:100CC000EE0FFF1FE15FFA4F608101960E944C0614
:100CD00080917D0790917E07019690937E07809387
:100CE0007D07E6CF6091D80789E090E00E944C062E
:100CF000609109058AE090E00E944C06609127050A
:100D00008BE090E00E944C0660910B058CE090E037
:100D10000E944C0660910D058DE090E00E944C060B
:100D200060918007660F8091810724E0829FC00157
:100D30001124682B80917F07682B8091820778E0CF
:100D4000879FC0011124682B8EE090E00E944C0622
:100D500060912E07660F80912F0724E0829FC001CB
:100D60001124682B80912D07682B8091300778E043
:100D7000879FC0011124682B8FE090E00E944C06F1
:100D80006091310780E190E00E944C06609121055E
:100D900081E190E00E944C0660912105709122054E
:100DA0008091230590912405672F782F892F99270B
:100DB00082E190E00E944C0660912105709122052D
:100DC0008091230590912405BC018827992783E110
:100DD00090E00E944C06609121057091220580915F
:100DE000230590912405692F77278827992784E187
:100DF00090E00E944C0610927E0710927D07809131
:100E00007D0790917E0704970CF049C010924B0724
:100E100010924A0780914A0790914B0720917D07D5
:100E200030917E07803491059CF5A901440F551F30
:100E3000440F551FFC0174E0EE0FFF1F7A95E1F798
:100E4000EC5FFE4FE40FF51F6181660F428174E095
:100E5000479FA0011124642B4081642B438178E0DB
:100E6000479FA0011124642B9E5FE6E0220F331FF1
:100E7000EA95E1F7820F931F0E944C0680914A0782
:100E800090914B07019690934B0780934A07C2CFEE
:100E90002F5F3F4F30937E0720937D07B0CF08959B
:100EA0000C94B21E1F920F920FB60F9211242F9323
:100EB0003F938F939F93AF93BF938091E807909157
:100EC000E907A091EA07B091EB073091E70723E02B
:100ED000230F2D3758F50196A11DB11D2093E7076B
:100EE0008093E8079093E907A093EA07B093EB0794
:100EF0008091EC079091ED07A091EE07B091EF077C
:100F00000196A11DB11D8093EC079093ED07A0936E
:100F1000EE07B093EF07BF91AF919F918F913F91F3
:100F20002F910F900FBE0F901F90189526E8230F5A
:100F30000296A11DB11DD2CF1F920F920FB60F9234
:100F400011242F933F934F935F936F937F938F93CE
:100F50009F93AF93BF93EF93FF9380EF97E00E942F
:100F6000FD01FF91EF91BF91AF919F918F917F9183
:100F70006F915F914F913F912F910F900FBE0F9006
:100F80001F9018951F920F920FB60F9211242F9356
:100F90008F939F93EF93FF93E0910008F0910108E6
:100FA0008081E0910608F091070882FD1BC09081C6
:100FB000809109088F5F8F7320910A08821741F092
:100FC000E0910908F0E0E051F84F958F809309080F
:100FD000FF91EF919F918F912F910F900FBE0F90E6
:100FE0001F9018958081F4CF1092F3071092F207AA
:100FF00088EE93E0A0E0B0E08093F4079093F507CB
:10100000A093F607B093F70781EF95E09093F1076F
:101010008093F00785EC90E09093FD078093FC07A8
:1010200084EC90E09093FF078093FE0780EC90E0C3
:10103000909301088093000881EC90E0909303085E
:101040008093020882EC90E0909305088093040856
:1010500086EC90E0909307088093060810920908A8
:1010600010920A0810920B0810920C088091270524
:101070009091280597FD0F9624E0959587952A95E0
:10108000E1F79093960880939508809125059091BB
:1010900026059093940880939308809192088093FA
:1010A000910880918F089091900890938E0880937A
:1010B0008D080895CF93DF93CDB7DEB7A5970FB610
:1010C000F894DEBF0FBECDBF789484B5826084BD36
:1010D00084B5816084BD85B5826085BD85B581603C
:1010E00085BD80916E00816080936E0010928100BA
:1010F0008091810082608093810080918100816075
:101100008093810080918000816080938000809135
:10111000B10084608093B1008091B00081608093C1
:10112000B00080917A00846080937A0080917A0088
:10113000826080937A0080917A00816080937A0047
:1011400080917A00806880937A001092C100E091CB
:101150000008F091010882E08083E091FC07F091A3
:10116000FD071082E091FE07F091FF078FEC80836E
:1011700010920808E0910408F091050886E0808349
:10118000E0910208F0910308808180618083E09102
:101190000208F0910308808188608083E091020852
:1011A000F0910308808180688083E0910208F091CB
:1011B000030880818F7D808384E10E944801BC0107
:1011C000990F880B990B611571058105910511F037
:1011D0000E94A91E61E088E00E940C0161E082E1AA
:1011E0000E940C0161E083E10E940C0160E082E05A
:1011F0000E940C0160E089E00E940C0161E086E041
:101200000E940C0161E08EE00E940C0161E08AE026
:101210000E940C0161E081E10E940C0160E084E029
:101220000E940C0162E08FE00E940C0160E087E008
:101230000E940C0160E083E00E940C010E948C027D
:101240008091D107882329F08091D00781110E94D5
:101250004E0690E080E00E94500790E090932605B3
:101260008093250510927E0710927D0700917D07DF
:1012700010917E0708301105A4F478012FEFE21ACF
:10128000F20AC7010E945007000F111FF801E15F29
:10129000FA4F90E091838083F0927E07E0927D0781
:1012A000E5CF89E090E00E94500790E09093D90745
:1012B0008093D8078AE090E00E94500790E09093D6
:1012C0000A05809309058BE090E00E94500790E0AA
:1012D0009093280580932705F4E095958795FA95D6
:1012E000E1F790939608809395088CE090E00E9437
:1012F000500790E090930C0580930B058DE090E0F3
:101300000E94500790E090930E0580930D058EE0AB
:1013100090E00E945007282F817080937F0721FB67
:10132000882780F98093800722FB882780F98093A3
:10133000810723FB222720F92093820784E090E095
:1013400090937E0780937D078FE090E00E94500786
:10135000282F817080932D0721FB882780F98093A7
:101360002E0722FB882780F980932F0723FB222753
:1013700020F92093300780E190E00E94500790E030
:101380009093320780933107109221051092220525
:10139000109223051092240581E190E00E945007ED
:1013A000C82ED12CF12CE12CC0922105D09222051F
:1013B000E0922305F092240582E190E00E9450071C
:1013C000D82AC0922105D0922205E0922305F092FE
:1013D000240583E190E00E945007E82AC09221058D
:1013E000D0922205E0922305F092240584E190E05A
:1013F0000E945007F82AC0922105D0922205E0925F
:101400002305F092240510927E0710927D0700912B
:101410007D0710917E07043011050CF47DC0222455
:101420002A94E3E03E2E412C512C8E010F5E1F4F7B
:101430001A8F098F40E4642E712C0E948C0284E084
:101440000E94B500892B09F0C2C083E00E94B5005C
:1014500021E0892B09F020E02093E6078091E60740
:10146000882309F42BC28091DD07811127C281E016
:101470008093DC078091DA079091DB074091270584
:1014800050912805841795070CF0D3C001969093CE
:10149000DB078093DA071091DA070091DB07809170
:1014A0002505909126050197880F991F880F991F90
:1014B000FC013196BC016E5F7F4F9C012D5F3F4F59
:1014C000790110FF74C220914E0730914F0721150A
:1014D000310509F4DAC021503109309341072093D6
:1014E0004007209140073091410757FF02C04F5FEE
:1014F0005F4F55954795415051092115310509F028
:10150000CDC0509309064093080641E050E0509347
:10151000070640930606D1C010924B0710924A0767
:10152000480166E0880C991C6A95E1F76801CC0CCB
:10153000DD1CCC0CDD1C56013FEFA31AB30A3601AB
:1015400042E0640E711C260153E0450E511CE090F0
:101550004A07F0904B0760E4E616F1048CF5C701EA
:101560009E5F880D991D0E945007482F970154E0F7
:10157000220F331F5A95E1F72C5F3E4FF901EC0D16
:10158000FD1D81708083F901EA0DFB1D41FB882759
:1015900080F98083F901E60DF71D42FB882780F969
:1015A0008083240D351D43FB442740F9D9014C931A
:1015B000BFEFEB1AFB0AF0924B07E0924A07C7CF46
:1015C0000F5F1F4F10937E0700937D0720CF809100
:1015D000E2079091E307A091E407B091E5074091FD
:1015E000DE075091DF076091E0077091E107841BEF
:1015F000950BA60BB70B40912105509122056091E8
:1016000023057091240584179507A607B70720F4D2
:1016100081E08093E60722CF1092E6070E945A01EC
:101620006093DE077093DF078093E0079093E107F4
:1016300015CF81E090E09093DB078093DA078091EB
:101640001F05909120052091D8073091D90721508E
:10165000310982179307A4F4019690932005809393
:101660001F05E0911F05F0912005EE0FFF1FE15FC0
:10167000FA4F8081918190932605809325050BCFA9
:101680001092200510921F05ECCF212F302F37FF2D
:1016900002C02F5F3F4F359527951FCF890101501D
:1016A000110910930906009308062417350709F05D
:1016B000CFC0109207061092060644E0220F331F97
:1016C0004A95E1F72C5F3E4FA901480F591FDA01F7
:1016D0004C914D8BA9014E0F5F1FDA014C914E8B3F
:1016E000A901460F571FDA014C914F8B2E0D3F1D5C
:1016F000D9012C91288F209108063091090654E0D9
:10170000220F331F5A95E1F72C5F3E4FA901480F76
:10171000591FDA014C91498BA9014E0F5F1FDA0165
:101720004C914A8BA901460F571FDA014C914B8B04
:101730002E0D3F1DD9012C912C8B20910606309146
:101740000706A4E0220F331FAA95E1F72C5F3E4F56
:10175000820F931FDC018C918983E20FF31F80813C
:101760008A83620F731FFB0180818B83D701A20FD5
:10177000B31F8C918C8310927E0710927D07FF24FB
:10178000F394E0917D07F0917E07E430F1050CF0D1
:1017900063C0A1E1B0E0AC0FBD1FAE0FBF1F8C91C5
:1017A000811107C0A1E0B0E0AC0FBD1FAE0FBF1F9D
:1017B0008C91DF01AE5FB94F8C93E35DF84F808170
:1017C0008823E1F180919208811138C080914E0701
:1017D00090914F07892B91F50E945A1E00917D0729
:1017E00010917E0724E630E040E050E00E94C81EE1
:1017F0004B015C01FFEF8F1A9F0AAF0ABF0AF80185
:10180000EE5FF94F808190E0880F991F019640911B
:10181000310750913207849F9001859F300D949F2E
:10182000300D1124821693064CF4E5E1F0E0EC0F44
:10183000FD1FE00FF11F80818F25808380917D0740
:1018400090917E07019690937E0780937D0799CFB4
:10185000A9014F5F5F4F5BCE2091DA073091DB0724
:1018600081E190E0821B930B6091090570910A055C
:10187000660F771F0E942B1F892B79F481E08093DC
:10188000A4078093A6070E945A0160936107709392
:1018900062078093630790936407CE0145960E9488
:1018A00020048091900790912C06992309F46AC036
:1018B00081116BC00E94B60310922C068091E6073E
:1018C0008093DD074091D607409392088091D2071C
:1018D000E091CE077091D3076091CB075091C70775
:1018E000882309F4B8C08091C00781110AC04093D1
:1018F000910880918F089091900890938E08809322
:101900008D0820910B0530910C0580910D0590916B
:101910000E05F091BC07FE1720F4242F30E081E083
:1019200090E0E091C107E71720F4242F30E082E037
:1019300090E07091B907761720F4242F30E083E00F
:1019400090E06091B507651720F4242F30E084E023
:1019500090E044E050E050937E0740937D07309341
:101960000C0520930B0590930E0580930D0541E027
:10197000232B09F440E040939208909390088093C1
:101980008F08ADC0882309F499CF81E080939C072C
:101990000E945A0160935D0770935E0780935F0712
:1019A000909360070E94B6031092900787CF212F73
:1019B000302F37FF02C02F5F3F4F359527952150BD
:1019C0003109B4E0220F331FBA95E1F7A9014C5F4A
:1019D0005E4F480F591FDA011C91111102C010917E
:1019E0001E06A9014C5F5E4F840F951FDC011C93FE
:1019F0004E0F5F1FDA014C91411102C040911F064A
:101A0000C9018C5F9E4FE80FF91F4083860F971F17
:101A1000FC018081811102C080912006F901EC5FF8
:101A2000FE4F6E0F7F1FDB018C93EE0DFF1D80813B
:101A3000811102C0809121062C5F3E4FD701A20F79
:101A4000B31F8C9310921E0610921F061092200650
:101A50001092210633CFEE2379F08091BC078111DB
:101A60000BC080918F0890919008019709F0EEC209
:101A70001092900810928F08772379F08091C10717
:101A800081110BC080918F0890919008029709F006
:101A9000E4C21092900810928F08662379F080912A
:101AA000B90781110BC080918F089091900803971E
:101AB00009F0DAC21092900810928F08552379F03D
:101AC0008091B50781110BC080918F08909190088B
:101AD000049709F0D0C21092900810928F0880915C
:101AE000D107882309F4F0C21092AA071092AD071B
:101AF0001092A507109299071092AE071092A907AD
:101B00001092A10710929D070E94200681E0809309
:101B10009A078091BF07811107C080E10E944801A8
:101B200090939307809392070091920710919307E7
:101B300080E10E944801F801E81BF90B1E161F0600
:101B40000CF09CC280E10E944801081B190B063072
:101B500011050CF09BC2809191078823C1F080E1B0
:101B60000E94480120E63AEEDC010E94471FA201D4
:101B700091010E94C81E205D3A484F4F5F4F20934D
:101B8000210530932205409323055093240590911D
:101B9000CC078091BA07891770F48091090590915C
:101BA0000A058031910509F075C281E090E09093BB
:101BB0000A05809309059091C8078091B607891797
:101BC00080F580912705909128058038910509F0CE
:101BD00064C280E290E0909328058093270580916D
:101BE00027059091280597FD0F9664E095958795B8
:101BF0006A95E1F790939608809395081092DB0719
:101C00001092DA071092200510921F0580910F059F
:101C100090911005909326058093250581E080938F
:101C200090079091CA078091B807891708F050C0B3
:101C3000C090E207D090E307E090E407F090E5075A
:101C4000C0928C07D0928D07E0928E07F0928F079A
:101C5000109291078091880790918907A0918A0737
:101C6000B0918B070097A105B10519F14601570105
:101C7000881A990AAA0ABB0AD501C40152E0B6958E
:101C8000A795979587955A95D1F781390FE59007D4
:101C900001E0A007B10508F403C220E93FE541E0F7
:101CA00050E0209321053093220540932305509363
:101CB000240580E10E944801909393078093920746
:101CC000C0928807D0928907E0928A07F0928B072A
:101CD0009091C6078091B407891710F40E944E06B0
:101CE0009091D2078091C007981760F48091910875
:101CF0008093920880918D0890918E08909390081F
:101D000080938F088091D607809395072091D00704
:101D10009091BE07921730F02091D7079091C50798
:101D2000921798F41092DB071092DA0710922005B0
:101D300010921F0520910F05309110053093260554
:101D40002093250591E0909390079091C4078917FF
:101D500021F01092900810928F080E945A0160930F
:101D6000E2077093E3078093E4079093E507D09030
:101D70000805A9E6B7E0BC8FAB8FE9E7F7E030E0F4
:101D800020E04081442371F1AB8DBC8D8D909D90FE
:101D9000AD90BC907B018C01E818F9080A091B0979
:101DA0004701580109E8801603E19006A104B10437
:101DB000C8F08901000F111FA8014B515A4FDA01D9
:101DC0004D915C9103521A4F440F551F440F551FFC
:101DD0004C56584FD8010D911C91400F511FDA01FC
:101DE0001C921082DD20B9F189010B59184F1E8F0A
:101DF0000D8FD8014C91442371F1AB8DBC8D8D902A
:101E00009D90AD90BC907B018C01E818F9080A09FF
:101E10001B0941E5E41643ECF40601051105D8F071
:101E20008901000F111FA8014B525A4FDA014D9141
:101E30005C9103531A4F440F551F440F551F4C56C6
:101E4000584FD8010D911C91400F511FDA011C927F
:101E5000AD8DBE8D1C922F5F3F4F0B8D1C8D0C5F87
:101E60001F4F1C8F0B8F31962430310509F089CF1D
:101E70000091610710916207209163073091640718
:101E80004B015C01801A910AA20AB30A95018401F0
:101E9000093843E114072105310548F01092A407E1
:101EA000013117422105310510F01092A60700916B
:101EB0005D0710915E0720915F07309160074B012D
:101EC0005C01801A910AA20AB30A950184010938BB
:101ED00013412105310510F010929C07009159071C
:101EE00010915A0720915B0730915C074B015C0110
:101EF000801A910AA20AB30A95018401093843E1C4
:101F000014072105310510F01092A80740915807D9
:101F1000442349F00135134C2105310520F010927E
:101F20009A0710925807209157072223C9F0009171
:101F300053071091540720915507309156074B01D4
:101F40005C01801A910AA20AB30A95018401013545
:101F5000134C2105310520F010929A071092570773
:101F6000E0919208EE2311F40C94C61D20918F0885
:101F7000309190082230310511F00C94C61D20914B
:101F80008F08309190082430310511F00C94CD1D4C
:101F900010924F0710924E0710924D0710924C0767
:101FA000E11109C020918F0830919008223031054D
:101FB00011F40C94DD1D21E020930705E11107C009
:101FC00020918F08309190082330310519F021E0DD
:101FD000209306052091D10721110AC0109288078D
:101FE0001092890710928A0710928B07109291071E
:101FF000009184071091850720918607309187070B
:10200000601B710B820B930B6139704D83409105FE
:1020100010F0109283071092DC0780914A0790918C
:102020004B07E6ECF7E0A4EBB7E067E0E83DF60726
:1020300011F40C94EC1D80818C93818111968C930A
:1020400011973296129682E090E0EFCF81E090E017
:102050009093900880938F080FCD82E090E090934A
:10206000900880938F0819CD83E090E090939008BA
:1020700080938F0823CD84E090E07FCC80E10E94A4
:102080004801801B910B06970CF465CD81E080938D
:10209000910761CD880F991F8ACD880F991F9BCD1D
:1020A000803335E79307A105B10548F080932105FA
:1020B00090932205A0932305B0932405FACD80E3E5
:1020C00095E7A0E0B0E0F2CF8091D407882309F42F
:1020D00084C0109208059091CC078091BA078917A7
:1020E00030F480917F0791E0892780937F0790915A
:1020F000C8078091B607891730F48091800791E076
:102100008927809380079091CA078091B807891723
:1021100030F48091810791E0892780938107909125
:10212000C6078091B407891730F48091820791E047
:10213000892780938207E0907F0781E09E2D982772
:102140009093A207F09080079F2D98279093960771
:1021500000918107902F982790939E0710918207F6
:1021600081278093B2070E9420060E947C058091FF
:10217000C2078111B5CD8091E2079091E307A0914C
:10218000E407B091E5078093840790938507A093B7
:102190008607B093870780918307882381F0EE201C
:1021A00091F0FF2081F0002371F0112361F0109273
:1021B0007F0710928007109281071092820781E0BA
:1021C000809383078DCD81E080937F078093800784
:1021D0008093810780938207F2CFF090920800915C
:1021E0008F0810919008FF2009F49CC70E944605B3
:1021F000BB24B394B092080510929A0702301105DF
:1022000009F437C2BCF40115110509F43DC10130D0
:10221000110509F065CD0E9420060E947C05FE0193
:102220003196DF01898C9A8CA815B90509F46CC127
:102230001D92F8CF0330110509F484C6043011054E
:1022400009F04ECD0E941506C090E207D090E3073A
:10225000E090E407F090E50780915007811114C0E9
:10226000B09250071092D9071092D807109220050B
:1022700010921F05C0923307D0923407E0923507C1
:10228000F0923607B09237074091D8075091D9079E
:1022900080913707BA01660F771FFB01EB57FA4FA2
:1022A00020813181FB01EB58FA4F220F331F220F9F
:1022B000331F2C56384F0190F081E02DE20FF31FB1
:1022C00080838093AA078093AD078093A5078093AE
:1022D0009907009133071091340720913507309109
:1022E000360746015701801A910AA20AB30A9501DE
:1022F0008401013A16482140310560F091E08927B8
:1023000080933707C0923307D0923407E0923507A5
:10231000F09236079091CF078091BD07891730F072
:102320009091CC078091BA07891788F4615F7A4F42
:1023300081E090E0DB018D939C934830510509F0DA
:10234000D8C6109250071092900810928F08909162
:10235000D5078091C307891730F09091C807809105
:10236000B6078917B8F48091D8079091D907FC0176
:10237000EE0FFF1FE15FFA4F22E030E03183208350
:102380008830910509F0BCC6109250071092900851
:1023900010928F089091CD078091BB07891730F07C
:1023A0009091CA078091B8078917B8F48091D8072F
:1023B0009091D907FC01EE0FFF1FE15FFA4F23E078
:1023C00030E0318320838830910509F09FC6109258
:1023D00050071092900810928F089091C907809131
:1023E000B707891730F09091C6078091B407891715
:1023F000B8F48091D8079091D907FC01EE0FFF1F28
:10240000E15FFA4F24E030E031832083883091058A
:1024100009F082C6109250071092900810928F080F
:102420006091D8077091D9076830710531F4109226
:10243000900810928F081092500730E020E0E1E001
:1024400026173707BCF4A901440F551FDA01AB5713
:10245000BA4F8D919C914B585A4F880F991F880FF6
:10246000991F8C56984FDA014D915C91840F951FFE
:10247000DC01EC932F5F3F4F2830310509F7309393
:102480007E0720937D072CCC0E94150580911E06A7
:10249000811107C08091CC07882319F08091BA0779
:1024A0008B2580931E0680911F06811108C08091A4
:1024B000C807882321F08091B60791E0892780938F
:1024C0001F0680912006811108C08091CA078823C9
:1024D00021F08091B80791E08927809320068091B0
:1024E0002106811108C08091C607882321F08091C0
:1024F000B40791E08927809321060E9420060E945C
:10250000AC040E947C05ECCB8091CC07882389F039
:102510008091BA0781110DC0A0912505B0912605C3
:102520001197AA0FBB1FAA0FBB1FAE0FBF1F81E0E1
:102530008C938091C807882391F08091B607811110
:102540000EC0A0912505B09126051197AA0FBB1FBB
:10255000AA0FBB1FAE0FBF1F81E011968C93809115
:10256000CA07882391F08091B80781110EC0A0910D
:102570002505B09126051197AA0FBB1FAA0FBB1FF7
:10258000AE0FBF1F81E012968C938091C6078823FF
:1025900091F08091B40781110EC0A0912505B091F2
:1025A00026051197AA0FBB1FAA0FBB1FAE0FBF1F97
:1025B00081E013968C938091CF07882349F0809116
:1025C000BD07811105C081E089838A838B838C8359
:1025D0008091D507882349F08091C307811105C0F8
:1025E00081E08D838E838F8388878091CD078823B8
:1025F00049F08091BB07811105C081E089878A87F6
:102600008B878C878091C907882349F08091B70711
:10261000811105C081E08D878E878F87888B10920E
:102620007E0710927D0720914A0730914B0781E188
:1026300090E044E151E0019789F061916623D9F37C
:10264000DA01A81BB90B21E430E02150310919F05F
:102650001C925096FACF20E430E0EDCF30934B0738
:1026600020934A0780E190E090937E0780937D0756
:1026700037CB0E9420068091510781111AC0B09279
:10268000520780910C0690910D06EEE0F6E006E010
:10269000EE31F00721F0119290E080E0F8CF20E1D8
:1026A00030E030937E0720937D0790930D06809352
:1026B0000C0680915207882309F4BCC09091CC0786
:1026C0008091BA078917B0F4E0912505F0912605AD
:1026D000EE0FFF1FEE0FFF1FE65FF94F81E08083D3
:1026E000109252078093510781E090E090930B067F
:1026F00080930A069091C8078091B6078917B0F4B5
:10270000E0912505F0912605EE0FFF1FEE0FFF1F4C
:10271000E65FF94F81E08183109252078093510761
:1027200082E090E090930B0680930A069091CA078E
:102730008091B8078917B0F4E0912505F09126053E
:10274000EE0FFF1FEE0FFF1FE65FF94F81E0828360
:10275000109252078093510783E090E090930B060C
:1027600080930A069091C6078091B4078917B0F448
:10277000E0912505F0912605EE0FFF1FEE0FFF1FDC
:10278000E65FF94F81E083831092520780935107EF
:1027900084E090E090930B0680930A069091CF0717
:1027A0008091BD07891798F481E080930E0680938D
:1027B0000F068093100680931106109252078093A3
:1027C000510781E090E090930D0680930C06909164
:1027D000D5078091C307891758F41092520781E0FA
:1027E0008093510782E090E090930D0680930C0651
:1027F0009091CD078091BB07891758F4109252072A
:1028000081E08093510783E090E090930D068093E0
:102810000C069091C9078091B707891758F4109258
:10282000520781E08093510784E090E090930D0679
:1028300080930C0680915107882309F451CA809136
:102840000C0690910D063091BA072091CC070097A5
:1028500009F497C1321748F5BC0161507109660F40
:10286000771F660F771F409125055091260541502F
:102870005109440F551F440F551F30E020E0F90166
:10288000E60FF71FEC5FFE4FA081F901E40FF51F83
:10289000EC5FFE4FA083205F3F4F211514E031070E
:1028A00071F770924B0760924A073091C8072091E8
:1028B000B607231748F5BC01660F771F660F771F11
:1028C000635071094091250550912605440F551F0D
:1028D000440F551F4350510930E020E0FB01E20F47
:1028E000F31FEC5FFE4FA081FA01E20FF31FEC5FD4
:1028F000FE4FA083205F3F4F2115A4E03A0771F7F8
:1029000070924B0760924A073091CA072091B8072E
:10291000231748F5BC01660F771F660F771F6250BB
:1029200071094091250550912605440F551F440F0C
:10293000551F4250510930E020E0FB01E20FF31F28
:10294000EC5FFE4FA081FA01E20FF31FEC5FFE4F38
:10295000A083205F3F4F2115B4E03B0771F77092D1
:102960004B0760924A073091C6072091B40723179E
:1029700048F5BC01660F771F660F771F615071091C
:102980004091250550912605440F551F440F551FB2
:102990004150510930E020E0FB01E20FF31FEC5FF2
:1029A000FE4FA081FA01E20FF31FEC5FFE4FA08300
:1029B000205F3F4F2115E4E03E0771F770924B070F
:1029C00060924A073091CF072091BD07231798F5F1
:1029D0009C0121503109220F331F220F331F89011F
:1029E0000F5F1F4FB9016E5F7F4FA9014D5F5F4FB2
:1029F000E4E0F1E0A4E0EA2EA5E0FA2EEE16FF06F0
:102A0000B1F0DF01A20FB31FAC91A083DF01A00FD3
:102A1000B11FAC91A183DF01A60FB71FAC91A283B8
:102A2000DF01A40FB51FAC91A3837096E7CF70921E
:102A30004B0760924A073091D5072091C3072317AF
:102A400098F59C0121503109220F331F220F331FAB
:102A500089010F5F1F4FB9016E5F7F4FA9014D5F65
:102A60005F4FE4E0F1E0A4E0EA2EA5E0FA2EEE16D6
:102A7000FF06B1F0DF01A20FB31FAC91A483DF0109
:102A8000A00FB11FAC91A583DF01A60FB71FAC91BA
:102A9000A683DF01A40FB51FAC91A7837096E7CF83
:102AA00070924B0760924A073091CD072091BB0787
:102AB000231780F59C0121503109220F331F220F6B
:102AC000331F89010F5F1F4FB9016E5F7F4FA9014F
:102AD0004D5F5F4FE4E0F1E0A5E0E430FA07B1F0CC
:102AE000DF01A20FB31FAC91A087DF01A00FB11FC0
:102AF000AC91A187DF01A60FB71FAC91A287DF01C0
:102B0000A40FB51FAC91A3877096E6CF70924B07C8
:102B100060924A073091C9072091B707231708F040
:102B2000DFC80197880F991F880F991FBC016F5F3D
:102B30007F4FAC014E5F5F4F9C012D5F3F4FE4E044
:102B4000F1E004E015E00E171F0729F470924B071F
:102B500060924A07C5C8DF01A80FB91FAC91A487CE
:102B6000DF01A60FB71FAC91A587DF01A40FB51F2A
:102B7000AC91A687DF01A20FB31FAC91A787709617
:102B8000E2CF3217C8F520914A0730914B07809168
:102B90002505909126050197880F991F880F991F89
:102BA000AEE0B6E044E051E0E6E0AE31BE07D1F081
:102BB0006D916623A1F030E020E0FA01E20FF31FEF
:102BC0006081FC01E20FF31FEC5FFE4F6083205F2A
:102BD0003F4F2115F4E03F0781F720E430E04F5FDD
:102BE0005F4FE2CF30934B0720934A0780E190E09C
:102BF00090937E0780937D079091C8078091B607D8
:102C00008917C8F58091250590912605880F991F91
:102C1000880F991F039720914A0730914B07AEE028
:102C2000B6E044E051E006E0AE31B007D1F06D917E
:102C30006623A1F030E020E0FA01E20FF31F60818B
:102C4000F901E80FF91FEC5FFE4F6083205F3F4FF3
:102C5000211514E0310781F720E430E04F5F5F4F2A
:102C6000E2CF30934B0720934A0780E190E09093A6
:102C70007E0780937D079091CA078091B8078917D6
:102C8000C8F58091250590912605880F991F880F1A
:102C9000991F029720914A0730914B07AEE0B6E0AA
:102CA00044E051E066E0AE31B607D1F06D916623A5
:102CB000A1F030E020E0FA01E20FF31F6081FC0197
:102CC000E20FF31FEC5FFE4F6083205F3F4F211543
:102CD000E4E03E0781F720E430E04F5F5F4FE2CF52
:102CE00030934B0720934A0780E190E090937E0752
:102CF00080937D079091C6078091B4078917C8F526
:102D000020914A0730914B07809125059091260527
:102D1000880F991F880F991F0197AEE0B6E044E035
:102D200051E0F6E0AE31BF07D1F06D916623A1F01E
:102D300030E020E0FA01E20FF31F6081F901E80FB3
:102D4000F91FEC5FFE4F6083205F3F4F211504E0C9
:102D5000300781F720E430E04F5F5F4FE2CF3093E0
:102D60004B0720934A0780E190E090937E07809381
:102D70007D079091CF078091BD078917A8F58091B5
:102D80004A0790914B0740910A0650910B0641501B
:102D90005109AEE0B6E024E031E016E0AE31B10713
:102DA000C9F06D91662399F090E080E0F901E80F99
:102DB000F91F6081FA01E80FF91FEC5FFE4F608395
:102DC0004096811564E0960789F780E490E02F5FD4
:102DD0003F4FE3CF90934B0780934A0780E190E009
:102DE00090937E0780937D079091D5078091C307CC
:102DF0008917A8F580914A0790914B0740910A06E0
:102E000050910B064D5F5F4FAEE0B6E024E031E03D
:102E1000E6E0AE31BE07C9F06D91662399F090E00F
:102E200080E0F901E80FF91F6081FC01E40FF51F54
:102E3000EC5FFE4F608340968115F4E09F0789F7B1
:102E400080E490E02F5F3F4FE3CF90934B07809358
:102E50004A0780E190E090937E0780937D079091F0
:102E6000CD078091BB078917A8F580914A079091FB
:102E70004B0740910A0650910B06495F5F4FAEE049
:102E8000B6E024E031E006E0AE31B007C9F06D9164
:102E9000662399F090E080E0F901E80FF91F608166
:102EA000FA01E80FF91FEC5FFE4F60834096811531
:102EB00014E0910789F780E490E02F5F3F4FE3CF64
:102EC00090934B0780934A0780E190E090937E07B0
:102ED00080937D079091C9078091B707891710F0FB
:102EE0000C94700E80914A0790914B0740910A060E
:102EF00050910B06455F5F4FAEE0B6E024E031E055
:102F000066E0AE31B60729F490934B0780934A07E9
:102F1000A9CB6D91662399F090E080E0F901E80F6C
:102F2000F91F6081FA01E80FF91FEC5FFE4F608323
:102F300040968115E4E09E0789F780E490E02F5FDA
:102F40003F4FDECF109157070E94AC040E947C05D2
:102F50000E942006111102C0B0929A070E94050338
:102F600080E10E9448019C018091DC07882311F4D4
:102F70000C94700E9091CC078091DA0780FF9BC073
:102F800091110DC08091C807811109C08091CA07B5
:102F9000811105C08091C607882309F48FC0009174
:102FA000220610912306AAEFBFEF0E943F1FA20145
:102FB00091010E94C81E2A5F3F4F4F4F5F4F220F63
:102FC000331F2D5A3A4FD9018D919C91801791074B
:102FD0000CF467C00F5F1F4F109323060093220667
:102FE0008091220690912306019711F00C94700EA7
:102FF00081E080939A07809357070E945A0160935B
:103000005307709354078093550790935607809108
:10301000020190910301FC01EE0FFF1FEC5DF94FDF
:1030200020813181232B09F443C0843091050CF0B9
:103030003FC001969093030180930201E091020149
:10304000F0910301EE0FFF1FEE5DF94F808191813A
:103050009C0121503109F901E25EF94F41E04083C2
:10306000E0914007F09141074091250550912605D8
:103070004150510964E0EE0FFF1F6A95E1F7440FDC
:10308000551F440F551FE40FF51FEC5FFE4FE20F75
:10309000F31F208121110C94700E0E94C4030C9424
:1030A000700E81E090E0909323068093220698CFE3
:1030B00081E090E0BFCF91110C94700E8091C80711
:1030C00081110C94700E8091CA0781110C94700EBE
:1030D0008091C60781110C94700E109223061092F5
:1030E000220681E090E090930301809302010C940A
:1030F000700E4F5F5F4F5093D9074093D80727C991
:1031000001969093D9078093D80744C9019690936C
:10311000D9078093D80761C901969093D907809306
:10312000D8077EC90E944605EE24E394E092080584
:1031300010929A070230110509F448C10CF0A8C09A
:103140000115110509F4FFC00130110511F00C94AF
:10315000700E0E94AC040E947C058091580781117A
:10316000E0929A070E94050380E10E9448012091A5
:10317000DC07F090CC07222309F483C02091DA0702
:1031800020FD7FC0F1100DC02091C807211109C09A
:103190002091CA07211105C02091C607222309F4F6
:1031A000F5C000914C0710914D079C01ABEFBFEFAC
:1031B0000E943F1FA20191010E94C81E2B5F3F4F3A
:1031C0004F4F5F4F220F331F2F593A4FF901808124
:1031D00091810197081719070CF0B8C00F5F1F4FB6
:1031E00010934D0700934C07E0910201F091030109
:1031F000EE0FFF1FEE5DF94F608171818091270511
:103200009091280561157105F9F0AC0197FF02C096
:10321000495F5F4FE3E055954795EA95E1F76150C7
:103220007109469F9001479F300D569F300D112424
:103230002F5F3F4F40914C0750914D07240F351F92
:1032400030934F0720934E0720914E0730914F0740
:10325000AC0197FF02C04F5F5F4F559547954217EE
:10326000530754F497FD019695958795281B390BC4
:1032700030934F0720934E0781E080935807809347
:103280009A07FF2009F492C00E9420060C94700E49
:103290000330110509F48FC10430110511F00C94AD
:1032A000700E0E94AC040E947C05E0929A0780E1B7
:1032B0000E9448019C01AAEFBFEF0E943F1FA2019C
:1032C00091010E94C81E2A5F3F4F4F4F5F4F8901F7
:1032D000A2E4B7E0B8A3AF8FF3E0220F331FFA9553
:1032E000E1F790E080E0FC01E20FF31FEB56FA4FAC
:1032F00040814D93019688309105A9F7E5E8CE2EDF
:10330000E5E0DE2EE5E7F5E0FE8FED8F82E497E065
:103310009F01D601F5E0A539BF0709F4C1C2AD9000
:10332000BD90F901419151919F01FC016191CF0143
:10333000F501EE0FFF1FEE0FFF1FEC56F84FE40FE5
:10334000F51F6083E7CF0E941505D7C88091020161
:103350009091030110924D0710924C0721E02093A9
:103360002C06FC01EE0FFF1FEC5DF94F208131812F
:10337000232B49F08430910534F401969093030196
:103380008093020131CF81E090E0F8CF10924F0797
:1033900010924E0710924D0710924C0781E090E07A
:1033A0009093030180930201109258078091C807FF
:1033B00081116ACF8091CA07811166CF8091C607BB
:1033C000811162CF81E080939A075ECF0E94AC04A6
:1033D0000E947C0580910705882369F180914A0746
:1033E00090914B072091250530912605220F331F20
:1033F000220F331F20503F4F4DE256E0F7E04D3291
:103400005F0799F090E080E0FA01E80FF91FD90119
:10341000A80FB91F6C916083019684309105A1F7C4
:10342000205F3F4F4C5F5F4FE9CF90934B078093F6
:103430004A071092070510927E0710927D0780912F
:103440007D0790917E07843091050CF01DCF9C0183
:10345000220F331FF901E359FA4F0190F081E02D5B
:1034600023523A4FD9012D913C91EE0FFF1FDF01FE
:10347000AA53B84FA20FB31FEC54F84FE20FF31F3B
:103480003C912081231708F089C0E0902705F09037
:1034900028055701F7FE03C0B7E0AB0EB11CF3E0FF
:1034A000B594A794FA95E1F78A9D80018B9D100D44
:1034B0009A9D100D11248091DA079091DB076C0121
:1034C000E2E0CE1AD108D7FE04C06C01F1E0CF1AB9
:1034D000D108D594C7942FEFC21AD20AF7FE03C0C1
:1034E0003FEFE31AF30AF594E794CE14DF0411F4E6
:1034F000D12CC12C000F111F000F111F035D194F9C
:10350000D8018C91898311968C9111978A83129698
:103510008C9112978B8313968C918C83CE0101969C
:103520000E942004209138073091390780912505A9
:10353000909126050197880F991F880F991FA60162
:1035400064E0440F551F6A95E1F7840F951F8C5F67
:103550009E4F50E040E04A155B05C4F430E020E0A7
:10356000FC01E20FF31FD801A20FB31F6C9160831F
:103570002F5F3F4F2430310599F70C5F1F4F409666
:10358000BA016C0D7D1DE616F70691F450934B07BA
:1035900040934A07309339072093380780917D077D
:1035A00090917E07019690937E0780937D0747CF89
:1035B0004F5F5F4FD0CF0E94AC040E947C05E09229
:1035C0009A0780910605882349F080E10E9448010E
:1035D00090939307809392071092060500919207AB
:1035E0001091930780E10E944801F801E81BF90B54
:1035F0001E161F060CF0DFC080E10E944801081B68
:10360000190B063011050CF0DEC08091910788235C
:1036100009F4DDC080E10E9448018C019C01A6EF05
:10362000BFEF0E943F1FA20191010E94C81E265FAA
:103630003F4F4F4F5F4F309332072093310725E8BC
:1036400035E0A5E7B5E090E080E04FEF53E0401BA8
:10365000510BF901019111919F016D917D91F8013B
:10366000EE0FFF1FEE0FFF1FEC56F84FE60FF71F90
:1036700061E0841795070CF060E0608381589F4FEC
:10368000883FF3E09F0729F788E090E090937E075A
:1036900080937D0780914007909141076091950844
:1036A000709196080E942B1F709305056093040586
:1036B00080913707DB01AA0FBB1FFD01EB57FA4FC3
:1036C0000190F081E02DAB58BA4FEE0FFF1FEE0FC7
:1036D000FF1FEC56F84F2D913C91E20FF31F8083B2
:1036E0004091E2075091E3076091E4077091E5078C
:1036F0000091330710913407209135073091360738
:103700004A015B01801A910AA20AB30A9501840159
:10371000013A16482140310560F091E089278093F5
:1037200037074093330750933407609335077093FE
:1037300036079091CC078091BA07891730F48091B1
:103740002D0791E0892780932D079091C8078091DC
:10375000B607891730F480912E0791E0892780936E
:103760002E079091CA078091B807891730F480918D
:103770002F0791E0892780932F079091C6078091AA
:10378000B407891730F48091300791E0892780933E
:10379000300780912D078093A20780912E07809398
:1037A000960780912F0780939E0780913007809322
:1037B000B2070C94700E80E10E944801801B910BAF
:1037C00006970CF422CF81E0809391071ECF2091C1
:1037D000310730913207032E000C440B550B2A5051
:1037E000310941095109AFEFB3E00E94E71E26EF0E
:1037F0003FEF4FEF5FEF0E94C81ED201C101821B55
:10380000930BA40BB50B21E0181619061A061B061C
:103810000CF020E02093B30721E080389105A1054A
:10382000B1050CF420E02093970721E08F3F91052C
:10383000A105B1050CF420E020939B0721E08E3711
:1038400001E09007A105B1050CF420E020939F074B
:1038500021E08D3F11E09107A105B1050CF420E0B6
:103860002093A30721E08C3732E09307A105B1052F
:103870000CF420E02093A70721E08B3F42E094075F
:10388000A105B1050CF420E02093AB0721E08A37B5
:103890009340A105B1050CF420E02093AF07F4CECE
:1038A00088E090E090937E0780937D0780914007A9
:1038B0009091410760919508709196080E942B1F86
:1038C000709305056093040580913E0790913F0732
:1038D0006817790709F455C00E945A1E27E030E0A6
:1038E00040E050E00E94C81EAB01BC014F5F5F4F3B
:1038F0006F4F7F4FCA0150933D0740933C072EE026
:10390000EDE2F5E0DE01119601900D922A95E1F7C6
:1039100010927E0710927D07FE0131969E01235F73
:103920003F4FE217F30779F04081518184179507E3
:1039300011F0FF2031F04281538151834083FF24F5
:10394000F3943296EECF86E090E090937E078093DA
:103950007D070E945A1E26E030E040E050E00E94C1
:10396000C81E660F771F88248394912C8C0E9D1E91
:10397000680D791DDB018D919C9190933B0780939D
:103980003A07809004059090050590923F07809239
:103990003E070630110509F06CC0E0913C07F0913C
:1039A0003D07EE5BF84F81E08083E0913A07F091AC
:1039B0003B07EE5BF84F80838091270590912805A7
:1039C00097FD019695958795B0914A07B9A3E09127
:1039D0004B07EDA3409138075091390760912505B9
:1039E00070912605660F771F660F771F0DE6E02E94
:1039F00005E0F02E0DED15E01C8F0B8FF0E0E0E000
:103A000060507F4FD7012D913D917D01AB8DBC8DD5
:103A1000AD90BD90BC8FAB8F220F331F89010A532D
:103A2000184F0A0D1B1D2C54384F2A0D3B1DD80171
:103A30001C91D9012C91211788F55B01AE0EBF1E98
:103A400030E020E050E040E0281739070CF58A010B
:103A50000E5B184FD8011C91D5011C9347305105BE
:103A6000A4F44F5F5F4F2F5F3F4FB0E1AB0EB11C2F
:103A7000EBCF0530110509F09FCFE0913C07F091A5
:103A80003D07EE5BF84F81E096CF50E040E0EBCF92
:103A900089A39DA397FF02C019A21DA23196E4300D
:103AA000F10509F0AFCFE9A1E0934A07FDA1F0933A
:103AB0004B07509339074093380705E9C01605E0D6
:103AC000D006C9F0D601ED91FD916D01AD8DBE8D91
:103AD0008D919D91BE8FAD8FAF8DB8A12D91B8A363
:103AE000AF8FEE0FFF1FEE0FFF1FEC56F84FE80FE2
:103AF000F91F2083E2CF88E090E090937E078093C7
:103B00007D0780913707D401AA0FBB1FFD01EB573A
:103B1000FA4F0190F081E02DAB58BA4FEE0FFF1F26
:103B2000EE0FFF1FEC56F84F2D913C91E20FF31F63
:103B300080834091E2075091E3076091E407709120
:103B4000E507009133071091340720913507309134
:103B500036074A015B01801A910AA20AB30A95014D
:103B60008401013A16482140310510F40C94700E7E
:103B700091E08927809337074093330750933407A8
:103B800060933507709336070C94700E10925207AD
:103B900010925107E1110C94BF0F10925007E111E0
:103BA0000C94C80F20918F08309190082130310576
:103BB00011F00C94C80F0C94D20F409193085091BF
:103BC000940820912505309126054217530711F0DE
:103BD0000C94DB0F0C94E00F90934B0780934A07F3
:103BE00089E090E090937E0780937D078091250582
:103BF00090912605909394088093930880E090E03C
:103C0000892B11F40C941D0A0E94E901882311F4F8
:103C10000C94150A0E9400000C94150A8F929F9232
:103C2000AF92BF92CF92DF92EF92FF92CF93DF934A
:103C3000EC01688179818A819B816115710581051B
:103C4000910521F464E279ED8BE597E02DE133EF06
:103C500041E050E00E94C81E49015A019B01AC019D
:103C6000A7EAB1E40E94E71E6B017C01ACEEB4EF61
:103C7000A50194010E94F51EC60ED71EE81EF91E6E
:103C8000F7FE06C081E0C81AD108E10880E8F80A0A
:103C9000C882D982EA82FB82C701B6019F77DF9191
:103CA000CF91FF90EF90DF90CF90BF90AF909F901B
:103CB0008F9008958F929F92AF92BF92CF92DF9292
:103CC000EF92FF926091290570912A0580912B0552
:103CD00090912C05611571058105910521F464E22F
:103CE00079ED8BE597E02DE133EF41E050E00E9464
:103CF000C81E49015A019B01AC01A7EAB1E40E9428
:103D0000E71E6B017C01ACEEB4EFA50194010E94AB
:103D1000F51EC60ED71EE81EF91EF7FE06C081E08E
:103D2000C81AD108E10880E8F80AC0922905D092A3
:103D30002A05E0922B05F0922C05C701B6019F776A
:103D4000FF90EF90DF90CF90BF90AF909F908F90BB
:103D500008956093290570932A0580932B0590930D
:103D60002C050895F999FECF92BD81BDF89A992747
:103D700080B50895262FF999FECF1FBA92BD81BD57
:103D800020BD0FB6F894FA9AF99A0FBE01960895DD
:103D9000052E97FB1EF400940E94DF1E57FD07D0EE
:103DA0000E94FA1E07FC03D04EF40C94DF1E5095BF
:103DB0004095309521953F4F4F4F5F4F0895909517
:103DC0008095709561957F4F8F4F9F4F08950E940A
:103DD0001C1FA59F900DB49F900DA49F800D911D59
:103DE00011240895B7FF0C94E71E0E94E71E821B62
:103DF000930B0895A1E21A2EAA1BBB1BFD010DC057
:103E0000AA1FBB1FEE1FFF1FA217B307E407F5078A
:103E100020F0A21BB30BE40BF50B661F771F881F66
:103E2000991F1A9469F760957095809590959B01FC
:103E3000AC01BD01CF010895A29FB001B39FC001A5
:103E4000A39F700D811D1124911DB29F700D811DC6
:103E50001124911D089597FB072E16F4009407D0A6
:103E600077FD09D00E944E1F07FC05D03EF49095C7
:103E700081959F4F0895709561957F4F08950E9499
:103E80001C1F332312F48A1B9B0B0C94491F0E94A6
:103E90001C1FB7FF0895821B930B0895AA1BBB1B21
:103EA00051E107C0AA1FBB1FA617B70710F0A61B3A
:103EB000B70B881F991F5A95A9F780959095BC015B
:103EC000CD010895EE0FFF1F0590F491E02D0994A8
:043ED000F894FFCF94
:103ED40001000100010000010100000001000000D8
:103EE40001000101000000000000000000000100CA
:103EF40000000000000001000000000001000000BC
:103F040001000100000000000100000000000100A9
:103F14000000000001010000000000000101000198
:103F2400010001000000000000000000000000008B
:103F34000000000000000100010001000001000079
:103F4400000001000000000000000100000100006A
:103F54000000000001000000010100000100000059
:103F6400010001010000000000000000000000004A
:103F7400000000000000010000000000000000003C
:103F8400000001000000000001000000010000002A
:103F9400000000000101000000000000000000001B
:103FA400010001000000000000000000010000000A
:103FB40000000000000001000100000001000000FA
:103FC40000000100000000000000000000000000EC
:103FD40001000000010000000100000101000000D8
:103FE40001000001000000000000000001000000CA
:103FF40000000000000001000000000000000000BC
:1040040000000000000000000100000000000100AA
:104014000000000001010000000000000100000099
:10402400010000000000000000000000010000008A
:104034000000000000000100010001000000000079
:10404400000000000000000000000100000100006A
:104054000000000001000000010000000100000059
:104064000100010100000000000000000100000048
:10407400000000000000010000000000000000003B
:104084000100010000000000010000000000010028
:104094000000000001010000000000000100000019
:1040A4000001010100000000000000000000010008
:1040B40000000000010001000100000000000101F7
:1040C40000000100000000000100000001000000E9
:1040D40001000000000000000000000000000000DB
:1040E40000000000000000000000000000000000CC
:1040F40000000000000000000000000000000000BC
:1041040000000000000000000000000000000000AB
:10411400000000000000000000000000000000009B
:10412400000000000000000000000000000000008B
:10413400000000000000000000000000000000007B
:10414400000000000000000000000000000000006B
:10415400000000000000000000000000000000005B
:10416400000000000000000000000000000000004B
:10417400000000000000000000000000000000003B
:10418400000000000000000000000000000000002B
:10419400000000000000000000000000000000001B
:1041A400000000000000000000000000000000000B
:1041B40000000000000000000000000000000000FB
:1041C40000000000000000000000000000000000EB
:1041D40000000000000000000000000000000000DB
:1041E40000000000000000000000000000000000CB
:1041F40000000000000000000000000000000000BB
:1042040000000000000000000000000000000000AA
:10421400000000000000000000000000000000009A
:10422400000000000000000000000000000000008A
:10423400000000000000000000000000000000007A
:10424400000000000000000000000000000000006A
:10425400000000000000000000000000000000005A
:10426400000000000000000000000000000000004A
:10427400000000000000000000000000000000003A
:10428400000000000000000000000000000000002A
:10429400000000000000000000000000000000001A
:1042A400000000000000000000000000000000000A
:1042B40000000000000000000000000000000000FA
:1042C40000000000000000000000000000000000EA
:1042D40000000000010001010102000000010001D2
:1042E40000010001000100010001000100010001C2
:1042F4000050C30000010040000100000001000262
:10430400000300040005000600070002000100018C
:10431400000100050006000400010006000500037A
:104324000002000000010002000300050007000F66
:104334000001000200030004000800100003000153
:104344000002000000030003000300030003000355
:104354000003000300070000000100020003000442
:104364000005000600010101010101010101000134
:104374000001000100010000000100000001000034
:104384000000000000000000000000000001000028
:104394000000000000010000000000000002000214
:1043A40000020002000300000002000700000000F9
:1043B40000000000000600030001000000000000EF
:1043C400001F027F01AC016C02DD01BB01CF0100C3
:00000001FF
