:100000000C9462000C948A000C948A000C948A0070
:100010000C948A000C948A000C948A000C948A0038
:100020000C948A000C948A000C948A000C948A0028
:100030000C948A000C948A000C948A000C948A0018
:100040000C9452070C948A000C94C2070C949C07E1
:100050000C948A000C948A000C948A000C948A00F8
:100060000C948A000C948A000000000024002700F1
:100070002A0000000000250028002B0000000000DE
:1000800023002600290004040404040404040202DA
:100090000202020203030303030301020408102007
:1000A0004080010204081020010204081020000012
:1000B0000008000201000003040700000000000027
:1000C0000000F40711241FBECFEFD8E0DEBFCDBF84
:1000D00016E0A0E0B1E0E6E9F0E402C005900D9280
:1000E000A031B107D9F728E0A0E1B6E001C01D9228
:1000F000A73AB207E1F710E0C2E6D0E004C02197CA
:10010000FE010E944320C136D107C9F70E945A0858
:100110000C9449200C940000833081F028F4813045
:1001200099F08230A9F008958730A9F08830C9F09D
:100130008430B1F4809180008F7D03C08091800075
:100140008F7780938000089584B58F7784BD08955C
:1001500084B58F7DFBCF8091B0008F778093B00006
:1001600008958091B0008F7DF9CFCF93DF93282F32
:1001700030E0F901E255FF4F8491F901E656FF4F57
:10018000D491F901EA57FF4FC491CC23A1F081111A
:100190000E948C00EC2FF0E0EE0FFF1FE458FF4FA1
:1001A000A591B491EC91ED2381E090E009F480E019
:1001B000DF91CF91089580E090E0FACF1F93CF9325
:1001C000DF93282F30E0F901E255FF4F8491F901C8
:1001D000E656FF4FD491F901EA57FF4FC491CC2363
:1001E000A9F0162F81110E948C00EC2FF0E0EE0F89
:1001F000FF1FEE58FF4FA591B4918FB7F894EC9183
:10020000111108C0D095DE23DC938FBFDF91CF9111
:100210001F910895DE2BF8CFCF93DF9390E0FC0180
:10022000E656FF4F24918A579F4FFC018491882303
:10023000C9F090E0880F991FFC01E859FF4FA59184
:10024000B491FC01EE58FF4FC591D49161110DC0DE
:100250009FB7F8948C91209582238C9388812823D2
:1002600028839FBFDF91CF910895623051F49FB7EB
:10027000F8943C91822F809583238C93E8812E2BD8
:10028000EFCF8FB7F894EC912E2B2C938FBFEACF42
:100290008E50806480937C0080917A00806480938B
:1002A0007A0080917A0086FDFCCF80917800909151
:1002B000790008953FB7F8948091FC079091FD076D
:1002C000A091FE07B091FF0726B5A89B05C02F3F60
:1002D00019F00196A11DB11D3FBFBA2FA92F982F6C
:1002E0008827BC01CD01620F711D811D911D42E067
:1002F000660F771F881F991F4A95D1F70895AF920F
:10030000BF92CF92DF92EF92FF920F931F93CF9302
:10031000DF936C017B018B01040F151FEB015E0164
:10032000AE18BF08C017D10759F06991D601ED91F9
:10033000FC910190F081E02DC6010995892B79F798
:10034000C501DF91CF911F910F91FF90EF90DF904A
:10035000CF90BF90AF900895FC01538D448D252F11
:1003600030E0842F90E0821B930B541710F0CF964F
:10037000089501970895FC01918D828D981761F081
:10038000A28DAE0FBF2FB11D5D968C91928D9F5F98
:100390009F73928F90E008958FEF9FEF0895FC0177
:1003A000918D828D981731F0828DE80FF11D858D2A
:1003B00090E008958FEF9FEF0895FC01918D228DBD
:1003C000892F90E0805C9F4F821B91098F73992742
:1003D000089580E098E00E94DD0121E0892B09F476
:1003E00020E0822F089580E090E0892B29F00E9480
:1003F000E90181110C9400000895FC01A48DA80F5F
:10040000B92FB11DA35ABF4F2C91848D90E0019656
:100410008F739927848FA689B7892C93A089B18976
:100420008C91837080648C93938D848D981306C017
:100430000288F389E02D80818F7D80830895EF927B
:10044000FF920F931F93CF93DF93EC0181E0888F8E
:100450009B8D8C8D98131AC0E889F989808185FF5E
:1004600015C09FB7F894EE89FF896083E889F98900
:1004700080818370806480839FBF81E090E0DF9102
:10048000CF911F910F91FF90EF900895F62E0B8D55
:1004900010E00F5F1F4F0F731127E02E8C8D8E1110
:1004A0000CC00FB607FCFACFE889F989808185FF77
:1004B000F5CFCE010E94FD01F1CFEB8DEC0FFD2FAA
:1004C000F11DE35AFF4FF0829FB7F8940B8FEA8932
:1004D000FB8980818062CFCFCF93DF93EC01888D41
:1004E0008823B9F0AA89BB89E889F9898C9185FDAF
:1004F00003C0808186FD0DC00FB607FCF7CF8C913D
:1005000085FFF2CF808185FFEDCFCE010E94FD01F6
:10051000E9CFDF91CF9108950F931F93CF93DF938E
:1005200060E088E00E94DE0061E088E00E94DE007A
:100530001092D5071092D407C091D407D091D50757
:10054000C830D1050CF042C082E00E94B5008E0197
:10055000000F111FF801EA52F84F21E0892B09F032
:1005600020E0208389E00E94B500F801EA52F84FAC
:1005700021E0892B09F020E021838E01000F111F5B
:10058000000F111F0E55184FF801608186E00E9480
:10059000DE00F80161818EE00E94DE00F8016281D8
:1005A0008AE00E94DE00F801638181E10E94DE00A2
:1005B00061E083E10E94DE0060E083E10E94DE00F2
:1005C0002196D093D507C093D407B6CF61E082E1DE
:1005D0000E94DE0060E082E10E94DE008FE00E9467
:1005E000B50021E0892B09F020E02093E60787E0A1
:1005F0000E94B50021E0892B09F020E02093E70755
:10060000DF91CF911F910F910895CF92DF92EF92DA
:10061000FF920F931F93CF93DF9320915A0730914E
:100620005B07F5EFCF2EF5E0DF2EC5EDD5E07E01BF
:10063000860141E050E0D8018D919D918D01F70137
:10064000A191B1917F01880F991FBC016A52784F27
:100650006A0F7B1F8E53984FA80FB91FFB01908123
:100660008C918917A0F4E4E3F6E090E080E09C012F
:100670008430910561F0619171910196672BB9F712
:10068000F901EE0FFF1FEC5CF94F518340834F5F80
:100690005F4F4530510579F641E050E0D6018D912C
:1006A0009D916D01E991F991880F991FBC016A52E2
:1006B000784F6E0F7F1F8E53984FDF01A80FB91F21
:1006C000FB0190818C91981798F4E4E3F6E026E022
:1006D000EC33F20759F08191919184179507B9F79E
:1006E000CF010297DC011D921C92F1CF24E030E093
:1006F0004F5F5F4F4530510589F630935B0720937C
:100700005A07A4E3B6E090E080E0E6E0AC33BE0731
:1007100091F424E030E03093D5072093D407FC0116
:10072000EE0FFF1FEC5CF94F8430910594F40196B5
:1007300011921192F9CF2D913D912115310529F397
:10074000FC01EE0FFF1FEC5CF94F31832083019613
:10075000DCCF9093110680931006DF91CF911F910B
:100760000F91FF90EF90DF90CF90089581E08093FC
:10077000B6070E945A016093690770936A078093D5
:100780006B0790936C070895EF92FF920F931F935E
:10079000CF93DF93EC012197FE01E357F84FE08000
:1007A0008E01000F111FF801E352FA4F0190F08102
:1007B000E02DD801AB52BA4FEE0FFF1FEE0FFF1F17
:1007C000EE55F84F8D919C91E80FF91FFF24F3949B
:1007D0008E2D8F2580830E945A01FE01EE0FFF1F90
:1007E000EE0FFF1FE758F84F608371838283938376
:1007F000FE01E757F84FF082809108058823C9F081
:10080000E11017C0F801E353FA4F0190F081E02D99
:10081000D801AB53BA4FEE0FFF1FEE0FFF1FEE557F
:10082000F84F8D919C91E80FF91FF082CB58D84F6B
:10083000F882DF91CF911F910F91FF90EF90089573
:10084000CF92DF92EF92FF920F931F93CF93DF939C
:100850008C011092D5071092D4078DED95E025ED0F
:1008600035E0CDE8D7E0A801DE01EE24E39465E0B1
:10087000853E9607D9F0FA01F190AF01FF2011F003
:10088000FC90FE24FC01C190D190CF01F90161914F
:1008900071919F01F601EE0FFF1FEE0FFF1FEE5546
:1008A000F84FE60FF71FF0821196E1CF0E945A0130
:1008B0001092D5071092D40750910805A9E7B7E028
:1008C000F12CE12C2991211132C06D937D938D93F0
:1008D0009C9313976801CE0CDF1CF60140819701B1
:1008E0002757384FF9014083552309F1F60140811C
:1008F0009701220F331FF901E353FA4F0190F08162
:10090000E02D2B533A4F6F01CC0CDD1CCC0CDD1CC1
:10091000F601EE55F84F6F01F90120813181F601A2
:10092000E20FF31F4083F701EB58F84F4083FFEFCE
:10093000EF1AFF0A149624E0E216F10419F6F09279
:10094000D507E092D407DF91CF911F910F91FF90CF
:10095000EF90DF90CF9008958091DF078823B1F06A
:100960008091CB07811112C081E090E09093260521
:10097000809325059093100580930F051092E90749
:100980001092E8071092200510921F058091E5074C
:100990008823B1F08091D107811112C082E090E0EC
:1009A00090932605809325059093100580930F055D
:1009B0001092E9071092E8071092200510921F0587
:1009C0008091DD078823B1F08091C907811112C0A1
:1009D00083E090E090932605809325059093100581
:1009E00080930F051092E9071092E80710922005F6
:1009F00010921F058091D9078823B1F08091C50717
:100A0000811112C084E090E0909326058093250523
:100A10009093100580930F051092E9071092E80754
:100A20001092200510921F0508958091DC078823FD
:100A300041F08091C807811104C081E090E00E94DC
:100A4000C4038091D807882341F08091C4078111A5
:100A500004C082E090E00E94C4038091DA078823FA
:100A600041F08091C607811104C083E090E00E94AC
:100A7000C4038091D607882341F08091C207811179
:100A800004C084E090E00C94C40308951092BC0765
:100A90001092B7071092AF071092AB0720919F08F2
:100AA0003091A008C901019784309105C0F4880FE6
:100AB000991FFC01E55CFA4F0190F081E02D8F5AFF
:100AC0009A4FEE0FFF1FEE0FFF1FEE55F84FDC01A0
:100AD0008D919C91E80FF91F81E080830895253066
:100AE000310549F481E08093BC078093B707809378
:100AF000AF078093AB0708950F931F931092B80729
:100B00001092BB071092B3071092A70720912505FA
:100B100030912605C9010197880F991FFC01E75AFA
:100B2000FA4F0190F081E02D8F5A9A4FEE0FFF1F80
:100B3000EE0FFF1FEE55F84FDC018D919C91E80FF1
:100B4000F91F81E0808380911F05909120054091DD
:100B5000E8075091E90741505109841795070CF0B7
:100B600047C0880F991FFC01EF5EFA4F8081918189
:100B70009093010180930001809100019091010107
:100B80002817390791F181309105B9F58091470710
:100B90008093B8074091F2075091F3076091F407F2
:100BA0007091F5078091430790914407A091450704
:100BB000B09146078A019B01081B190B2A0B3B0BBE
:100BC000D901C801813A9648A140B10570F08091E1
:100BD000470791E089278093470740934307509345
:100BE000440760934507709346071F910F9108953E
:100BF00080910F0590911005BBCF8230910529F4AB
:100C0000809147078093BB07C5CF8330910529F4B6
:100C1000809147078093B307BDCF049709F0BACFFF
:100C2000809147078093A707B5CFE2EAF7E0178ED8
:100C30001382178213861786138A178A138E0895D4
:100C40008091EC07882339F10E94150680915007A6
:100C5000909151076091A5087091A6080E940C2000
:100C60007093050560930405660F771FFB01E35839
:100C7000FA4F0190F081E02D63597A4FEE0FFF1F7C
:100C8000EE0FFF1FEE55F84FDB018D919C91E80FA1
:100C9000F91F81E0808308950C949B1F60912505C6
:100CA00090E080E00E944C061092D5071092D40785
:100CB0008091D4079091D507883091059CF4FC0170
:100CC000EE0FFF1FE15FFA4F608101960E944C0614
:100CD0008091D4079091D50701969093D507809382
:100CE000D407E6CF6091E80789E090E00E944C06C7
:100CF000609109058AE090E00E944C06609127050A
:100D00008BE090E00E944C0660910B058CE090E037
:100D10000E944C0660910D058DE090E00E944C060B
:100D200060918E07660F80918F0724E0829FC0013B
:100D30001124682B80918D07682B8091900778E0B3
:100D4000879FC0011124682B8EE090E00E944C0622
:100D500060913E07660F80913F0724E0829FC001AB
:100D60001124682B80913D07682B8091400778E023
:100D7000879FC0011124682B8FE090E00E944C06F1
:100D80006091410780E190E00E944C06609121054E
:100D900081E190E00E944C0660912105709122054E
:100DA0008091230590912405672F782F892F99270B
:100DB00082E190E00E944C0660912105709122052D
:100DC0008091230590912405BC018827992783E110
:100DD00090E00E944C06609121057091220580915F
:100DE000230590912405692F77278827992784E187
:100DF00090E00E944C061092D5071092D407809183
:100E0000D4079091D50704970CF049C010925B0766
:100E100010925A0780915A0790915B072091D4074E
:100E20003091D507803491059CF5A901440F551FD9
:100E3000440F551FFC0174E0EE0FFF1F7A95E1F798
:100E4000EC5FFE4FE40FF51F6181660F428174E095
:100E5000479FA0011124642B4081642B438178E0DB
:100E6000479FA0011124642B9E5FE6E0220F331FF1
:100E7000EA95E1F7820F931F0E944C0680915A0772
:100E800090915B07019690935B0780935A07C2CFBE
:100E90002F5F3F4F3093D5072093D407B0CF0895ED
:100EA0000C94931F1F920F920FB60F9211242F9341
:100EB0003F938F939F93AF93BF938091F807909147
:100EC000F907A091FA07B091FB073091F70723E0EB
:100ED000230F2D3758F50196A11DB11D2093F7075B
:100EE0008093F8079093F907A093FA07B093FB0754
:100EF0008091FC079091FD07A091FE07B091FF073C
:100F00000196A11DB11D8093FC079093FD07A0934E
:100F1000FE07B093FF07BF91AF919F918F913F91D3
:100F20002F910F900FBE0F901F90189526E8230F5A
:100F30000296A11DB11DD2CF1F920F920FB60F9234
:100F400011242F933F934F935F936F937F938F93CE
:100F50009F93AF93BF93EF93FF9380E098E00E943D
:100F6000FD01FF91EF91BF91AF919F918F917F9183
:100F70006F915F914F913F912F910F900FBE0F9006
:100F80001F9018951F920F920FB60F9211242F9356
:100F90008F939F93EF93FF93E0911008F0911108C6
:100FA0008081E0911608F091170882FD1BC09081A6
:100FB000809119088F5F8F7320911A08821741F072
:100FC000E0911908F0E0E050F84F958F80931908F0
:100FD000FF91EF919F918F912F910F900FBE0F90E6
:100FE0001F9018958081F4CF109203081092020888
:100FF00088EE93E0A0E0B0E08093040890930508A9
:10100000A0930608B093070881E096E0909301084A
:101010008093000885EC90E090930D0880930C0875
:1010200084EC90E090930F0880930E0880EC90E0A1
:10103000909311088093100881EC90E0909313082E
:101040008093120882EC90E0909315088093140826
:1010500086EC90E090931708809316081092190878
:1010600010921A0810921B0810921C0880912705F4
:101070009091280597FD0F9624E0959587952A95E0
:10108000E1F79093A6088093A5088091250590919B
:1010900026059093A4088093A3088091A2088093CA
:1010A000A10880919F089091A00890939E0880933A
:1010B0009D080895CF93DF93CDB7DEB76F970FB636
:1010C000F894DEBF0FBECDBF789484B5826084BD36
:1010D00084B5816084BD85B5826085BD85B581603C
:1010E00085BD80916E00816080936E0010928100BA
:1010F0008091810082608093810080918100816075
:101100008093810080918000816080938000809135
:10111000B10084608093B1008091B00081608093C1
:10112000B00080917A00846080937A0080917A0088
:10113000826080937A0080917A00816080937A0047
:1011400080917A00806880937A001092C100E091CB
:101150001008F091110882E08083E0910C08F09172
:101160000D081082E0910E08F0910F088FEC80833B
:1011700010921808E0911408F091150886E0808319
:10118000E0911208F0911308808180618083E091E2
:101190001208F0911308808188608083E091120822
:1011A000F0911308808180688083E0911208F091AB
:1011B000130880818F7D808384E10E944801BC01F7
:1011C000990F880B990B611571058105910511F037
:1011D0000E948A1F61E088E00E940C0161E082E1C8
:1011E0000E940C0161E083E10E940C0160E082E05A
:1011F0000E940C0160E089E00E940C0161E086E041
:101200000E940C0161E08EE00E940C0161E08AE026
:101210000E940C0161E081E10E940C0160E084E029
:101220000E940C0162E08FE00E940C0160E087E008
:101230000E940C0160E083E00E940C010E948C027D
:101240008091E1078823F9F08091E00781110E94E5
:101250004E0611E08091E1078823A9F01092C107A2
:101260001092A5071092A9071092AD071092B1072E
:101270001092B5071093B9071092BD070E948C0217
:101280000E941506E7CF90E080E00E94500790E0B2
:1012900090932605809325051092D5071092D407C8
:1012A0000091D4071091D50708301105A4F47801F6
:1012B0002FEFE21AF20AC7010E945007000F111F18
:1012C000F801E15FFA4F90E091838083F092D507B7
:1012D000E092D407E5CF89E090E00E94500790E0CB
:1012E0009093E9078093E8078AE090E00E94500716
:1012F00090E090930A05809309058BE090E00E94AE
:10130000500790E09093280580932705E4E0959599
:101310008795EA95E1F79093A6088093A5088CE05D
:1013200090E00E94500790E090930C0580930B058D
:101330008DE090E00E94500790E090930E0580931E
:101340000D058EE090E00E945007282F8170809359
:101350008D0721FB882780F980938E0722FB882741
:1013600080F980938F0723FB222720F92093900791
:1013700084E090E09093D5078093D4078FE090E0CD
:101380000E945007282F817080933D0721FB8827FA
:1013900080F980933E0722FB882780F980933F07DE
:1013A00023FB222720F92093400780E190E00E9450
:1013B000500790E0909342078093410710922105D7
:1013C00010922205109223051092240581E190E0ED
:1013D0000E945007C82ED12CF12CE12CC09221057F
:1013E000D0922205E0922305F092240582E190E05C
:1013F0000E945007D82AC0922105D0922205E0927F
:101400002305F092240583E190E00E945007E82A2A
:10141000C0922105D0922205E0922305F092240586
:1014200084E190E00E945007F82AC0922105D092F2
:101430002205E0922305F09224051092D507109220
:10144000D4070091D4071091D5070430110514F08A
:101450000C946F1E10925B0710925A07480166E0C9
:10146000880C991C6A95E1F76801CC0CDD1CCC0C4A
:10147000DD1C56013FEFA31AB30A360142E0640EA9
:10148000711C260153E0450E511CE0905A07F09064
:101490005B0760E4E616F1048CF5C7019E5F880DDA
:1014A000991D0E945007482F970154E0220F331FC7
:1014B0005A95E1F72C5F3E4FF901EC0DFD1D81704F
:1014C0008083F901EA0DFB1D41FB882780F98083A9
:1014D000F901E60DF71D42FB882780F98083240D72
:1014E000351D43FB442740F9D9014C93BFEFEB1A5C
:1014F000FB0AF0925B07E0925A07C7CF0F5F1F4FBE
:101500001093D5070093D4079CCF8091F207909158
:10151000F307A091F407B091F5074091EE075091C1
:10152000EF076091F0077091F107841B950BA60BF4
:10153000B70B4091210550912205609123057091D0
:10154000240584179507A607B70728F481E0809340
:10155000F6070C94891E1092F6070E945A016093B8
:10156000EE077093EF078093F0079093F1070C94C8
:10157000891E81E090E09093EB078093EA078091C9
:101580001F05909120052091E8073091E90721502F
:10159000310982179307ACF401969093200580934C
:1015A0001F05E0911F05F0912005EE0FFF1FE15F81
:1015B000FA4F8081918190932605809325050C94A4
:1015C000A91E1092200510921F05EBCF212F302F5E
:1015D00037FF02C02F5F3F4F359527950C94CE1EE5
:1015E0008901015011091093190600931806241758
:1015F000350709F0CFC0109217061092160644E086
:10160000220F331F4A95E1F72C5F3E4FA901480F87
:10161000591FDA014C914D8BA9014E0F5F1FDA0162
:101620004C914E8BA901460F571FDA014C914F8BFD
:101630002E0D3F1DD9012C91288F20911806309135
:10164000190654E0220F331F5A95E1F72C5F3E4FE5
:10165000A901480F591FDA014C91498BA9014E0F7E
:101660005F1FDA014C914A8BA901460F571FDA011F
:101670004C914B8B2E0D3F1DD9012C912C8B209121
:10168000160630911706A4E0220F331FAA95E1F742
:101690002C5F3E4F820F931FDC018C918983E20FF8
:1016A000F31F80818A83620F731FFB0180818B830C
:1016B000D701A20FB31F8C918C831092D507109283
:1016C000D407FF24F394E091D407F091D507E430D8
:1016D000F1050CF064C0A1E1B0E0AC0FBD1FAE0F8E
:1016E000BF1F8C91811107C0A1E0B0E0AC0FBD1FFE
:1016F000AE0FBF1F8C91DF01AE5EB94F8C93E35CE0
:10170000F84F80818823E1F18091A208811138C0CF
:1017100080915E0790915F07892B91F50E943B1F96
:101720000091D4071091D50724E630E040E050E066
:101730000E94A91F4B015C01FFEF8F1A9F0AAF0A9D
:10174000BF0AF801EE5EF94F808190E0880F991F83
:1017500001964091410750914207849F9001859FD7
:10176000300D949F300D1124821693064CF4E5E160
:10177000F0E0EC0FFD1FE00FF11F80818F258083CB
:101780008091D4079091D50701969093D5078093C7
:10179000D40799CFA9014F5F5F4F0C94E91E2091A8
:1017A000EA073091EB0781E190E0821B930B609197
:1017B000090570910A05660F771F0E940C20892B7E
:1017C00079F481E08093B2078093B4070E945A01B4
:1017D00060937107709372078093730790937407F7
:1017E000CE0145960E94200480919E0790913C0670
:1017F000992309F46AC081116BC00E94B60310924C
:101800003C068091F6078093ED075091E007552341
:1018100009F4E0C0A090EA07B090EB07C0901F0564
:10182000D090200510910F050091100540912505DD
:101830003091260520919E07EDEEF5E085EE482ECD
:1018400085E0582E95EF692E95E0792E65ED862E70
:1018500065E0962EB5E0E53FFB0709F4A7C0D3018C
:101860008D919D913D01D401ED90FD904D01880F2A
:10187000991FBC016A52784F6E0D7F1D8E53984F91
:101880008E0D9F1DDB016C91DC018C91861708F495
:1018900085C080819181D201ED90FC90880F991FC5
:1018A000BC016A52784F6E0D7F1D8E53984F8E0D7E
:1018B0009F1DDB016C91DC018C91861708F46EC0D2
:1018C0003296B2E04B0E511CC5CF882309F499CF54
:1018D00081E08093AA070E945A0160936D0770937C
:1018E0006E0780936F07909370070E94B603109263
:1018F0009E0787CF212F302F37FF02C02F5F3F4F2A
:101900003595279521503109B4E0220F331FBA9540
:10191000E1F7A9014C5F5E4F480F591FDA011C9196
:10192000111102C010912E06A9014C5F5E4F840F69
:10193000951FDC011C934E0F5F1FDA014C91411182
:1019400002C040912F06C9018C5F9E4FE80FF91F1E
:101950004083860F971FFC018081811102C0809116
:101960003006F901EC5FFE4F6E0F7F1FDB018C9399
:10197000EE0DFF1D8081811102C0809131062C5F28
:101980003E4FD701A20FB31F8C9310922E061092D8
:101990002F06109230061092310633CF252F412F9B
:1019A000302FB12CA12CD12CC12C8ACF84E090E017
:1019B0009093D5078093D40740932505309326054F
:1019C000D0922005C0921F05B092EB07A092EA07C3
:1019D00020939E078091E6078093A2089091D207FA
:1019E000891721F01092A00810929F082091E20719
:1019F000E091DE077091E3076091DB079091D707D4
:101A0000222309F4FFC22091CE0721110AC080933E
:101A1000A10820919F083091A00830939E08209340
:101A20009D0840910B0550910C0520910D053091BA
:101A30000E05F091CA07FE1720F4482F50E021E070
:101A400030E0E091CF07E71720F4482F50E022E084
:101A500030E07091C707761720F4482F50E023E05C
:101A600030E06091C307691720F4482F50E024E06C
:101A700030E084E090E09093D5078093D4075093B2
:101A80000C0540930B0530930E0520930D0581E066
:101A9000452B09F480E08093A2083093A00820939E
:101AA0009F088091E107882309F433C31092B80797
:101AB0001092BB071092B3071092A7071092BC07B1
:101AC0001092B7071092AF071092AB070E94200642
:101AD00081E08093A8078091CD07811107C080E144
:101AE0000E9448019093A1078093A0070091A0074E
:101AF0001091A10780E10E944801F801E81BF90B51
:101B00001E161F060CF0DFC280E10E944801081B70
:101B1000190B063011050CF0DEC280919F07882357
:101B2000D1F080E10E94480120E63AEEDC010E94FB
:101B300028202FEF33E040E050E00E94A91F205DF5
:101B40003A484F4F5F4F2093210530932205409331
:101B50002305509324059091DC078091C8078917CD
:101B600070F48091090590910A058031910509F082
:101B7000B6C281E090E090930A05809309059091A8
:101B8000D8078091C407891780F580912705909127
:101B900028058038910509F0A5C280E290E0909375
:101BA000280580932705809127059091280597FDAA
:101BB0000F9664E0959587956A95E1F79093A6084E
:101BC0008093A5081092EB071092EA071092200567
:101BD00010921F0580910F05909110059093260596
:101BE0008093250581E080939E079091DA0780918C
:101BF000C607891708F050C0C090F207D090F307CD
:101C0000E090F407F090F507C0929A07D0929B07F6
:101C1000E0929C07F0929D0710929F078091960793
:101C200090919707A0919807B09199070097A10507
:101C3000B10519F126013701481A590A6A0A7B0AC7
:101C4000D301C20152E0B695A795979587955A950D
:101C5000D1F781390FE5900701E0A007B10508F43D
:101C600044C220E93FE541E050E020932105309354
:101C70002205409323055093240580E10E944801EA
:101C80009093A1078093A007C0929607D0929707E0
:101C9000E0929807F09299079091D6078091C20739
:101CA000891710F40E944E069091E2078091CE07AA
:101CB000981760F48091A1088093A20880919D08F4
:101CC00090919E089093A00880939F088091E607CA
:101CD0008093A3079091E0078091CC07891730F09B
:101CE0009091E7078091D307891798F41092EB073A
:101CF0001092EA071092200510921F0580910F059F
:101D000090911005909326058093250581E080939E
:101D10009E070E945A016093F2077093F307809325
:101D2000F4079093F507D0900805A9E7B7E0BC8FBA
:101D3000AB8FE9E8F7E030E020E04081442371F127
:101D4000AB8DBC8D8D909D90AD90BC902B013C01D6
:101D5000481859086A087B085301420109E88016AF
:101D600003E19006A104B104C8F08901000F111F1E
:101D7000A80143525A4FDA014D915C910B521A4F10
:101D8000440F551F440F551F4E55584FD8010D9104
:101D90001C91400F511FDA011C921082DD20B9F115
:101DA00089010B58184F7801D8014C91442379F1DF
:101DB000AB8DBC8D8D909D90AD90BC902B013C0166
:101DC000481859086A087B085301420101E580164A
:101DD00003EC9006A104B104D0F08901000F111F9B
:101DE000A80143535A4FDA014D915C910B531A4F9E
:101DF000440F551F440F551F4E55584FD8010D9194
:101E00001C91400F511FDA011C92D7011C922F5FC9
:101E10003F4F0B8D1C8D0C5F1F4F1C8F0B8F31960E
:101E20002430310509F089CF0091710710917207B4
:101E300020917307309174072B013C01401A510A1D
:101E4000620A730A93018201093843E114072105EC
:101E5000310548F01092B2070131174221053105D2
:101E600010F01092B40700916D0710916E07209149
:101E70006F07309170072B013C01401A510A620A2A
:101E8000730A93018201093813412105310510F0CD
:101E90001092AA070091690710916A0720916B07B9
:101EA00030916C072B013C01401A510A620A730AF7
:101EB00093018201093843E114072105310510F02F
:101EC0001092B60740916807442349F00135134C3E
:101ED0002105310520F01092A80710926807209183
:101EE00067072223C9F000916307109164072091CE
:101EF0006507309166072B013C01401A510A620ABE
:101F0000730A930182010135134C2105310520F03C
:101F10001092A80710926707E091A208EE2311F42F
:101F20000C942E1E20919F083091A008223031057C
:101F300011F00C942E1E20919F083091A00824309F
:101F4000310511F00C94351E10925F0710925E0758
:101F500010925D0710925C07E11109C020919F0863
:101F60003091A0082230310511F40C94451E21E077
:101F700020930705E11107C020919F083091A00828
:101F80002330310519F021E0209306052091E10767
:101F900021110AC010929607109297071092980785
:101FA0001092990710929F07009192071091930742
:101FB0002091940730919507601B710B820B930B56
:101FC0006139704D8340910510F010929107109285
:101FD000EC0780915A0790915B07E6EDF7E0A2ECE1
:101FE000B7E067E0E83EF60711F40C94541E8081D8
:101FF0008C93818111968C9311973296129682E080
:1020000090E0EFCFEE2379F08091CA0781110BC0E9
:1020100020919F083091A00821303105C1F5109220
:10202000A00810929F08772379F08091CF07811143
:102030000BC020919F083091A0082230310571F526
:102040001092A00810929F08662379F08091C7072C
:1020500081110BC020919F083091A00823303105D9
:1020600021F51092A00810929F08992309F419CD28
:102070008091C307811115CD80919F089091A00890
:102080000497D1F41092A00810929F080ACD21E085
:1020900030E03093A00820939F08C5CF22E030E0C5
:1020A0003093A00820939F08CFCF23E030E03093F7
:1020B000A00820939F08D9CF84E090E09093A008D7
:1020C00080939F08EECC80E10E944801801B910B19
:1020D00006970CF422CD81E080939F071ECD880FD8
:1020E000991F49CD880F991F5ACD803335E7930743
:1020F000A105B10548F08093210590932205A09396
:102100002305B0932405B9CD80E395E7A0E0B0E0C6
:10211000F2CF8091E407882309F484C01092080567
:102120009091DC078091C807891730F480918D0762
:1021300091E0892780938D079091D8078091C407FB
:10214000891730F480918E0791E0892780938E075C
:102150009091DA078091C607891730F480918F0734
:1021600091E0892780938F079091D6078091C207CD
:10217000891730F48091900791E089278093900728
:10218000E0908D0781E09E2D98279093B007F09006
:102190008E079F2D98279093A40700918F07902F6B
:1021A00098279093AC071091900781278093C007E0
:1021B0000E9420060E947C058091D007811174CD79
:1021C0008091F2079091F307A091F407B091F50781
:1021D0008093920790939307A0939407B0939507E9
:1021E00080919107882381F0EE2091F0FF2081F00B
:1021F000002371F0112361F010928D0710928E0769
:1022000010928F071092900781E0809391074CCD38
:1022100081E080938D0780938E0780938F07809352
:102220009007F2CFB090A20880909F089090A008ED
:10223000BB2009F4D9C70E94460511E01093080598
:102240001092A80792E08916910409F47EC2BCF4AA
:102250008114910409F484C18A94892809F024CD59
:102260000E9420060E947C05FE013196DF01498C08
:102270005A8C4A165B0609F4B3C11D92F8CFE3E00D
:102280008E16910409F4C8C6F4E08F16910409F083
:102290000BCD0E941506409160074090F2075090C8
:1022A000F3076090F4077090F507411174C0C09077
:1022B000E807D090E907B0914307BF8F70914407BA
:1022C0006091450750914607A0904707A0911F05D0
:1022D000B0912005EDEEF5E0FC8FEB8F05EE15E0FB
:1022E0001E8F0D8F30E020E0EB8DFC8D8191919160
:1022F000FC8FEB8FED8DFE8DE190F190FE8FED8FD9
:10230000880F991F8C010A52184F0E0D1F1D8E53F6
:10231000984F8E0D9F1DF8011081FC01808181175F
:1023200008F453C7C9018B509A4FFC0180819181F9
:1023300089010B521A4FF801E080F180880F991F34
:102340008C010A52184F0E0D1F1D8E53984F8E0D83
:102350009F1DF8011081FC018081811708F435C7A9
:102360002E5F3F4F2830310509F0BECFD092E907EC
:10237000C092E807A092470740936007B0932005FA
:10238000A0931F05FF8DF09343077093440760935C
:10239000450750934607509160078091E807909158
:1023A000E90740914707511102C00097B1F4FC01C1
:1023B000EE0FFF1FDF01A358BA4F2D913C91E35957
:1023C000FA4F220F331F220F331F2E55384F6081D3
:1023D0007181260F371FD9014C93F9E5CF2EF5E017
:1023E000DF2EA1E5AA2EA5E0BA2EBDEEEB2EB5E0BC
:1023F000FB2E05EE15E061E070E0F60121913191D0
:102400006F01D501ED91FD915D01220F331F220F68
:10241000331F2E55384FE20FF31F4083F7012191F0
:1024200031917F01F801A191B1918F01220F331FEA
:10243000F901EA52F84FEA0FFB1F2E53384FA20F53
:10244000B31FE0812C912E17E0F0FB01EE0FFF1F70
:102450003297DF01AB50BA4F2D913C91EB52FA4FBE
:10246000A081B181220F331FF901EA52F84FEA0F20
:10247000FB1F2E53384FA20FB31FE0812C912E1754
:1024800060F4FC01EE0FFF1FE15FFA4F7183608380
:102490008830910509F4A4C601966F5F7F4F6530BF
:1024A000710509F0AACF9093E9078093E80750934C
:1024B00060079092A00880929F08009143071091B6
:1024C0004407209145073091460773016201C01A05
:1024D000D10AE20AF30A97018601013A164821401F
:1024E000310560F021E042274093470740924307BF
:1024F000509244076092450770924607552349F071
:102500008830910531F41092A00810929F08109223
:10251000600750E040E0E1E048175907BCF4BA0119
:10252000660F771FDB01A358BA4F2D913C91635979
:102530007A4F220F331F220F331F2E55384FDB01E6
:102540006D917C91260F371FD901EC934F5F5F4F40
:102550004830510509F75093D5074093D407A4CBD1
:102560000E94150580912E06811107C08091DC071D
:10257000882319F08091C807812780932E068091C7
:102580002F06811108C08091D807882321F08091FF
:10259000C40791E0892780932F068091300681112E
:1025A00008C08091DA07882321F08091C60791E066
:1025B00089278093300680913106811108C080916F
:1025C000D607882321F08091C20791E08927809364
:1025D00031060E9420060E94AC040E947C0564CB58
:1025E0008091DC07882389F08091C80781110DC094
:1025F000A0912505B09126051197AA0FBB1FAA0F20
:10260000BB1FAE0FBF1F81E08C938091D80788233A
:1026100091F08091C40781110EC0A0912505B09161
:1026200026051197AA0FBB1FAA0FBB1FAE0FBF1F16
:1026300081E011968C938091DA07882391F0809144
:10264000C60781110EC0A0912505B09126051197EE
:10265000AA0FBB1FAA0FBB1FAE0FBF1F81E01296B0
:102660008C938091D607882391F08091C2078111C5
:102670000EC0A0912505B09126051197AA0FBB1F8A
:10268000AA0FBB1FAE0FBF1F81E013968C938091E2
:10269000DF07882349F08091CB07811105C081E0D5
:1026A00089838A838B838C838091E507882349F013
:1026B0008091D107811105C081E08D838E838F8346
:1026C00088878091DD07882349F08091C9078111AF
:1026D00005C081E089878A878B878C878091D9079D
:1026E000882349F08091C507811105C081E08D875D
:1026F0008E878F87888B1092D5071092D4072091F0
:102700005A0730915B0781E190E044E151E0019785
:1027100089F061916623D9F3DA01A81BB90B21E492
:1027200030E02150310919F01C925096FACF20E484
:1027300030E0EDCF30935B0720935A0780E190E0C3
:102740009093D5078093D407AFCA0E94200680914A
:10275000610781111AC01093620780911C06909145
:102760001D06EEE1F6E006E0EE32F00721F01192F0
:1027700090E080E0F8CF20E130E03093D50720935F
:10278000D40790931D0680931C06809162078823CE
:1027900009F4BCC09091DC078091C8078917B0F498
:1027A000E0912505F0912605EE0FFF1FEE0FFF1FAC
:1027B000E65EF94F81E080831092620780936107A3
:1027C00081E090E090931B0680931A069091D807C1
:1027D0008091C4078917B0F4E0912505F091260592
:1027E000EE0FFF1FEE0FFF1FE65EF94F81E08183C2
:1027F000109262078093610782E090E090931B063D
:1028000080931A069091DA078091C6078917B0F471
:10281000E0912505F0912605EE0FFF1FEE0FFF1F3B
:10282000E65EF94F81E08283109262078093610730
:1028300083E090E090931B0680931A069091D60750
:102840008091C2078917B0F4E0912505F091260523
:10285000EE0FFF1FEE0FFF1FE65EF94F81E083834F
:10286000109262078093610784E090E090931B06CA
:1028700080931A069091DF078091CB07891798F40F
:1028800081E080931E0680931F068093200680932C
:102890002106109262078093610781E090E0909397
:1028A0001D0680931C069091E5078091D10789173A
:1028B00058F41092620781E08093610782E090E013
:1028C00090931D0680931C069091DD078091C907A7
:1028D000891758F41092620781E08093610783E0C2
:1028E00090E090931D0680931C069091D9078091EB
:1028F000C507891758F41092620781E08093610739
:1029000084E090E090931D0680931C0680916107FF
:10291000882309F4C9C980911C0690911D06309145
:10292000C8072091DC07009709F494C1321748F5D5
:10293000BC0161507109660F771F660F771F4091C8
:1029400025055091260541505109440F551F440F4C
:10295000551F30E020E0F901E60FF71FEC5FFE4F56
:10296000A081F901E40FF51FEC5FFE4FA083205F0B
:102970003F4F211514E0310771F730925B07209229
:102980005A073091D8072091C407231748F5BC0196
:10299000660F771F660F771F6350710940912505F9
:1029A00050912605440F551F440F551F43505109A0
:1029B00030E020E0FB01E20FF31FEC5FFE4FA0814F
:1029C000FA01E20FF31FEC5FFE4FA083205F3F4F41
:1029D0002115A4E03A0771F730925B0720925A075D
:1029E0003091DA072091C607231748F5BC01660F1E
:1029F000771F660F771F625071094091250550912E
:102A00002605440F551F440F551F4250510930E011
:102A100020E0FB01E20FF31FEC5FFE4FA081FA0103
:102A2000E20FF31FEC5FFE4FA083205F3F4F2115A5
:102A3000B4E03B0771F730925B0720925A07309160
:102A4000D6072091C207231748F5BC01660F771FF0
:102A5000660F771F61507109409125055091260539
:102A6000440F551F440F551F4150510930E020E0DD
:102A7000FB01E20FF31FEC5FFE4FA081FA01E20FB2
:102A8000F31FEC5FFE4FA083205F3F4F2115E4E072
:102A90003E0771F730925B0720925A073091DF07AB
:102AA0002091CB07231798F59C0121503109220F63
:102AB000331F220F331F89010F5F1F4FB9016E5F54
:102AC0007F4FA9014D5F5F4FE4E0F1E0B4E0EB2EF2
:102AD000B5E0FB2EEE16FF06B1F0DF01A20FB31F2B
:102AE000AC91A083DF01A00FB11FAC91A183DF01E6
:102AF000A60FB71FAC91A283DF01A40FB51FAC9145
:102B0000A3837096E7CF30925B0720925A073091EB
:102B1000E5072091D107231780F59C012150310949
:102B2000220F331F220F331F89010F5F1F4FB9017F
:102B30006E5F7F4FA9014D5F5F4FE4E0F1E0A5E0DC
:102B4000E430FA07B1F0DF01A20FB31FAC91A48308
:102B5000DF01A00FB11FAC91A583DF01A60FB71F46
:102B6000AC91A683DF01A40FB51FAC91A78370962B
:102B7000E6CF30925B0720925A073091DD07209113
:102B8000C907231780F59C0121503109220F331FFB
:102B9000220F331F89010F5F1F4FB9016E5F7F4FF7
:102BA000A9014D5F5F4FE4E0F1E0B5E0E430FB07E1
:102BB000B1F0DF01A20FB31FAC91A087DF01A00F1E
:102BC000B11FAC91A187DF01A60FB71FAC91A287FF
:102BD000DF01A40FB51FAC91A3877096E6CF3092AA
:102BE0005B0720925A073091D9072091C507231718
:102BF00008F05AC80197880F991F880F991FBC01C8
:102C00006F5F7F4FAC014E5F5F4F9C012D5F3F4F69
:102C1000E4E0F1E004E015E00E171F0729F430921C
:102C20005B0720925A0740C8DF01A80FB91FAC917B
:102C3000A487DF01A60FB71FAC91A587DF01A40F02
:102C4000B51FAC91A687DF01A20FB31FAC91A78778
:102C50007096E2CF3217C8F520915A0730915B0782
:102C600080912505909126050197880F991F880F5F
:102C7000991FAEE1B6E044E051E0E6E0AE32BE07B7
:102C8000D1F06D916623A1F030E020E0FA01E20F6F
:102C9000F31F6081FC01E20FF31FEC5FFE4F6083C6
:102CA000205F3F4F2115F4E03F0781F720E430E03B
:102CB0004F5F5F4FE2CF30935B0720935A0780E16D
:102CC00090E09093D5078093D4079091D807809196
:102CD000C4078917C8F520915A0730915B07809186
:102CE000250590912605880F991F880F991F039736
:102CF000AEE1B6E044E051E006E0AE32B007D1F01C
:102D00006D916623A1F030E020E0FA01E20FF31F9D
:102D10006081FC01E20FF31FEC5FFE4F6083205FD8
:102D20003F4F211514E0310781F720E430E04F5F79
:102D30005F4FE2CF30935B0720935A0780E190E02A
:102D40009093D5078093D4079091DA078091C607B6
:102D50008917C8F520915A0730915B0780912505A6
:102D600090912605880F991F880F991F0297AEE151
:102D7000B6E044E051E066E0AE32B607D1F06D91C6
:102D80006623A1F030E020E0FA01E20FF31F60813A
:102D9000FC01E20FF31FEC5FFE4F6083205F3F4FAB
:102DA0002115E4E03E0781F720E430E04F5F5F4FFC
:102DB000E2CF30935B0720935A0780E190E0909335
:102DC000D5078093D4079091D6078091C2078917C1
:102DD000D0F58091250590912605880F991F880FC1
:102DE000991F019720915A0730915B07EEE1F6E0B9
:102DF00044E051E06EE276E06E177F07D1F0A191DA
:102E0000AA23A1F030E020E0DA01A20FB31F1C9149
:102E1000DC01A20FB31FAC5FBE4F1C93205F3F4F7E
:102E2000211504E0300781F720E430E04F5F5F4F69
:102E3000E3CF30935B0720935A0780E190E09093B3
:102E4000D5078093D4079091DF078091CB0789172E
:102E5000A8F580915A0790915B0740911A0650910E
:102E60001B0641505109AEE1B6E024E031E016E026
:102E7000AE32B107C9F06D91662399F090E080E021
:102E8000F901E80FF91F6081FA01E80FF91FEC5F03
:102E9000FE4F60834096811564E0960789F780E4D1
:102EA00090E02F5F3F4FE3CF90935B0780935A07EB
:102EB00080E190E09093D5078093D4079091E50747
:102EC0008091D1078917A8F540911A0650911B06E9
:102ED0004D5F5F4F80915A0790915B07AEE1B6E07E
:102EE00024E031E0E6E0AE32BE07C9F06D91662322
:102EF00099F090E080E0F901E80FF91F6081FA0194
:102F0000E80FF91FEC5FFE4F608340968115F4E0F7
:102F10009F0789F780E490E02F5F3F4FE3CF9093C6
:102F20005B0780935A0780E190E09093D5078093E8
:102F3000D4079091DD078091C9078917A8F54091C2
:102F40001A0650911B06495F5F4F80915A07909176
:102F50005B07AEE1B6E024E031E006E0AE32B00758
:102F6000C9F06D91662399F090E080E0F901E80FD7
:102F7000F91F6081FA01E80FF91FEC5FFE4F6083D3
:102F80004096811514E0910789F780E490E02F5F67
:102F90003F4FE3CF90935B0780935A0780E190E027
:102FA0009093D5078093D4079091D9078091C50756
:102FB000891710F00C94540E40911A0650911B067C
:102FC000455F5F4F80915A0790915B07AEE1B6E095
:102FD00024E031E066E0AE32B60729F490935B0757
:102FE00080935A07ABCB6D91662399F090E080E017
:102FF000F901E80FF91F6081FA01E80FF91FEC5F92
:10300000FE4F608340968115E4E09E0789F780E4D7
:1030100090E02F5F3F4FDECF009167070E94AC0426
:103020000E947C050E942006011102C01093A8078F
:103030000E94050380E10E9448019C018091EC07F9
:10304000882311F40C94540E9091DC078091EA07C8
:1030500080FF9DC091110DC08091D807811109C0DA
:103060008091DA07811105C08091D607882309F481
:1030700091C00091320610913306AAEFBFEF0E9473
:1030800020202FEF33E040E050E00E94A91F2A5F8C
:103090003F4F4F4F5F4F220F331F2D5B3A4FD901E8
:1030A0008D919C91801791070CF467C00F5F1F4FA3
:1030B00010933306009332068091320690913306C6
:1030C000019711F00C94540E81E08093A80780932F
:1030D00067070E945A0160936307709364078093A7
:1030E0006507909366078091020190910301FC01AE
:1030F000EE0FFF1FEC5CF94F20813181232B09F487
:1031000043C0843091050CF03FC0019690930301B9
:1031100080930201E0910201F0910301EE0FFF1F85
:10312000EE5CF94F808191819C0121503109F901B8
:10313000E25DF94F41E04083E0915007F091510783
:10314000409125055091260541505109B4E0EE0FFC
:10315000FF1FBA95E1F7440F551F440F551FE40FA9
:10316000F51FEC5FFE4FE20FF31F208121110C943D
:10317000540E0E94C4030C94540E81E090E090938E
:1031800033068093320698CF81E090E0BFCF911153
:103190000C94540E8091D80781110C94540E809198
:1031A000DA0781110C94540E8091D60781110C948A
:1031B000540E109233061092320681E090E0909304
:1031C0000301809302010C94540E4F8E752D662DD1
:1031D000572D4B2DAB2CB0E0A0E0D12CC12CC0C89A
:1031E00050E0912C812C59C90E94460511E01093A2
:1031F00008051092A807B2E08B16910409F44FC19C
:103200000CF0AAC08114910409F406C18A9489289B
:1032100011F00C94540E0E94AC040E947C05809125
:10322000680781111093A8070E94050380E10E949E
:1032300048012091EC07F090DC07222309F485C0B7
:103240002091EA0720FD81C0F1100DC02091D80720
:10325000211109C02091DA07211105C02091D6075C
:10326000222309F4FCC000915C0710915D079C01CA
:10327000ABEFBFEF0E9420202FEF33E040E050E0A3
:103280000E94A91F2B5F3F4F4F4F5F4F220F331FED
:103290002F593A4FD9018D919C9101970817190721
:1032A0000CF0BDC00F5F1F4F10935D0700935C07CC
:1032B000E0910201F0910301EE0FFF1FEE5CF94F68
:1032C00060817181809127059091280561157105B4
:1032D000F9F0AC0197FF02C0495F5F4FE3E05595FD
:1032E0004795EA95E1F761507109469F9001479F24
:1032F000300D569F300D11242F5F3F4F40915C07DA
:1033000050915D07240F351F30935F0720935E07B0
:1033100020915E0730915F07AC0197FF02C04F5FBD
:103320005F4F559547954217530754F497FD019603
:1033300095958795281B390B30935F0720935E077F
:1033400081E0809368078093A807FF2009F497C065
:103350000E9420060C94540E03E08016910409F498
:1033600093C124E08216910411F00C94540E0E9433
:10337000AC040E947C051093A80780E10E944801DC
:103380009C01AAEFBFEF0E9420202FEF33E040E026
:1033900050E00E94A91F2A5F3F4F4F4F5F4F8901A6
:1033A00082E597E09C8F8B8FA3E0220F331FAA95B5
:1033B000E1F7DC0190E080E0FC01E20FF31FE3574E
:1033C000FA4F40814D93019688309105A9F7EDE7BA
:1033D0006E2EE5E07E2EFDE64F2EF5E05F2E82E5B7
:1033E00097E09201D301E5E0AD38BE0709F4C4C20D
:1033F000ED90FD90F901419151919F01FC01619186
:10340000CF01F701EE0FFF1FEE0FFF1FEE55F84F34
:10341000E40FF51F6083E7CF0E941505DAC880919D
:1034200002019091030110925D0710925C0721E068
:1034300020933C06FC01EE0FFF1FEC5CF94F20814E
:103440003181232B49F08430910534F40196909317
:103450000301809302012CCF81E090E0F8CF10921D
:103460005F0710925E0710925D0710925C0781E083
:1034700090E090930301809302011092680780917D
:10348000D807811165CF8091DA07811161CF8091D2
:10349000D60781115DCF81E08093A80759CF0E94A4
:1034A000AC040E947C0580910705882369F1809116
:1034B0005A0790915B072091250530912605220F30
:1034C000331F220F331F20503F4F4DE356E0B7E02C
:1034D0004D335B0799F090E080E0FA01E80FF91FA7
:1034E000D901A80FB91F6C916083019684309105B2
:1034F000A1F7205F3F4F4C5F5F4FE9CF90935B0791
:1035000080935A07109207051092D5071092D4079E
:103510008091D4079091D507843091050CF018CF95
:103520009C01220F331FF901EB50FA4F0190F081FB
:10353000E02D2B523A4FD9012D913C91EE0FFF1FF8
:10354000DF01AA52B84FA20FB31FEE53F84FE20F9C
:10355000F31F3C912081231708F089C0E0902705D4
:10356000F09028055701F7FE03C0B7E0AB0EB11C81
:10357000F3E0B594A794FA95E1F78A9D80018B9DBD
:10358000100D9A9D100D11248091EA079091EB0780
:103590006C01E2E0CE1AD108D7FE04C06C01F1E064
:1035A000CF1AD108D594C7942FEFC21AD20AF7FECA
:1035B00003C03FEFE31AF30AF594E794CE14DF0457
:1035C00011F4D12CC12C000F111F000F111F035C2F
:1035D000194FD8018C91898311968C9111978A8308
:1035E00012968C9112978B8313968C918C83CE01BB
:1035F00001960E942004209148073091490780914C
:103600002505909126050197880F991F880F991F0E
:10361000A60164E0440F551F6A95E1F7840F951FDA
:103620008C5F9E4F50E040E04A155B05C4F430E0EB
:1036300020E0FC01E20FF31FD801A20FB31F6C9131
:1036400060832F5F3F4F2430310599F70C5F1F4F88
:103650004096BA016C0D7D1DE616F70691F4509365
:103660005B0740935A07309349072093480780919E
:10367000D4079091D50701969093D5078093D407EE
:1036800047CF4F5F5F4FD0CF0E94AC040E947C05B4
:103690001093A80780910605882349F080E10E94D5
:1036A00048019093A1078093A0071092060500910E
:1036B000A0071091A10780E10E944801F801E81BD2
:1036C000F90B1E161F060CF0B0C080E10E944801E5
:1036D000081B190B063011050CF0AFC080919F0735
:1036E000882309F4AEC080E10E9448018C019C014E
:1036F000A6EFBFEF0E9420202FEF33E040E050E024
:103700000E94A91F265F3F4F4F4F5F4F30934207E4
:10371000209341072DE735E0ADE6B5E090E080E08D
:103720004FEF53E0401B510BF901019111919F01A3
:103730006D917D91F801EE0FFF1FEE0FFF1FEE550B
:10374000F84FE60FF71F61E0841795070CF060E073
:10375000608381589F4F883FF3E09F0729F780914E
:103760005007909151076091A5087091A6080E949A
:103770000C20709305056093040580914707DB01D9
:10378000AA0FBB1FFD01E358FA4F0190F081E02D15
:10379000A359BA4FEE0FFF1FEE0FFF1FEE55F84F64
:1037A0002D913C91E20FF31F80834091F2075091DD
:1037B000F3076091F4077091F507009143071091AA
:1037C000440720914507309146072A013B01401AE2
:1037D000510A620A730A93018201013A1648214094
:1037E000310560F091E089278093470740934307B4
:1037F0005093440760934507709346072DEC35E0DE
:1038000065EC75E0ADE3B7E005EF15E085EDE82E7A
:1038100085E0F82EDD24D394E5E0253D3E0709F050
:103820007BC084E090E00C94A01380E10E944801EA
:10383000801B910B06970CF451CF81E080939F077A
:103840004DCF2091410730914207032E000C440BCD
:10385000550B2A50310941095109AFEFB3E00E94DD
:10386000C81F26EF3FEF4FEF5FEF0E94A91F8FEFBA
:1038700093E0A0E0B0E0821B930BA40BB50B21E01A
:10388000181619061A061B060CF020E02093C10733
:1038900021E080389105A105B1050CF420E02093CA
:1038A000A50721E08F3F9105A105B1050CF420E0AB
:1038B0002093A90721E08E3701E09007A105B1050B
:1038C0000CF420E02093AD0721E08D3F11E091073B
:1038D000A105B1050CF420E02093B10721E08C375D
:1038E00032E09307A105B1050CF420E02093B50761
:1038F00021E08B3F42E09407A105B1050CF420E0E4
:103900002093B90721E08A379340A105B1050CF453
:1039100020E02093BD0723CFF801819191918F0181
:10392000F701A190B1907F01880F991FAC014A5215
:10393000584F4A0D5B1D8E53984FA80EB91EFA01C1
:103940008081F5019081981718F48C918D258C93C6
:10395000F901819191919F01FB0141915191BF0129
:10396000880F991F880F991F8E55984F840F951FA8
:103970004D91FC01408350CF88E090E09093D507B3
:103980008093D40780915007909151076091A508CA
:103990007091A6080E940C207093050560930405A1
:1039A00080914E0790914F076817790709F455C029
:1039B0000E943B1F27E030E040E050E00E94A91F3A
:1039C000AB01BC014F5F5F4F6F4F7F4FCA015093F8
:1039D0004D0740934C072EE0EDE2F5E0DE01119635
:1039E00001900D922A95E1F71092D5071092D40715
:1039F000FE0131969E01235F3F4FE217F30779F0F6
:103A0000408151818417950711F0BB2031F042812C
:103A1000538151834083BB24B3943296EECF86E02A
:103A200090E09093D5078093D4070E943B1F26E037
:103A300030E040E050E00E94A91F660F771FCC24C1
:103A4000C394D12CCC0EDD1E6C0D7D1DDB018D9140
:103A50009C9190934B0780934A0780900405909027
:103A6000050590924F0780924E070630110509F028
:103A70006AC0E0914C07F0914D07EE5AF84F81E093
:103A80008083E0914A07F0914B07EE5AF84F80830C
:103A9000809127059091280597FD0196959587952A
:103AA0006091250570912605660F771F660F771FB9
:103AB0004091480750914907B0915A07BD8FE09156
:103AC0005B07EF8F05EFC02E05E0D02E25EDE22E2F
:103AD00025E0F22EF0E0E0E060507F4FD6012D911E
:103AE0003D916D01D701AD90BD907D01220F331F37
:103AF00089010A52184F0A0D1B1D2E53384F2A0DEB
:103B00003B1DD8011C91D9012C91211788F55B012F
:103B1000AE0EBF1E30E020E050E040E0281739072D
:103B20000CF58A010E5A184FD8011C91D5011C932F
:103B300047305105A4F44F5F5F4F2F5F3F4FB0E117
:103B4000AB0EB11CEBCF0530110509F0A1CFE09110
:103B50004C07F0914D07EE5AF84F81E098CF50E0B6
:103B600040E0EBCF8D8F9F8F97FF02C01D8E1F8E81
:103B70003196E430F10509F0B1CFED8DE0935A07AD
:103B8000FF8DF0935B0750934907409348070DE87A
:103B9000601605E07006B9F0D301ED91FD913D018D
:103BA000D2018D919D912D01AB8DBC8D2D91BC8F3E
:103BB000AB8FEE0FFF1FEE0FFF1FEE55F84FE80F14
:103BC000F91F2083E4CF88E090E09093D50780939D
:103BD000D40780914707D401AA0FBB1FFD01E3580A
:103BE000FA4F0190F081E02DA359BA4FEE0FFF1F5D
:103BF000EE0FFF1FEE55F84F2D913C91E20FF31F92
:103C000080834091F2075091F3076091F40770911F
:103C1000F507009143071091440720914507309123
:103C200046072A013B01401A510A620A730A9301AE
:103C30008201013A16482140310510F40C94540ECB
:103C400091E08927809347074093430750934407A7
:103C500060934507709346070C94540E10926207C8
:103C600010926107E1110C949B0F10926007E11113
:103C70000C94A40F20919F083091A00821303105A9
:103C800011F00C94A40F0C94AE0F4091A308509126
:103C9000A40820912505309126054217530711F0FD
:103CA0000C94B70F0C94BC0F90935B0780935A074A
:103CB00089E090E09093D5078093D4078091250503
:103CC000909126059093A4088093A30880E090E04B
:103CD000892B69F00E94E90181110E9400008E0188
:103CE0000F5E1F4F1A8F098F40E4242E312C0E9443
:103CF0008C0284E00E94B500892B11F00C94850A97
:103D000083E00E94B50021E0892B09F020E0209398
:103D1000F6078091F607882311F40C94010C80912A
:103D2000ED0781110C94010C81E08093EC078091E8
:103D3000EA079091EB0740912705509128058417D9
:103D4000950714F00C94B90A01969093EB078093B1
:103D5000EA071091EA070091EB0780912505909101
:103D600026050197880F991F880F991FFC0131962E
:103D7000BC016E5F7F4F9C012D5F3F4F790110FDAD
:103D800002C00C947A0C20915E0730915F072115D8
:103D9000310511F40C94E60A215031093093510792
:103DA00020935007209150073091510757FF02C0D0
:103DB0004F5F5F4F5595479541505109211531058A
:103DC00011F00C94F00A509319064093180641E044
:103DD00050E050931706409316060C94FF0A8F92FA
:103DE0009F92AF92BF92CF92DF92EF92FF92CF93CA
:103DF000DF93EC01688179818A819B81611571056E
:103E00008105910521F464E279ED8BE597E02DE1E0
:103E100033EF41E050E00E94A91F49015A019B0184
:103E2000AC01A7EAB1E40E94C81F6B017C01ACEEB3
:103E3000B4EFA50194010E94D61FC60ED71EE81E3E
:103E4000F91EF7FE06C081E0C81AD108E10880E833
:103E5000F80AC882D982EA82FB82C701B6019F773D
:103E6000DF91CF91FF90EF90DF90CF90BF90AF9018
:103E70009F908F9008958F929F92AF92BF92CF9212
:103E8000DF92EF92FF926091290570912A0580914F
:103E90002B0590912C05611571058105910521F483
:103EA00064E279ED8BE597E02DE133EF41E050E0FE
:103EB0000E94A91F49015A019B01AC01A7EAB1E484
:103EC0000E94C81F6B017C01ACEEB4EFA501940108
:103ED0000E94D61FC60ED71EE81EF91EF7FE06C0AA
:103EE00081E0C81AD108E10880E8F80AC0922905E3
:103EF000D0922A05E0922B05F0922C05C701B6015D
:103F00009F77FF90EF90DF90CF90BF90AF909F9002
:103F10008F9008956093290570932A0580932B054F
:103F200090932C050895F999FECF92BD81BDF89A22
:103F3000992780B50895262FF999FECF1FBA92BD13
:103F400081BD20BD0FB6F894FA9AF99A0FBE01967A
:103F50000895052E97FB1EF400940E94C01F57FD84
:103F600007D00E94DB1F07FC03D04EF40C94C01F47
:103F700050954095309521953F4F4F4F5F4F089595
:103F800090958095709561957F4F8F4F9F4F0895C5
:103F90000E94FD1FA59F900DB49F900DA49F800DC2
:103FA000911D11240895B7FF0C94C81F0E94C81FCB
:103FB000821B930B0895A1E21A2EAA1BBB1BFD01C5
:103FC0000DC0AA1FBB1FEE1FFF1FA217B307E407F8
:103FD000F50720F0A21BB30BE40BF50B661F771F50
:103FE000881F991F1A9469F7609570958095909530
:103FF0009B01AC01BD01CF010895A29FB001B39F09
:10400000C001A39F700D811D1124911DB29F700DE1
:10401000811D1124911D089597FB072E16F400941D
:1040200007D077FD09D00E942F2007FC05D03EF471
:10403000909581959F4F0895709561957F4F089554
:104040000E94FD1F332312F48A1B9B0B0C942A2021
:104050000E94FD1FB7FF0895821B930B0895AA1BB2
:10406000BB1B51E107C0AA1FBB1FA617B70710F063
:10407000A61BB70B881F991F5A95A9F78095909595
:10408000BC01CD010895EE0FFF1F0590F491E02DC6
:064090000994F894FFCF33
:104096000100010001000001010000000100000014
:1040A6000100010100000000000000000000010006
:1040B60000000000000001000000000001000000F8
:1040C60001000100000000000100000000000100E6
:1040D60000000000010100000000000001010001D5
:1040E60001000100000000000000000000000000C8
:1040F60000000000000001000100010000010000B6
:1041060000000100000000000000010000010000A6
:104116000000000001000000010100000100000095
:104126000100010100000000000000000000000086
:104136000000000000000100000000000000000078
:104146000000010000000000010000000100000066
:104156000000000001010000000000000000000057
:104166000100010000000000000000000100000046
:104176000000000000000100010000000100000036
:104186000000010000000000000000000000000028
:104196000100000001000000010000010100000014
:1041A6000100000100000000000000000100000006
:1041B60000000000000001000000000000000000F8
:1041C60000000000000000000100000000000100E7
:1041D60000000000010100000000000001000000D6
:1041E60001000000000000000000000001000000C7
:1041F60000000000000001000100010000000000B6
:1042060000000000000000000000010000010000A6
:104216000000000001000000010000000100000095
:104226000100010100000000000000000100000084
:104236000000000000000100000000000000000077
:104246000100010000000000010000000000010064
:104256000000000001010000000000000100000055
:104266000001010100000000000000000000010044
:104276000000000001000100010000000000010133
:104286000000010000000000010000000100000025
:104296000100000000000000000000000000000017
:1042A6000000000000000000000000000000000008
:1042B60000000000000000000000000000000000F8
:1042C60000000000000000000000000000000000E8
:1042D60000000000000000000000000000000000D8
:1042E60000000000000000000000000000000000C8
:1042F60000000000000000000000000000000000B8
:1043060000000000000000000000000000000000A7
:104316000000000000000000000000000000000097
:104326000000000000000000000000000000000087
:104336000000000000000000000000000000000077
:104346000000000000000000000000000000000067
:104356000000000000000000000000000000000057
:104366000000000000000000000000000000000047
:104376000000000000000000000000000000000037
:104386000000000000000000000000000000000027
:104396000000000000000000000000000000000017
:1043A6000000000000000000000000000000000007
:1043B60000000000000000000000000000000000F7
:1043C60000000000000000000000000000000000E7
:1043D60000000000000000000000000000000000D7
:1043E60000000000000000000000000000000000C7
:1043F60000000000000000000000000000000000B7
:1044060000000000000000000000000000000000A6
:104416000000000000000000000000000000000096
:104426000000000000000000000000000000000086
:104436000000000000000000000000000000000076
:104446000000000000000000000000000000000066
:104456000000000000000000000000000000000056
:104466000000000000000000000000000000000046
:104476000000000000000000000000000000000036
:104486000000000000000000000000000000000026
:10449600000000000100010101020000000100010E
:1044A60000010001000100010001000100010001FE
:1044B6000050C3000001004000010000000100029E
:1044C60000030004000500060007000600050003BF
:1044D6000002000000010002000300050007000FB3
:1044E60000020001000100010005000600040001B1
:1044F600000100020003000400080010000300038E
:10450600000300030003000300030003000700008C
:10451600000100020003000400050006000101017D
:10452600010101010101000100010001000100007B
:104536000001000000010000000000000000000073
:104546000000000000010000000000000001000063
:10455600000000000002000200020002000300004A
:104566000002000700000000000000000006000333
:104576000001000000010001000100010004000725
:10458600000300010003000100020000000000001B
:10459600001F027F01AC016C02DD01BB01CF0100EF
:00000001FF
