:100000000C9462000C948A000C948A000C948A0070
:100010000C948A000C948A000C948A000C948A0038
:100020000C948A000C948A000C948A000C948A0028
:100030000C948A000C948A000C948A000C948A0018
:100040000C94FD0B0C948A000C946D0C0C94470CD2
:100050000C948A000C948A000C948A000C948A00F8
:100060000C948A000C948A000000000024002700F1
:100070002A0000000000250028002B0000000000DE
:1000800023002600290004040404040404040202DA
:100090000202020203030303030301020408102007
:1000A0004080010204081020010204081020000012
:1000B0000008000201000003040700000000000027
:1000C00000009F0C11241FBECFEFD8E0DEBFCDBFD4
:1000D00015E0A0E0B1E0E4E9FEE402C005900D9275
:1000E000A03CB107D9F727E0A0ECB5E001C01D9214
:1000F000AF3EB207E1F710E0C2E6D0E004C02197BE
:10010000FE010E944227C136D107C9F70E94DE0CCA
:100110000C9448270C940000833081F028F481303F
:1001200099F08230A9F008958730A9F08830C9F09D
:100130008430B1F4809180008F7D03C08091800075
:100140008F7780938000089584B58F7784BD08955C
:1001500084B58F7DFBCF8091B0008F778093B00006
:1001600008958091B0008F7DF9CFCF93DF93282F32
:1001700030E0F901E255FF4F8491F901E656FF4F57
:10018000D491F901EA57FF4FC491CC23A1F081111A
:100190000E948C00EC2FF0E0EE0FFF1FE458FF4FA1
:1001A000A591B491EC91ED2381E090E009F480E019
:1001B000DF91CF91089580E090E0FACF1F93CF9325
:1001C000DF93282F30E0F901E255FF4F8491F901C8
:1001D000E656FF4FD491F901EA57FF4FC491CC2363
:1001E000A9F0162F81110E948C00EC2FF0E0EE0F89
:1001F000FF1FEE58FF4FA591B4918FB7F894EC9183
:10020000111108C0D095DE23DC938FBFDF91CF9111
:100210001F910895DE2BF8CFCF93DF9390E0FC0180
:10022000E656FF4F24918A579F4FFC018491882303
:10023000C9F090E0880F991FFC01E859FF4FA59184
:10024000B491FC01EE58FF4FC591D49161110DC0DE
:100250009FB7F8948C91209582238C9388812823D2
:1002600028839FBFDF91CF910895623051F49FB7EB
:10027000F8943C91822F809583238C93E8812E2BD8
:10028000EFCF8FB7F894EC912E2B2C938FBFEACF42
:100290008E50806480937C0080917A00806480938B
:1002A0007A0080917A0086FDFCCF80917800909151
:1002B000790008953FB7F8948091480790914907D5
:1002C000A0914A07B0914B0726B5A89B05C02F3FC8
:1002D00019F00196A11DB11D3FBFBA2FA92F982F6C
:1002E0008827BC01CD01620F711D811D911D42E067
:1002F000660F771F881F991F4A95D1F70895AF920F
:10030000BF92CF92DF92EF92FF920F931F93CF9302
:10031000DF936C017B018B01040F151FEB015E0164
:10032000AE18BF08C017D10759F06991D601ED91F9
:10033000FC910190F081E02DC6010995892B79F798
:10034000C501DF91CF911F910F91FF90EF90DF904A
:10035000CF90BF90AF900895FC01538D448D252F11
:1003600030E0842F90E0821B930B541710F0CF964F
:10037000089501970895FC01918D828D981761F081
:10038000A28DAE0FBF2FB11D5D968C91928D9F5F98
:100390009F73928F90E008958FEF9FEF0895FC0177
:1003A000918D828D981731F0828DE80FF11D858D2A
:1003B00090E008958FEF9FEF0895FC01918D228DBD
:1003C000892F90E0805C9F4F821B91098F73992742
:1003D00008958CE497E00E94DD0121E0892B09F467
:1003E00020E0822F089580E090E0892B29F00E9480
:1003F000E90181110C9400000895FC01A48DA80F5F
:10040000B92FB11DA35ABF4F2C91848D90E0019656
:100410008F739927848FA689B7892C93A089B18976
:100420008C91837080648C93938D848D981306C017
:100430000288F389E02D80818F7D80830895EF927B
:10044000FF920F931F93CF93DF93EC0181E0888F8E
:100450009B8D8C8D98131AC0E889F989808185FF5E
:1004600015C09FB7F894EE89FF896083E889F98900
:1004700080818370806480839FBF81E090E0DF9102
:10048000CF911F910F91FF90EF900895F62E0B8D55
:1004900010E00F5F1F4F0F731127E02E8C8D8E1110
:1004A0000CC00FB607FCFACFE889F989808185FF77
:1004B000F5CFCE010E94FD01F1CFEB8DEC0FFD2FAA
:1004C000F11DE35AFF4FF0829FB7F8940B8FEA8932
:1004D000FB8980818062CFCFCF93DF93EC01888D41
:1004E0008823B9F0AA89BB89E889F9898C9185FDAF
:1004F00003C0808186FD0DC00FB607FCF7CF8C913D
:1005000085FFF2CF808185FFEDCFCE010E94FD01F6
:10051000E9CFDF91CF9108950F931F93CF93DF938E
:1005200060E088E00E94DE0061E088E00E94DE007A
:1005300001E317E0C2EBD6E082E00E94B50021E0C3
:10054000892B09F020E0F801208389E00E94B500A2
:1005500021E0892B09F020E0F8012183688186E001
:100560000E94DE0069818EE00E94DE006A818AE0DE
:100570000E94DE006B8181E10E94DE0061E083E188
:100580000E94DE0060E083E10E94DE000E5F1F4FEC
:100590002496F6E0C23DDF0779F661E082E10E9431
:1005A000DE0060E082E10E94DE008FE00E94B50084
:1005B00021E0892B09F020E02093410787E00E9489
:1005C000B50021E0892B09F020E02093420784E068
:1005D0000E94B50021E0892B09F020E02093E80576
:1005E00083E00E94B50021E0892B09F020E02093F0
:1005F000E70580E10E94480190935B0680935A06CC
:10060000DF91CF911F910F9108950F931F93CF9377
:10061000DF93AEE9B5E00AE915E0A8019D01E90123
:1006200089919E0190E0FA016191AF01E62FF0E01F
:10063000880F991FBC016F5C784F6E0F7F1F815E22
:10064000984FEF01C80FD91FFB019081888189174E
:1006500068F4E6E0F7E090E080E06191611150C05D
:100660008A5F984F622F6A1BEC016883D5E0223ABB
:100670003D07A9F621E030E08D9190E0E801E99195
:100680008E01F0E0880F991FAC014F5C584F4E0F60
:100690005F1F815E984FEF01C80FD91FFA0190814B
:1006A0008881981770F4E6E0F7E0819182171306CD
:1006B00021F4CF010197EC011882D7E0EA30FD0761
:1006C000A1F72F5F3F4F25303105B1F6E6E0F7E0A7
:1006D0002AE037E080E09191992331F0A82FB0E033
:1006E000AA5FB84F9C938F5F2E173F07A1F7E82FA3
:1006F000F0E0EA5FF84F843048F48F5F1192FBCF4F
:1007000001968430910509F0A8CFB0CF8093CD0534
:10071000DF91CF911F910F91089580919C068111D7
:1007200017C081E08093C6060E945A016093930629
:1007300070939406809395069093960681E080933B
:100740009B0690919806911102C08093CE05089562
:10075000809197068111E8CF81E08093BA06E4CFBB
:10076000CF93C1E0C093BA060E945A016093A606D7
:100770007093A7068093A8069093A9068091980687
:10078000811102C0C093CE05CF910C948D03E2EB92
:10079000F6E081E0808B828B0E945A016093AA066A
:1007A0007093AB068093AC069093AD0608951F93AB
:1007B000CF93DF93162FEC0121970E945A01FE017F
:1007C000EE0FFF1FEE0FFF1FEE52F94F6083718394
:1007D00082839383FE01E255F94F3081311106C0C7
:1007E000FE01E65FF84F8081882311F01123B9F0F4
:1007F000FE01E655FA4F8081FE01E656FA4F208150
:1008000044E0849FC00111248E54994F820F911DA2
:1008100021E0FC012083FE01EE51F94F20838091FD
:1008200018058823D1F020E0311106C0FE01E65FF3
:10083000F84F208181E02827FE01EA55FA4F808198
:10084000CE55DA4F3881F4E08F9FC00111248E54C9
:10085000994F830F911DFC012083DF91CF911F9150
:100860000895EF92FF920F931F93CF93DF93F09031
:100870009A0600911C051091150570910B06609168
:100880000D05E0906B0630916106C2E9D5E04EE8B7
:1008900055E021E0899190E0DA01ED91AD01F0E0C1
:1008A000880F991FDC01AF5CB84FAE0FBF1FAC9132
:1008B000AA2371F0815E984FE80FF91F80818111A2
:1008C00007C0F11001C0022F3E2D622F70E011E031
:1008D0002F5F2530F9F600931C05109315057093D2
:1008E0000B0660930D0530936106DF91CF911F9148
:1008F0000F91FF90EF900895CF9310920E06C1E0F4
:10090000C093E6051092DB050E945A016093D7055B
:100910007093D8058093D9059093DA051092550607
:1009200010920B06C0930101C093020180910D0546
:1009300080931C058091610680936B068091F2057F
:10094000882319F0CF910C94B003C093F105CF9197
:100950000895CF92DF92FF920F931F93CF93DF936F
:10096000CEE9D5E06AE975E0AEEAB6E046EA55E0E0
:1009700022EA35E0FF24F394899190E0FB01119184
:10098000BF01E12FF0E0880F991F8C010F5C184F19
:100990000E0F1F1F815E984F6F01C80ED91EF80100
:1009A0009081F6018081891718F48C918F258C93A2
:1009B000FA018191AF01F90111919F01F4E08F9F3C
:1009C000C00111248E54994F810F911DED911E2F5E
:1009D0001F25FC011083F5E0C23ADF0769F6DF91BD
:1009E000CF911F910F91FF90DF90CF900895EF92DC
:1009F000FF920F931F93CF93DF933EE9E32E35E0F1
:100A0000F32E0AE915E0D0E0C0E0D7018D917D0119
:100A100090E0D801ED918D01F0E02196880F991FAB
:100A2000DC01AF5CB84FAE0FBF1F2C91222359F0F1
:100A3000815E984FE80FF91F8081811104C061E049
:100A4000CE010E94D703C430D105F9F6DF91CF91D2
:100A50001F910F91FF90EF900895E2EBF6E0168A58
:100A6000118E118A158208950E942D058091EA0742
:100A70009FEF980F9430B0F48150990BFC01EE5A1F
:100A8000FA4F2081825B9A4FFC013081F4E02F9F66
:100A9000C00111248E54994F830F911D21E0FC0158
:100AA00020830895853049F481E08093C8068093BF
:100AB000CB068093C3068093B7060895E2EBF6E079
:100AC000128E158A1586118608950F931F930E9422
:100AD0005E0540911C05042F0150110B9801F8018F
:100AE000EA56FA4F8081225B3A4FF9012081F4E007
:100AF0008F9FC00111248E54994F820F911D21E0C8
:100B0000FC01208380910B0690E020911505215077
:100B1000330B82179307F4F5835F9A4FFC018181B1
:100B20008093000180910001481789F18130A9F577
:100B300080915C068093CC0640911B0750911C0766
:100B400060911D0770911E0780915D0690915E0671
:100B5000A0915F06B09160068A019B01081B190BEA
:100B60002A0B3B0BD901C801813A9648A140B10537
:100B700070F080915C0691E0892780935C06409339
:100B80005D0650935E0660935F06709360061F914A
:100B90000F91089580910D05C3CF823029F4809183
:100BA0005C068093C706C8CF833029F480915C0629
:100BB0008093BF06C1CF843009F0BECF80915C0620
:100BC0008093BB06B9CFE2EBF6E0178E1382178253
:100BD00013861786138A178A138E08950E94E305D9
:100BE000809155066091EE070E94272780930C059F
:100BF00090E0FC01EA57FA4F208182589A4FFC019D
:100C00003081F4E02F9FC00111248E54994F830F3F
:100C1000911D21E0FC01208308953F924F925F9245
:100C20006F927F928F929F92AF92BF92CF92DF92FC
:100C3000EF92FF920F931F93CF93DF93CDB7DEB761
:100C4000AE970FB6F894DEBF0FBECDBF80E2E2E2F2
:100C5000F5E0DE01119601900D928A95E1F70E9470
:100C600031040E9465050E94EE0580919106811174
:100C700003C081E08093B8060E9405031091CC0563
:100C80001093CB0520915A0630915B062150310913
:100C9000AAEFBFEF0E9433272FEF33E040E050E090
:100CA0000E94C42669017A0105E0C00ED11CE11C36
:100CB000F11CEC2DC092CC05809155066091EE0799
:100CC0000E94272780930C05E43008F0CDC0A3ECE8
:100CD000B5E018E0C19E9001112490E080E0FC0195
:100CE000E20FF31F41E050E04C0F5D1FE40FF51FD2
:100CF00040814D9301968830910589F7E6E8F5E04B
:100D00004EE755E003EC15E06EE875E08191DA01FD
:100D10002D91AD01D8013D918D01B4E08B9FC001B3
:100D200011248E54994F820F911DDC013C936E1754
:100D30007F0761F780910C0590E030915C06FC0123
:100D4000EA57FA4F208182589A4FFC014081F4E023
:100D50002F9FC00111248E54994F840F911DDC01E7
:100D60003C9380911B0790911C07A0911D07B091A7
:100D70001E0740915D0650915E0660915F0670917E
:100D800060067C018D01E41AF50A060B170BB80109
:100D9000A701413A56486140710560F021E03227D1
:100DA00030935C0680935D0690935E06A0935F0689
:100DB000B09360068091060740910707509108079D
:100DC00090910907A0901D05A694B12C20911C05B7
:100DD00030E0B90161507109660F771F660F771F08
:100DE000E0916B066E2EA1E0B0E04D0101C0880CD1
:100DF000EA95EAF7582C50944090CC05FDE8EF2E88
:100E0000F6E0FF2E1EA61DA6DB01A65FBE4F6D01FC
:100E1000D701ED917D01EE2309F403C1ADA5BEA577
:100E2000AC0DBD1D10E000E090E080E00A151B0550
:100E30000CF0F3C03C903520AC014D535A4FFA01F1
:100E40004081062C01C0440F0A94EAF743294C93D1
:100E5000F2E04F12DBC0823091050CF0DBC001964E
:100E60000F5F1F4F5096E2CF1C113DC08091370796
:100E700090911907992391F090910E069F7071F44B
:100E800081110CC090913307911108C090913507E2
:100E9000911104C090913107992329F19091250770
:100EA000891798F02091330790912107291768F04E
:100EB0002091350790912307291738F020913107A9
:100EC00090911F07291708F080C081117EC0809182
:100ED000330781117AC080913507811176C08091E6
:100EE0003107811172C081E08093C3051092C4055F
:100EF0001092C5051092C6051092C7051092C8053C
:100F00001092C9051092CA050E94562626E030E0CC
:100F100040E050E00E94C426AB01BC014E5F5F4F31
:100F20006F4F7F4F4093C2058CE0E2E4F5E0DE01B5
:100F3000919601900D928A95E1F7FE01B19630E00D
:100F400020E080E050E0DE019796BF016E5F7F4FAA
:100F50000081118104171507A9F42115310509F045
:100F600047C08DA19EA19AA389A38FA198A59CA3F8
:100F70008BA389A59AA59EA38DA38BA59CA598A7B5
:100F80008FA382E02F5F3F4FFB0126303105E9F64A
:100F90008901081B110960E070E0CB0110161106F1
:100FA00044F40E9456269801110F440B550B0E94E1
:100FB000C426FB01EE0FFF1F81E090E08C0F9D1F08
:100FC000E80FF91F80A18093C105E091C205F0E010
:100FD000ED53FA4F81E080839091CC05953009F074
:100FE0008DCEE091C105F0E0ED53FA4F808386CEBF
:100FF0002530310531F23297AE17BF0729F08681CF
:10100000978181939193F8CF83E0BCCF873091058E
:101010000CF425CF90E080E023CF90E050E040E05A
:1010200080E00DA51EA50F5F1F4F1EA70DA7043062
:10103000110509F0EDCE8093060740930707509302
:1010400008079093090710920A0710920B07109255
:101050000C0710920D07811104C081E080930C06EB
:101060007CC08091A10681110FC0A6E0B7E04AE0E4
:1010700057E091E0ED91EE2321F0F0E0E75FF84FCB
:1010800090834A175B07B1F790911907992309F4E8
:101090006CC090910E0690FF68C081111BC08091BA
:1010A0005506A6E0B7E04AE057E010E1819FC00195
:1010B0001124865F9E4FED91EE2349F0E150FF0B26
:1010C000E60FF71FE80FF91F1081152110834A174B
:1010D0005B0789F71091C005E12FF0E0EE53FA4F5E
:1010E00080818823A1F180910C06E82FF0E0EB5F6E
:1010F000F84F9081992311F0853018F081E08093AA
:101100000C069091550600910C06E02FF0E0EB5F85
:10111000F84F408150E021503109220F331F220F38
:10112000331FFA0131972E0F3F1F80E1989FF00186
:101130001124E65FFE4FE20FF31F8081882A808230
:1011400061E0CA010E94D7030F5F00930C061F5F86
:101150001093C005193020F081E08093C00505C0D0
:1011600092E0491202C01430B8F7AE960FB6F89468
:10117000DEBF0FBECDBFDF91CF911F910F91FF90CA
:10118000EF90DF90CF90BF90AF909F908F907F9027
:101190006F905F904F903F9008950C94B6264F92B9
:1011A0005F926F927F928F929F92AF92BF92CF92F7
:1011B000DF92EF92FF920F931F93CF93DF93609193
:1011C0001C0590E080E00E94CD080DE015E0D0E025
:1011D000C0E0F80161918F012196CE010E94CD08F7
:1011E000C830D105B1F76091150589E090E00E9403
:1011F000CD08609104018AE090E00E94CD086091E2
:101200001D058BE090E00E94CD08609116058CE0F2
:1012100090E00E94CD08609117058DE090E00E945B
:10122000CD086091AF06660F8091B006F4E08F9F05
:10123000C0011124682B8091AE06682B8091B10605
:1012400028E0829FC0011124682B8EE090E00E946C
:10125000CD0860915206660F80915306E4E08E9FA0
:10126000C0011124682B80915106682B809154068F
:10127000F8E08F9FC0011124682B8FE090E00E945E
:10128000CD08C0910A0580E190E00E94AE26C81703
:1012900029F06C2F80E190E00E94B626C0910B05EA
:1012A00081E190E00E94AE26C81729F06C2F81E101
:1012B00090E00E94B6266091050182E190E00E94D4
:1012C000CD08609105017091060180910701909110
:1012D0000801672F782F892F992783E190E00E94DA
:1012E000CD086091050170910601809107019091F0
:1012F0000801BC018827992784E190E00E94CD086D
:10130000609105017091060180910701909108019B
:10131000692F77278827992785E190E00E94CD08DB
:1013200060916B0686E190E00E94CD0860919E0678
:10133000660F8091A00624E0829FC0011124682BD3
:1013400080919C06682B8091A206E8E08E9FC001E8
:101350001124682B8091A406F0E18F9FC001112415
:10136000682B87E190E00E94CD0860919F06660F90
:101370008091A10624E0829FC0011124682B8091F6
:101380009D06682B8091A306E8E08E9FC001112482
:10139000682B8091A506F0E18F9FC0011124682B76
:1013A00088E190E00E94CD086091F20589E190E02B
:1013B0000E94CD086091F3058AE190E00E94CD087B
:1013C000609197068BE190E00E94CD0860919806AD
:1013D0008CE190E00E94CD08609199068DE190E04B
:1013E0000E94CD0860919A068EE190E00E94CD089F
:1013F00001E616E0CFE1D0E0F80161918F01CE0166
:101400000E94CD082196C732D105B1F7812C9924CD
:10141000939494E0A92EB12CF12CE12C10E000E083
:10142000E801C65FDE4F6701FEEFDF1A270120ECFF
:10143000421A2DEF520A34016E187F086885E0E1E8
:101440006E9FC00111246881682BC6010E94CD08DF
:10145000FE01E01BF10BEA0DFB1D6C8520E1629F94
:10146000C00111246081682BC3018C0D9D1D0E9459
:10147000CD0860968FEFC81AD80A4C145D04F1F6B7
:101480000F5F1F4FE0E4EE0EF11CFFEFAF1ABF0A33
:1014900020E4820E911C0430110511F6DF91CF91EA
:1014A0001F910F91FF90EF90DF90CF90BF90AF9082
:1014B0009F908F907F906F905F904F9008950C94C5
:1014C000AE264F925F926F927F928F929F92AF92D1
:1014D000BF92CF92DF92EF92FF920F931F93CF9321
:1014E000DF9390E080E00E945F0A80931C050DE08E
:1014F00015E0D0E0C0E02196CE010E945F0AF8011D
:1015000081938F01C830D105B1F789E090E00E9446
:101510005F0A809315058AE090E00E945F0A80933D
:1015200004018BE090E00E945F0A80931D05829584
:101530008F708093EE078CE090E00E945F0A8093AA
:1015400016058DE090E00E945F0A809317058EE0FB
:1015500090E00E945F0A282F81708093AE0621FBE5
:10156000882780F98093AF0622FB882780F9809333
:10157000B00623FB222720F92093B1068FE090E0EC
:101580000E945F0A282F81708093510621FB8827D3
:1015900080F98093520622FB882780F980935306B6
:1015A00023FB222720F92093540680E190E00E943B
:1015B000AE2680930A0581E190E00E94AE268093DA
:1015C0000B0510920501109206011092070110926E
:1015D000080182E190E00E945F0AC82ED12CF12C14
:1015E000E12CC0920501D0920601E0920701F09231
:1015F000080183E190E00E945F0AD82AC0920501A9
:10160000D0920601E0920701F092080184E190E097
:101610000E945F0AE82AC0920501D0920601E0927A
:101620000701F092080185E190E00E945F0AF82A24
:10163000C0920501D0920601E0920701F0920801E4
:1016400086E190E00E945F0A80936B0687E190E05C
:101650000E945F0A282F817080939C0621FB8827B7
:1016600080F980939E0622FB882780F98093A0064C
:1016700023FB882780F98093A2062295217020936E
:10168000A40688E190E00E945F0A282F8170809371
:101690009D0621FB882780F980939F0622FB8827DF
:1016A00080F98093A10623FB882780F98093A30605
:1016B000229521702093A50689E190E00E945F0A9F
:1016C00091E0811101C090E09093F2058AE190E0F1
:1016D0000E945F0A91E0811101C090E09093F305B0
:1016E0008BE190E00E945F0A91E0811101C090E0DF
:1016F000909397068CE190E00E945F0A91E081113F
:1017000001C090E0909398068DE190E00E945F0AFE
:1017100091E0811101C090E0909399068EE190E0F4
:101720000E945F0A91E0811101C090E090939A06B7
:1017300001E616E0CFE1D0E0CE010E945F0AF80199
:1017400081938F012196C732D105B1F784E0A82E8D
:10175000B12C812C99249394F12CE12C10E000E021
:101760006701FEEFDF1AE801C65FDE4F270180EC5C
:10177000481A8DEF580A34016E187F08C6010E947E
:101780005F0A982F9F70988382958F708887C30116
:101790008C0D9D1D0E945F0AFE01E01BF10BEA0DFE
:1017A000FB1D982F9F70908382958F708C87EFEF31
:1017B000CE1ADE0A6096C414D50401F70F5F1F4FDE
:1017C000F0E4EF0EF11C80E4880E911CEFEFAE1AEE
:1017D000BE0A0430110521F6DF91CF911F910F91C0
:1017E000FF90EF90DF90CF90BF90AF909F908F9041
:1017F0007F906F905F904F9008951F920F920FB659
:101800000F9211242F933F938F939F93AF93BF9386
:101810008091440790914507A0914607B0914707F2
:101820003091430723E0230F2D3758F50196A11D72
:10183000B11D209343078093440790934507A093DD
:101840004607B09347078091480790914907A091B8
:101850004A07B0914B070196A11DB11D809348071F
:1018600090934907A0934A07B0934B07BF91AF915C
:101870009F918F913F912F910F900FBE0F901F90CE
:10188000189526E8230F0296A11DB11DD2CF1F92F5
:101890000F920FB60F9211242F933F934F935F93A4
:1018A0006F937F938F939F93AF93BF93EF93FF9328
:1018B0008CE497E00E94FD01FF91EF91BF91AF9101
:1018C0009F918F917F916F915F914F913F912F9158
:1018D0000F900FBE0F901F9018951F920F920FB68A
:1018E0000F9211242F938F939F93EF93FF93E09187
:1018F0005C07F0915D078081E0916207F0916307DA
:1019000082FD1BC09081809165078F5F8F7320914E
:101910006607821741F0E0916507F0E0E45BF84F5D
:10192000958F80936507FF91EF919F918F912F91F4
:101930000F900FBE0F901F9018958081F4CFECE4AC
:10194000F7E01382128288EE93E0A0E0B0E0848397
:101950009583A683B78382EB95E09183808385ECA2
:1019600090E09587848784EC90E09787868780EC69
:1019700090E0918B808B81EC90E0938B828B82EC5A
:1019800090E0958B848B86EC90E0978B868B118E04
:10199000128E138E148E80911D0582958F70809308
:1019A000EE0780911C058093ED078091EC078093F2
:1019B000EB078091EA078093E9070895CF93DF93BF
:1019C000CDB7DEB7A2970FB6F894DEBF0FBECDBF7E
:1019D000789484B5826084BD84B5816084BD85B50A
:1019E000826085BD85B5816085BD80916E00816016
:1019F00080936E00109281008091810082608093BC
:101A000081008091810081608093810080918000BD
:101A10008160809380008091B10084608093B100E8
:101A20008091B00081608093B00080917A008460E2
:101A300080937A0080917A00826080937A0080910E
:101A40007A00816080937A0080917A008068809328
:101A50007A001092C100E0915C07F0915D0782E08E
:101A60008083E0915807F09159071082E0915A075E
:101A7000F0915B078FEC808310926407E091600720
:101A8000F091610786E08083E0915E07F0915F0747
:101A9000808180618083E0915E07F0915F078081A3
:101AA00088608083E0915E07F0915F0780818068A5
:101AB0008083E0915E07F0915F0780818F7D808356
:101AC00084E10E944801BC01990F880B990B6115B4
:101AD00071058105910511F00E94A52661E088E05D
:101AE0000E940C0161E082E10E940C0161E083E14F
:101AF0000E940C0160E082E00E940C0160E089E03D
:101B00000E940C0161E086E00E940C0161E08EE021
:101B10000E940C0161E08AE00E940C0161E081E119
:101B20000E940C0160E084E00E940C0162E08FE002
:101B30000E940C0160E087E00E940C0160E083E0FD
:101B40000E940C010E948C0280913B0781110E942F
:101B5000CF080E94610A80913C07882311F40C94FD
:101B6000272083E497E0EFE1F7E021E3E22E27E08E
:101B7000F22ED7012C91208311962C912183B2E073
:101B8000EB0EF11C32968E159F0599F711E090919E
:101B90003C0780912A07891710F40C942720109392
:101BA000D1061093B5061093B9061093BD06109395
:101BB000C1061093C5061093C9061092CD060E9467
:101BC0005A0160931B0770931C0780931D07909325
:101BD0001E0720915C0680905D0690905E06A090A6
:101BE0005F06B09060062B013C01481859086A084E
:101BF0007B085301420101EA801606E8900601E0E5
:101C0000A006B10458F0212720935C0660935D067E
:101C100070935E0680935F069093600680915C06E9
:101C20008093C406BAE56B2EB5E07B2E06E5A02EA8
:101C300005E0B02EE7E9F6E082E5C82E85E0D82E73
:101C40006EE475E0D3018D913D0190E0D5012D91B9
:101C50005D0130E04F010081880F991FAC014F5C9E
:101C6000584F420F531F815E984F820F931FDA0126
:101C70002C91DC018C91821710F401270083D6018E
:101C80008D916D01DB012D91BD013196B4E08B9FEB
:101C9000C00111248E54994F820F911DD4012C91B3
:101CA000DC012C93BEE56B16B5E07B0659F6AFE17F
:101CB000B7E0E1E3F7E080818C93818111968C930A
:101CC000119732961296EE15FF05A9F70E948C0225
:101CD0005ECF8091DB05811138C08091F2058111C2
:101CE00034C021E02093DC0540911B0750911C0774
:101CF00060911D0770911E078091E1059091E205AA
:101D0000A091E305B091E4052A013B01481A590A64
:101D10006A0A7B0AD301C201B695A7959795879564
:101D20008093DD059093DE05A093DF05B093E00579
:101D30004093E1055093E2056093E3057093E40559
:101D40002093E50502C08111C4CF8091DC0581118B
:101D50000C9469200C946F208823B9F38091DB05E3
:101D60008111F3CF8091F2058111EFCF00911B0714
:101D700010911C0720911D0730911E074091E1052D
:101D80005091E2056091E3057091E4053801490145
:101D9000641A750A860A970AB401A30176956795B5
:101DA000579547954093DD055093DE056093DF0519
:101DB0007093E0050093E1051093E2052093E3059D
:101DC0003093E40581E08093E50580910201813044
:101DD00011F48093DC059695891720F081E08093BB
:101DE0000201B3CF8F5FFBCF80911B0790911C073F
:101DF000A0911D07B0911E074091D7055091D805BD
:101E00006091D9057091DA05841B950BA60BB70B71
:101E10004091050150910601609107017091080100
:101E2000481759076A077B0708F08FCF81E0809336
:101E3000DC050E945A016093D7057093D805809302
:101E4000D9059093DA0581CF1092DC0591E090934B
:101E5000190780910E0660911D058617E8F48F5FC3
:101E600080930E06E0910E06E0FF67C28091100796
:101E7000882399F181508093550680915506262F2D
:101E80002695482F50E081112CC021502093D60573
:101E900091E09093D50532C090930E0680910B0689
:101EA000209115052150330B821713069CF48F5F88
:101EB00080930B0680910B0690E0FC01E35FFA4FE4
:101EC000208120931C058F59994FDC018C918093C0
:101ED0006B06C8CF10920B06EDCFE695E093550642
:101EE000CCCF9FEF980F2150330B9093D60591E004
:101EF000980F2417350769F61092D5059091EC07D5
:101F0000911125C09091EA07943009F590916A06E5
:101F10009923E9F09091A20670915606613208F477
:101F200073C18F7121E030E0871710F430E020E0BA
:101F30002759394FF9018081992309F471C1909192
:101F40001505923008F46CC1815080936B06209186
:101F50001C052150330B220F331F220F331F80919A
:101F60006B0604E0440F551F0A95E1F7465F5E4F8C
:101F7000FA01E20FF31F608170E0082E02C0759530
:101F800067950A94E2F761706D8BD9011196FA0199
:101F9000EA0FFB1F608170E0082E02C075956795FF
:101FA0000A94E2F761706E8B7901E2E0EE0EF11CAB
:101FB000BA016E0D7F1DFB01608170E0082E02C02A
:101FC000759567950A94E2F761706F8B89010D5FD3
:101FD0001F4F400F511FFA01408150E0082E02C0F0
:101FE000559547950A94E2F74170488F4091D60580
:101FF000F0E14F9FA0011124465F5E4FBA01620FCE
:10200000731FFB01608170E0082E02C07595679513
:102010000A94E2F76170698BBA016A0F7B1FFB01BA
:10202000608170E0082E02C0759567950A94E2F70A
:1020300061706A8BBA016E0D7F1DFB01608170E0DB
:10204000082E02C0759567950A94E2F761706B8B54
:10205000400F511FFA01408150E0082E02C05595F3
:1020600047950A94E2F741704C8B4091D505F0E119
:102070004F9FA0011124465F5E4F240F351FF901C9
:10208000208130E0082E02C0359527950A94E2F7AA
:1020900021702983A40FB51F2C9130E0082E02C0B7
:1020A000359527950A94E2F721702A83F701E40F0A
:1020B000F51F208130E0082E02C0359527950A943F
:1020C000E2F721702B83040F151FD8012C9130E00B
:1020D000F90102C0F595E7958A95E2F7CF01817085
:1020E0008C835E01F1E1AF0EB11C81EDE82E85E03D
:1020F000F82E91E5C92E96E0D92E10E000E0992443
:102100009394D5018D915D01811107C0E1E0F0E06C
:10211000EC0FFD1FE00FF11F8081F70181937F011C
:10212000D6018D916D018823B9F18091EC07811161
:1021300033C08091100781112FC080910A059091C2
:102140000B058A3AB1E09B070CF078C08091A0069D
:1021500081116BC00E9456262EEF34E040E050E023
:102160000E94C42664557340810991097093D0057B
:102170006093CF0520910A0530910B058091CF0522
:102180009091D005821793073CF0E5E1F0E0EC0F69
:10219000FD1FE00FF11F10820F5F1F4F043011056C
:1021A00009F0AFCF8E010B5E1F4FF12CE12CD8014F
:1021B0008D918D01BFEFEB1AFB0A882321F060E0BF
:1021C000C7010E94D703E4E0EE16F10481F7809185
:1021D000F10590910D06992309F474C0811175C021
:1021E0000E948D0310920D068091E805882309F462
:1021F00081C08091CE0581116DC00E94C70381E02E
:10220000809301010C946F208F7021E030E08717DC
:1022100010F430E020E02759394FD9018C918CCE51
:1022200080931C0580930D0592CE0E9456262AEAC3
:1022300031E040E050E00E94C42698CF85359240BE
:102240000CF4AACF8091A006811135C00E945626B9
:1022500022E035E040E050E00E94C4266C5A7D4FF9
:102260008F4F9F4F7093D0056093CF05F701319743
:10227000808181110AC0E5E1F0E0EC0FFD1FE00F65
:10228000F11F8081882309F487CF20910A053091BE
:102290000B058091CF059091D005281739070CF4D4
:1022A0007BCFE5E1F0E0EC0FFD1FE00FF11F808137
:1022B0008925808371CF0E9456262CEA31E040E0C8
:1022C00050E0CACF882309F48FCF0E94B003109248
:1022D000F1058ACF1092CE050E945A01609315072E
:1022E00070931607809317079093180781E08093E7
:1022F0001A0785CF10910101113031F48091CE057C
:1023000081110CC00E94C70380910401181708F0C6
:1023100076CF1F5F109301010C946F201092CE05B1
:102320000E945A0160931507709316078093170750
:102330009093180710931A07E7CF80916B06682FC8
:1023400001E010E002C0000F111F8A95E2F7E69548
:10235000E150FF0BA4E0EE0FFF1FAA95E1F780917B
:102360001C058150990B880F991F880F991FE80F42
:10237000F91F9F01265F3E4F6901A4EFB5E028EFEA
:1023800035E0F601F1906F014F2D50E040235123CD
:1023900081E0452B09F48C91A60141505109062E8C
:1023A00001C0880F0A94EAF78F29FA0180831D92F1
:1023B0002A173B0731F70C946F2031110C9415212B
:1023C0001091EA07AAE5B5E066E575E030E020E0A7
:1023D0008D9190E0FB014191BF0150E02F5F3F4F95
:1023E000880F991FFC01EF5CF84FE40FF51F815E29
:1023F000984F840F951F4081FC018081841728F439
:102400001217130609F44CC0122F2430310501F7BE
:102410001093EA0780913F07882309F483C0109244
:1024200018050E94A90480912D07811133C0809165
:102430001B0790911C07A0911D07B0911E07809368
:10244000FB069093FC06A093FD06B093FE068091D8
:10245000FA068823E1F08091AE06882309F458C07B
:102460008091AF06882309F453C08091B006882379
:1024700009F44EC08091B106882309F449C0109236
:10248000AE061092AF061092B0061092B10681E02F
:102490008093FA060E94EE050E9465050C94CD23F8
:1024A00010E0B3CFE13021F42093C7060C94FC2157
:1024B000E23021F42093BF060C94FC21E33011F0AC
:1024C0000C94FC212093BB060C94FC21880F0C94E7
:1024D000B922880F0C94C822825A9A4FFC0180813D
:1024E0009181A281B381481759076A077B0710F0D1
:1024F0000C94B2238093050190930601A0930701E9
:10250000B09308010C94B2230E94CF080C94CD2301
:1025100081E08093AE068093AF068093B0068093EF
:10252000B106B5CF0091EC071091EA07002309F43A
:1025300030C50E943405FF24F394F09218051092E0
:10254000B806123009F481C208F0DDC0112309F485
:10255000FFC1113011F00C94CD230E94EE050E94B2
:102560006505DE011196CE014196FD011192E81735
:10257000F907E1F720911C052150330B220F331F7F
:10258000220F331F80916B0661E070E001C0660F7F
:102590008A95EAF7962E909480919D06882309F4F7
:1025A0001DC28091370780930A078091330780937B
:1025B0000B078091350780930C078091310780933A
:1025C0000D07809119078823A9F180910E0680FFDD
:1025D00031C00EE915E07AE9E72E75E0F72E40915B
:1025E0005506E0E14E9FA0011124420F531FD12C4C
:1025F000C12CF80181918F01F70171917F0190E069
:10260000880F991F8F5C984F870F911DFC01808167
:10261000882349F0C601840F951F865F9E4FFC01F9
:10262000708179217083FFEFCF1ADF0A64E0C6164C
:10263000D104F9F64DE856E090E080E071E0FA014F
:102640006191AF01662351F0FC01E20FF31FEA0F25
:10265000FB1F7083FC01E358F94F708301968430AF
:10266000910569F702E915E07EE8E72E75E0F72E9F
:102670009D0150E040E081E0F80191918F01692FC8
:1026800070E0F701C1907F01D12C3B01660C771CF3
:10269000B3016F5C784F5B01AC0CBD1CF501908100
:1026A000992389F0F301E15EF84FEC0DFD1D908157
:1026B000911109C0F9018083818382838383FA01A8
:1026C000E358F94F84834F5F5F4F2C5F3F4F443097
:1026D000510591F680E190E04AE151E02D912223ED
:1026E00071F0FA01E81BF90B30E020E070817921EC
:1026F00070832F5F3F4F709620343105B9F70197F3
:1027000069F70C94CD23133009F404C4143011F08C
:102710000C94CD230E94E305D0906B06DB8E809154
:102720001B058823E1F040911B0750911C07609125
:102730001D0770911E0710921B05F0925C06F09227
:10274000150540935D0650935E0660935F06709397
:10275000600610920B0610920A06D0920901909121
:102760000A068091150560915C06992309F4D6C389
:10277000282F30E0F901EA57FA4F408122583A4FAA
:10278000D9015C91B4E04B9F900111242E54394F34
:10279000250F311DF9016083F091A306F98F709127
:1027A0000901F2E92F2EF5E03F2EAEE84A2EA5E012
:1027B0005A2EB6E98B2EB5E09B2E2EE4622E25E034
:1027C000722E3EE9A32E35E0B32E4AE9C42E45E031
:1027D000D42E50E040E0D1012D911D0130E0F201F6
:1027E000A1912F01B0E0220F331FF901EF5CF84FE8
:1027F0007F01EA0EFB1EF701F080215E384FFD01DC
:10280000E20FF31FE080D4012D914D01F3013191CE
:102810003F01E32FF0E0A4E02A9F90011124B98D3D
:10282000B1117FC32E54394FE20FF31F6083EF14B1
:10283000C8F0F501208130E0F601A081EA2FF0E038
:10284000220F331FD901AF5CB84F7D01EE0EFF1E82
:10285000215E384F2E0F3F1FD701EC91D9012C91EB
:102860002E17A0F491118F5FE82FE150FF0B9F010D
:10287000E35FFA4F91E0940F90832F59394FEB8D1E
:10288000D901EC93902F883009F410E04F5F5F4F2F
:10289000BFEFAB1ABB0AEFEFCE1ADE0A4430510588
:1028A00009F099CF8093150590930A061093EA07D3
:1028B0007093090100911B0710911C0720911D07BF
:1028C00030911E07C0905D06D0905E06E0905F06D6
:1028D000F0906006280139014C185D086E087F08E9
:1028E0007301620141EAC41646E8D40641E0E406F9
:1028F000F10460F041E0642760935C0600935D069C
:1029000010935E0620935F0630936006482F50E0D8
:1029100030E020E081E0241735079CF4992389F00A
:10292000F901EA57FA4FE081D901A258BA4F6C91E8
:1029300074E0E79FF0011124EE54F94FE60FF11D0A
:1029400080832F5F3F4F2830310529F70C94CD232A
:102950000E94F704E4EFF5E030E020E061E07191DF
:1029600071111BC0D901A256BA4F8C9190E0D901C8
:10297000A656BA4F4C9150E0880F991FDC01AF5C0E
:10298000B84FA40FB51F7C91772339F0815E984F23
:10299000840F951FDC017C917627DF0111977C93D2
:1029A0002F5F3F4F24303105D1F68091A506882353
:1029B00081F08091370780930A07809133078093D5
:1029C0000B078091350780930C0780913107809326
:1029D0000D070E94EE050E9431045ECD0EE915E060
:1029E000FAE9EF2EF5E0FF2E90E080E08824839452
:1029F000F80141918F01642F70E0F70141917F014F
:102A000050E05B01AA0CBB1CB5016F5C784F6B01F9
:102A1000C40ED51EF601D080DD2091F0F501E15EF7
:102A2000F84FE40FF51F408141110AC0FC01E20F8D
:102A3000F31FEA0FFB1F8082FC01E358F94F8082ED
:102A4000019684309105A1F60DCE0E9465050E9485
:102A5000EE054091110741110CC0F0921207EAEF08
:102A6000F5E08AE096E011928E179F07E1F7109249
:102A7000F90550911207552309F475C040901C05C3
:102A8000042D0150110B2801440C551C440C551CFD
:102A9000E090F805F090F9050EE9602E05E0702E43
:102AA0008AE9A82E85E0B82E92E9892E95E0992E24
:102AB0002EE8C22E25E0D22EEDE7F6E0352E21E0FD
:102AC00030E022242394D3018D913D0190E0D50183
:102AD0006D915D0170E0880F991F8C010F5C184F9C
:102AE000060F171F815E984F860F971FD8016C91B4
:102AF000DC018C91861758F4C901840D951D87500F
:102B00009A4FDC012C92E22E2082452F312CD401E9
:102B10008D914D0190E0D6016D916D0170E0880FAF
:102B2000991F8C010F5C184F060F171F815E984F7D
:102B3000860F971FD8016C91DC018C91861720F4C9
:102B4000F22E2482452F312C2F5F3F4F31962530B6
:102B5000310509F0B8CFE092F805309212074093A2
:102B60001107F092F90580919F06882309F448C067
:102B700080911107882309F443C02091F80522238E
:102B8000A9F02150330BF901E256FA4F808190E011
:102B900026563A4FF9012081880F991F8F5C984F74
:102BA000820F911DDC018C918823C9F02091F905D9
:102BB000222331F12150330BF901EE56FA4F808177
:102BC00090E022573A4FF9012081880F991F8F5CBE
:102BD000984F820F911DDC018C91811111C081E011
:102BE00080931207109211071092F8051092F905C0
:102BF000EAEFF5E08AE096E011928E179F07E1F781
:102C000080911107882311F40C94CD23A090F9052D
:102C100080911C058150990B880F991F880F991F6F
:102C200020916B069924939401C0990C2A95EAF798
:102C3000AA2009F4B4C0B12C3501B1E06B1A7108B7
:102C4000660C771C660C771CEEE9F5E0FE8FED8FC5
:102C50000AE915E01C8F0B8F22E935E03A8F298FA6
:102C6000BEE82B2EB5E03B2E4DE756E058A34F8F24
:102C7000A30130E020E088248394B5016058794FA7
:102C80005B01AD8DBE8D6D91BE8FAD8F70E0AB8D54
:102C9000BC8DED91BC8FAB8FAE2FB0E0660F771F70
:102CA0008B010F5C184F0A0F1B1F615E784F6A0F74
:102CB0007B1FD801EC91DB016C916E17E0F4DC0115
:102CC000A65FBE4F70E060E0FC908D01081B190B01
:102CD000040F151FF80110811F251921F126FC9200
:102CE0006F5F7F4F50966034710571F7AF8DB8A15B
:102CF0008C92F5018082A98DBA8D6D91BA8FA98FC2
:102D000070E0F101A1911F01B0E0660F771F8B0108
:102D10000F5C184F0A0F1B1F615E784F6A0F7B1FF5
:102D2000F801A081FB0160816A1740F58901065F07
:102D30001E4F70E060E0D801F12CE12C5C906D0139
:102D4000C21AD30AC60CD71CF601D080D524D920CC
:102D50005D245D92FFEFEF1AFF0AE4E0EE16F10446
:102D600069F76F5F7F4F005F1F4F6034710519F780
:102D7000AF8DB8A114968C92F50180820F8D18A1A9
:102D80000F5F1F4F18A30F8F2C5F3F4F01964F5FB0
:102D90005F4F2031310509F074CF0C94CD23209181
:102DA000F8052150330B0EE9A02E05E0B02E4AE9BC
:102DB000442E45E0542E52E9252E55E0352E4EE89E
:102DC00055E05A8F498F6DE776E07C8F6B8F41E03D
:102DD000D901A358B94F3D01F50161915F0170E040
:102DE000D2015D912D01E52FF0E0660F771F8B0179
:102DF0000F5C184F0E0F1F1F615E784F6E0F7F1F05
:102E0000F8015081DB016C91651760F5BAEFCB2EAC
:102E1000B5E0DB2E70E060E0F60151916F015523C3
:102E2000B9F0FC01E65FFE4F10E000E050817F0149
:102E3000E81AF90AE60EF71ED701FC90F526F920EC
:102E40005F2550830F5F1F4F70960034110571F797
:102E50006F5F7F4F60317105F9F6EB8DFC8D40831C
:102E6000D3014C93F10161911F0170E0A98DBA8DDE
:102E7000ED91BA8FA98FF0E0660F771F8B010F5C81
:102E8000184F0E0F1F1F615E784FE60FF71FD80116
:102E90005C916081651760F56AEFC62E65E0D62EFD
:102EA00070E060E0F60151916F015523B9F0F9012E
:102EB000E65FFE4F10E000E050817F01E21AF30A66
:102EC000E60EF71ED701FC90F526F9205F2550830A
:102ED0000F5F1F4F70960034110571F76F5F7F4FC2
:102EE00060317105F9F6EB8DFC8D4483D3014C9371
:102EF000EB8DFC8D3196FC8FEB8F2C5F3F4F019655
:102F000052EAC52E55E0D52ECA14DB0409F064CF71
:102F10000C94CD230E940D060C94CD236093D10612
:102F20003BCCEF1408F4742F2E54394F2E0F3F1F53
:102F3000E1E07417150609F0E0E0D901EC93F50122
:102F4000208130E0D601EC91F0E0220F331FD9014F
:102F5000AF5CB84F7D01EE0EFF1E215E384F2E0F85
:102F60003F1FD701EC91D9012C912E1708F08ECC80
:102F700091118F5FE82FE150FF0B9F01E35FFA4F44
:102F800091E0940F90832F59394FD9017C93998DFB
:102F90007ACC0E94340501E0009318051092B8061F
:102FA000123009F4DCC108F09CC0112309F49EC161
:102FB000113011F00C94CD230E9431040E9465055C
:102FC0008091920681111093B8060E9405038091AA
:102FD000190700913707882309F459C080910E061C
:102FE00080FD55C001110DC080913307811109C0CA
:102FF00080913507811105C080913107882309F43C
:10300000A4C110910F0720915A0630915B06ABEFD7
:10301000BFEF0E9433272FEF33E040E050E00E94E3
:10302000C4262B5F3F4F4F4F5F4F22593A4FD90174
:103030008C918150990B181719060CF070C11F5F05
:1030400010930F07E0910C06F0E0EB5FF84F9081D2
:1030500080911D05992371F02FEF290F90910F0793
:103060009F5F382F369536953695329F900D1124F7
:1030700090931007869590911007891718F4981B64
:103080009093100781E0809392068093B806809118
:103090009C06882389F001110CC0809133078111AF
:1030A00008C080913507811104C0809131078823C1
:1030B00029F081E08093C60601110FC0809133078B
:1030C00081110BC080913507811107C080913107B4
:1030D000811103C081E08093B8060E94EE050C9434
:1030E000CD23133009F45BC4143011F00C94CD23BC
:1030F0000E94A9040093B8060E945E050E94E305A1
:1031000080910E0720915A0630915B06882309F4BE
:1031100045C010920E078091A206882309F458C575
:1031200080911505823008F453C580916B0691E0BB
:10313000980F9093690610926A06809361068093B7
:10314000620680936306809364068093650680938D
:103150006606809367068093680680911B079091AE
:103160001C07A0911D07B0911E0780935D069093E8
:103170005E06A0935F06B093600681E080935C06D4
:1031800030935906209358061092570680911D05DA
:10319000813208F429C580E28093560600913C07ED
:1031A00080912A07081730F4109257063093590679
:1031B00020935806E0906906F12C10916A0662E9A6
:1031C00075E0BEE8CB2EB5E0DB2E50E040E0DB0141
:1031D0008D91BD0190E0D601ED916D01F0E04F5F62
:1031E0005F4F880F991FDC01AF5CB84FAE0FBF1F58
:1031F000815E984FE80FF91F8C919081981720F409
:10320000E416F50609F0142F4430510501F7109328
:103210006A068091580690915906821B930B97FF7E
:1032200003C091958195910906973CF080915706CE
:10323000811103C081E080935706809157069091D9
:103240001D05913208F4D2C4882389F001110FC002
:1032500021503109AFEDBFEF0E9433272FEF33E04C
:1032600040E050E00E94C42621952093560690919C
:10327000560620E230E0F901E91BF109CF0121E017
:103280001E161F060CF020E02093D10621E08530A9
:1032900091050CF420E02093B50621E089309105DA
:1032A0000CF420E02093B90621E08D3091050CF458
:1032B00020E02093BD0621E0813191050CF420E04F
:1032C0002093C10621E0853191050CF420E0209384
:1032D000C50621E0893191050CF420E02093C90650
:1032E00021E04D970CF0D2C420E0D0C40E94F70436
:1032F0008091A406882381F08091370780930A0784
:103300008091330780930B078091350780930C07DA
:103310008091310780930D070E94F7045ACB80916A
:103320000C0610920F0791E090930D06E82FF0E045
:10333000EA5FF84F9081992331F0843020F48F5F59
:1033400080930C067FCE81E0FBCF10921007109285
:103350000F0781E080930C061092920698CE0E948F
:1033600031040E94650580919E068111FCC1009385
:10337000B80620915A0630915B0621503109A6EF1C
:10338000BFEF0E9433272FEF33E040E050E00E9470
:10339000C426275F3F4F4F4F5F4FE22FF0E0EC58BE
:1033A000FA4F408150E0FE01319666E875E0BEE7D5
:1033B000CB2EB5E0DB2E27E030E0CA01022E02C0A2
:1033C000959587950A94E2F7082F01700193DB0128
:1033D0008D91BD01D601FD906D01B4E08B9FC001C0
:1033E00011248E54994F8F0D911DDC010C932150A7
:1033F000310918F7209104072111E4C081E02091E0
:10340000250790913707291708F080E020912107C0
:1034100090913307291708F0182F90912307809176
:103420003507981708F413E09091310780911F0732
:10343000891708F414E01093040790910407609032
:103440001C05062D0150110B3801660C771C660C0B
:10345000771C30916B06232E20914F0680915006E9
:10346000AA24A39401C0AA0C3A95EAF77DE8472E56
:1034700076E0572E50E040E099249394B301665FC4
:103480007E4F3B01D2013D912D01332309F46CC0E5
:10349000FA01E358F94F9082F301E40FF51FFA8F18
:1034A000E98F830170E060E0F12CE12CA98DBA8DE9
:1034B000BC902B2D30E0022C02C0359527950A9444
:1034C000E2F76901B1E0CB22DD2480E0B0E0A0E0CA
:1034D000A417B50779F081110DC0C8018A0F9B1F91
:1034E000FC01808190E0022C02C0959587950A949A
:1034F000E2F781701196A430B10551F7CD2811F48F
:103500008823D9F0A1E0B0E0AC0FBD1FA60FB71F14
:103510009C91911121C1BA28A98DBA8DBC92B0E0BD
:10352000A0E0A417B50729F06801CA0EDB1EF6015A
:1035300010821196A430B105A1F7673071050CF027
:103540000FC16F5F7F4FBFEFEB1AFB0AE98DFA8D5A
:103550007096FA8FE98F005F1F4FF0E4EF16F104C9
:1035600009F0A4CF217090E04F5F5F4F44305105C8
:1035700009F088CF8093500620934F06909304075C
:103580008091370781110C94CD23809133078111ED
:103590000C94CD238091350781110C94CD2380911B
:1035A000310781110C94CD23109204071092050766
:1035B00010920A0710920B0710920C0710920D0739
:1035C0000C94CD234AE057E00EE915E06AE975E076
:1035D00090E080E0E22FE150FF0B1F0121E0281670
:1035E000390609F420E0DA012D93AD01F8012191AB
:1035F0008F0130E0DB01ED91BD01F0E0220F331FC0
:10360000D901AF5CB84FAE0FBF1F215E384FE20F3C
:10361000F31F2C913081321708F098C010920A07DE
:1036200010920B0710920C0710920D07E0911C05E9
:10363000E150FF0BEE0FFF1FEE0FFF1F20916B06F7
:10364000422E61E070E001C0660F2A95EAF76095AE
:1036500081010E0F1F1F065F1E4FE80FF91FE65F67
:10366000FE4FF12CE12CD12CC12C71E0D8017C90C3
:10367000A72DB0E04D01042C02C0959487940A94C4
:10368000E2F79A8E898E208130E0042C02C03595B5
:1036900027950A94E2F77622822A932A540141E080
:1036A000A422BB2440E080FE0AC088248394912C8D
:1036B0008C0E9D1E8E0C9F1CD4014C914727042C10
:1036C00001C0440F0A94EAF74729D8014C9390802F
:1036D000962240E0AB2849F0AA24A394B12CAC0E6A
:1036E000BD1EAE0CBF1CD5014C91042C01C0440F73
:1036F0000A94EAF749294083B7E0EB16F1041CF578
:103700004FEFE41AF40A5FEFC51AD50A005F1F4FA6
:103710007096A0E4CA16D10409F0A8CF21702093B6
:103720005006A98DA170A0934F06F101E358F94FFF
:1037300021E020838358994FFC01208310920407D5
:10374000109205077ACEF12CE12CDDCF0196843062
:10375000910509F043CF71CEA98DBA8D1C92EDCEA3
:1037600070E060E0F0CE80911905882309F440C034
:1037700080916B06682FEE24E394F12C02C0EE0CCE
:10378000FF1C8A95E2F7EFE0F6E080911C0581507E
:10379000990B880F991F880F991F865F9E4F119272
:1037A00010E050E040E09C01240F351FD9012C911E
:1037B00030E02E213F21062E02C0359527950A9430
:1037C000E2F7042E01C0220F0A94EAF7122B4F5F92
:1037D0005F4F4430510539F79F0121503109D9011C
:1037E0001C934096B6E0EF34FB07C9F6109219051A
:1037F0003EE9232E35E0332E0AE915E01A8F098FB2
:10380000F12CE12CD1018D911D0190E0A98DBA8D93
:10381000ED91BA8FA98FF0E0880F991FDC01AF5CA2
:10382000B84FAE0FBF1F815E984FE80FF91F9C91F4
:103830008081891708F0AAC060901D05462C469427
:1038400046944694512C4E9CF0014F9CF00D5E9C8A
:10385000F00D112480910E06282F30E089010250CE
:10386000110917FF02C00F5F1F4F159507950F5FD6
:103870001F4F6694712C0615170511F410E000E037
:103880009F01215F394F690180FF26C0D9018C91CA
:10389000982F9170998381FB992790F99A8382FBE5
:1038A000992790F99B8383FB882780F98C83FE01FD
:1038B00031964F01B12CA12CD4018D914D01BFEF58
:1038C000AB1ABB0A882321F060E0C5010E94D70330
:1038D000E4E0AE16B10481F780916B06882EAA242D
:1038E000A394B12C02C0AA0CBB1C8A95E2F7BA2C97
:1038F000B09480911C058150990B880F991F880FF7
:10390000991F9801B4E0220F331FBA95E1F7820F97
:10391000931F865F9E4FF60170E060E064157505A9
:10392000ACF5A191CA2ED12CDC8ECB8E50E040E0BC
:103930006C01C40ED51E21E030E0042E02C0220F1F
:10394000331F0A94E2F7AB8DBC8D2A233B23042E50
:1039500002C0359527950A94E2F7082C01C0220F82
:103960000A94EAF7D6013C913B21232B2C934F5F1D
:103970005F4F44305105E1F640969B01200F311F07
:103980002615370519F06F5F7F4FC8CFBFEFEB1AD1
:10399000FB0AE4E0EE16F10409F034CF9ECB0E945E
:1039A00031040E946505109218050E94E3050093FA
:1039B000B80620915A0630915B0680911A0588233B
:1039C00041F03093590620935806109257061092F2
:1039D0001A058091580690915906821B930B97FF08
:1039E00003C091958195910906973CF08091570607
:1039F000811103C081E08093570680915706882388
:103A000041F08FEF93E0821B930B90930B05809313
:103A10000A0580910A0590910B052091C10630910D
:103A2000C5064091C906E091CD06F091D106B0914E
:103A3000B506A091B9065091BD0668E070E08A3ADB
:103A400001E090078CF48038910534F08F3F9105A8
:103A50002CF4B1E0A1E006C0F1E0FBCF8E3711E01D
:103A60009107C4F351E014C0853502E0900784F05B
:103A70008B3712E091075CF08A3F22E0920734F026
:103A8000893733E093070CF0A1C041E031E021E039
:103A900061507109A1F6B093B506A093B9062093C1
:103AA000C1063093C5064093C906E093CD06F09356
:103AB000D1065093BD06809155066091EE070E9495
:103AC000272780930C0590E030915C06FC01EA57B3
:103AD000FA4F208182589A4FDC014C91B4E02B9F21
:103AE000C00111248E54994F840F911DFC01308325
:103AF00080911B0790911C07A0911D07B0911E0794
:103B000040915D0650915E0660915F06709160067F
:103B10002C013D01441A550A660A770AB301A20135
:103B2000413A56486140710560F021E032273093F8
:103B30005C0680935D0690935E06A0935F06B0934B
:103B400060062EE935E05AE9E52E55E0F52E06EA45
:103B500015E062EA75E0A1E5B6E0E2EACE2EE5E026
:103B6000DE2EBB24B394F90181919F0190E0F7010F
:103B700041917F01E42FF0E0880F991FAC014F5C69
:103B8000584F4E0F5F1F815E984F4F01880E991E50
:103B9000FA019081F4018081891718F48C918B25AA
:103BA0008C93F80181918F01FB014191BF01F4E0F9
:103BB0008F9FC00111248E54994F840F911D4D91F8
:103BC000FC014083C216D30671F6E7C5E1E05DCF84
:103BD00080911C058093690610926A0691E090938B
:103BE000150580930D05B9CA80E1D6CA882389F0EE
:103BF00001110FC021503109AFEEBFEF0E943327F2
:103C00002FEF33E040E050E00E94C426219520933E
:103C100056069091560620E130E02901491A5108D4
:103C2000C20121E0181619060CF020E02093D106FD
:103C300021E0833091050CF420E02093B50621E0CB
:103C4000853091050CF420E02093B90621E08730FF
:103C500091050CF420E02093BD0621E08930910508
:103C60000CF420E02093C10621E08B3091050CF488
:103C700020E02093C50621E08D3091050CF420E072
:103C80002093C90621E00F970CF42ECB2093CD068C
:103C900080901B0790901C07A0901D07B0901E07F6
:103CA00080915D0690915E06A0915F06B0916006DE
:103CB00024013501481A590A6A0A7B0A00915C06F8
:103CC0009701215031096901112309F491C0F701CD
:103CD000EA56FA4F8081F701E25BFA4F208134E027
:103CE000839FC00111248E54994F820F911DFF2490
:103CF000F394DC01FC920E945E05B1EA4B16B6E833
:103D00005B06B1E06B06710458F00F2500935C066A
:103D100080925D0690925E06A0925F06B092600669
:103D200020915C06F601EA56FA4F8081F601E25BCB
:103D3000FA4F3081E4E08E9FC00111248E54994FD8
:103D4000830F911DDC012C93E12FE150FF0BCF017C
:103D5000EA56FA4F3081825B9A4FDC014C91B4E015
:103D60003B9FC00111248E54994F840F911DFC017B
:103D700020838091A2068823B1F1809115058230BD
:103D800090F180916B0690E0FC01EA56FA4F308189
:103D9000825B9A4FDC014C91B4E03B9FC00111243F
:103DA0008E54994F840F911D31E0FC013083809136
:103DB00055066091EE070E94272780930C0590E03E
:103DC000FC01EA57FA4F308182589A4FDC014C913E
:103DD000B4E03B9FC00111248E54994F840F911D74
:103DE000FC012083DAC480911C058150990BCCCF53
:103DF0000E94EE05F1EA4F16F6E85F06F1E06F0665
:103E0000710460F081E0082700935C0680925D06F3
:103E100090925E06A0925F06B092600680915C066A
:103E20008093CC068093C7068093BF068093BB0621
:103E3000F601EA56FA4F8081F601E25BFA4F2081E3
:103E400004E0809FC00111248E54994F820F911D70
:103E500021E0DC012C93A1C4930124503109F90124
:103E6000EA56FA4F8081225B3A4FF9012081F4E053
:103E70008F9FC00111248E54994F820F911DFC0118
:103E8000A08320C5DA01A256BA4F2C9130E0DA01A6
:103E9000A656BA4FAC91CA2ED12C220F331F8901DE
:103EA0000F5C184F0C0D1D1DD8011C91112309F436
:103EB0007EC5215E384FD601A20FB31F2C91211170
:103EC00076C5DA01AA0FBB1FAA0FBB1FA651B94FB7
:103ED0006D937D938D939C931397DA01AA51B94FFB
:103EE0002C91211102C0FC9262C5F08260C5309114
:103EF0009706311145C61092BA0642C610921207B3
:103F00001092110721E020931B05109210071092C8
:103F10000F0720931A0520930E0710920A0710929C
:103F2000060710920B071092070710920C071092C9
:103F3000080710920D0710920907341709F45FC69D
:103F400021E0209319051092040710920507209193
:103F50003C0721110AC0109200071092010710922D
:103F60000207109203071092FF060091FB061091C2
:103F7000FC062091FD063091FE062B013C01401A03
:103F8000510A620A730A930182010139104D2340DC
:103F9000310510F01092FA06EAEEF6E0A6EEB6E071
:103FA0002AEF36E0C190D190E190F1902B013C01D5
:103FB0004C185D086E087F087301620101E9C016A4
:103FC00000EDD00603E0E006F10408F01C92119623
:103FD0002E173F0739F7509313074093140720918A
:103FE0001A072223A9F000911507109116072091B6
:103FF000170730911807601B710B820B930B603D04
:1040000077408105910520F00E94C70310921A079E
:1040100010921907E1E3F7E0AFE1B7E080818C93FC
:10402000818111968C9311973296129627E0E33492
:10403000F207A1F780911C058093ED0780E090E0E6
:10404000892B29F00E94E90181110E9400000E9441
:104050008C028091E805882311F40C94F40E809171
:10406000E7058093E60590910401913011F00C94DE
:10407000AC0E2091E505222311F40C94A30E40917F
:104080001B0750911C0760911D0770911E0700913E
:10409000E1051091E2052091E3053091E405401B14
:1040A000510B620B730B0091DD051091DE05209121
:1040B000DF053091E005041715072607370710F0D4
:1040C0000C94A30E9093DC051092E50581110C94DD
:1040D000690E8091F205882311F40C94240F8091CD
:1040E000E6058093DB0540903B07442009F449C076
:1040F0000EE915E04AE9C42E45E0D42E52E9852E9A
:1041000055E0952E6EE8E62E65E0F62E72EAA72EB3
:1041100075E0B72ED8018D918D0190E0D601ED911B
:104120006D01F0E0880F991FDC01AF5CB84FAE0F56
:10413000BF1F815E984FE80FF91F9C9180818917FE
:10414000A8F0F401808190E0D701EC91F0E0880FB5
:10415000991FDC01AF5CB84FAE0FBF1F815E984F57
:10416000E80FF91F9C918081891710F40E947C044C
:10417000BFEF8B1A9B0AEFEFEE1AFE0AA016B106EC
:1041800049F6809141078093EC0790912F0789179A
:1041900031F090919906911102C01092EA07509067
:1041A0003D0730913C07552011F40C94DD1190919E
:1041B0002B07911106C08093EB079091EA0790932B
:1041C000E907209116059091170550912807409115
:1041D0003A07541710F4282F91E050912E07409180
:1041E0004007541710F4282F92E050912607409171
:1041F0003807541710F4282F93E05091340740915A
:104200002207451710F4282F94E020931605909369
:10421000170581E0211101C080E08093EC079093A5
:10422000EA07332311F40C940A120E945E050E94DF
:104230002D050E94EE0581E08093B806A0915A06F4
:10424000B0915B0690912A07911108C0B09359066E
:10425000A09358061092570680931A05809158062D
:10426000909159068A1B9B0B97FF03C091958195EE
:10427000910906973CF080915706811103C081E0B7
:104280008093570680915706882361F18091F3054A
:10429000F4E08F9FC0011124FC01E25AFA4FC08064
:1042A000D180E280F3808A599A4FFC0120813181CC
:1042B000428153812C193D094E095F090E94EE2667
:1042C0002FEF33E040E050E00E94C426C20ED31E20
:1042D000E41EF51EC0920501D0920601E09207018E
:1042E000F092080160909A067091A20660911505FF
:1042F0001091690600910E0770906A0630916B0666
:1043000020900B06312C462F4150550B5E8F4D8F60
:1043100020915C0680901B0790901C07A0901D07C1
:10432000B0901E07C0905D06D0905E06E0905F06DC
:10433000F090600682E995E09A8F898FAEE8B5E04B
:10434000BC8FAB8F40E051E0F101EE59F94FF8A37B
:10435000EF8FA98DBA8D8D91BA8FA98F90E0AB8D1B
:10436000BC8DED91BC8FAB8FF0E0880F991FDC0105
:10437000AF5CB84FAE0FBF1F815E984FE80FF91FBB
:104380008C919081981798F4611001C0342F81E0CE
:10439000830FE1E6F6E04193772329F0623018F0CD
:1043A000072F182F712CB6E0E936FB07A1F7832FF2
:1043B00090E0FC01EA56FA4FA081FC01E25BFA4F63
:1043C000E081F4E0AF9FC00111248E54994FE80FB3
:1043D000F92FF11D50838D8D9E8DE0916106281679
:1043E00039061CF4AF8DB8A1EC91E31799F0E111F7
:1043F0000C9452122093CC06D501C4018C199D094E
:10440000AE09BF09813A9648A140B10518F02527A9
:10441000750164014F5F443009F09BCF20935C0627
:1044200030936B061093690600930E0770926A062C
:10443000E0930301C0925D06D0925E06E0925F06B3
:10444000F09260063090EC07A32DB0E06AE575E0CD
:1044500036E5632E35E0732E42E5E42E45E0F42E7A
:104460000EE415E0A456B94FAD0122242394FB01BC
:104470008191BF0190E0F30121913F01E22FF0E033
:10448000880F991F9C012F5C384F6901CE0EDF1EEB
:10449000815E984F9F01280F391FF6018081F90135
:1044A0009081981718F48C9182258C93F701819153
:1044B0007F01F80131918F01F4E08F9FC001112439
:1044C0008E54994F830F911D2C91FC0120831296DD
:1044D000F5E06E357F0759F690913F0780912D07E3
:1044E000891778F4DA0118968C911897E1E08E27F5
:1044F00018968C93232D2E27E22FF0E0E456F94FE7
:104500008087FA018085882319F081E08093C906AD
:1045100080912907841530F48091F20591E0892774
:104520008093F2058091F205882319F081E0809351
:10453000B50680912B07851530F48091F30591E045
:1045400089278093F3051091F305112329F081E069
:104550008093BD068093C10690913707809125070F
:10456000891748F480910401883011F00C94661288
:1045700081E080930401909133078091210789178E
:10458000A0F580911D05803811F00C94691280E22D
:1045900080931D0580911D0582958F708093EE0795
:1045A00010920E0610920B0680910D0580931C054B
:1045B0008091610680936B0681E08093F105809382
:1045C000FF0680925D0690925E06A0925F06B09212
:1045D00060068092ED059092EE05A092EF05B092F4
:1045E000F00580935C060E947C048091FF0688237E
:1045F00009F464C00E94E30580911B0790911C0799
:10460000A0911D07B0911E0740915D0650915E0676
:1046100060915F06709160063C014D01641A750A55
:10462000860A970AB401A3014135534C610571050F
:1046300070F020915C0631E0232720935C06809384
:104640005D0690935E06A0935F06B093600640916E
:10465000ED055091EE056091EF057091F005841B1A
:10466000950BA60BB70B81349244AF40B10510F007
:104670001092FF0620911D0522952F7030E0609169
:104680005C0681E0682790E080E08217930794F44D
:10469000FC01EA57FA4F4081FC01E258FA4F708161
:1046A000A4E04A9FA00111244E54594F470F511DB9
:1046B000FA01608301968830910539F790913507AA
:1046C00080912307891708F05CC0C0901B07D09029
:1046D0001C07E0901D07F0901E07C092E905D092DC
:1046E000EA05E092EB05F092EC05109257068091F6
:1046F000000790910107A0910207B091030700976E
:10470000A105B10579F1B701A601481B590B6A0B48
:104710007B0BB2E07695679557954795BA95D1F79B
:1047200040930501509306016093070170930801BF
:10473000F4E01F9FC0011124FC01EA59FA4F0081E7
:10474000118122813381041715072607370710F0DE
:104750000C946C120093050110930601209307013D
:104760003093080180E10E9448019093590680939C
:104770005806C0920007D0920107E0920207F0921B
:1047800003079091310780911F07891730F4442067
:1047900011F40C9484120E94610A90913D0780915B
:1047A0002B07981740F48091EB078093EC078091DA
:1047B000E9078093EA07809141078093B30640910F
:1047C0001B0750911C0760911D0770911E07809078
:1047D000710690907206A0907306B09074062090B7
:1047E0006D0630906E0640906F0650907006D09027
:1047F0006C0660901805698E05E816E01C8F0B8F1B
:104800002DE736E03E8F2D8FB5E7EB2EB6E0FB2E81
:10481000712C612CCC24C394AB8DBC8D9D91BC8F2D
:10482000AB8FED8DFE8D8191FE8FED8F981740F44B
:10483000D701CC921A012B014A015B01DD24D394EC
:10484000EB8DFC8D31978083ED8DFE8D319710823D
:10485000F7018081882309F463C0DB01CA0188194C
:104860009909AA09BB098135934CA105B10518F036
:10487000DC244A015B01DB01CA0182199309A40906
:10488000B50986319641A540B10510F0D7011C92BB
:10489000AD2DAC25B4E06B1671040CF0DDCAF3014C
:1048A000EA55FA4F8081F301EE55FA4F2081E4E09A
:1048B0008E9FC00111248E54994F820F911DFC01CF
:1048C000A083198E06EA15E01AA309A322EA35E0AF
:1048D00038A32F8FA5E7B6E0E9A1FAA18191FAA349
:1048E000E9A3EF8DF8A12191F8A3EF8F30E0F4E078
:1048F0008F9FC00111248C010E54194F020F131FFA
:10490000F801108111111C918E54994F820F931F41
:10491000FC011083119609A11AA10A5A1540E1F66B
:104920003FEF631A730A8FEFE81AF80A98E06916E6
:10493000710409F071CF698C60921805809271063C
:1049400090927206A0927306B092740620926D0641
:1049500030926E0640926F0650927006D0926C06AE
:1049600080913C0720913B0790912907921710F402
:10497000882331F09091420780913007891710F415
:104980000E947C040E945A0160931B0770931C07CD
:1049900080931D0790931E07EDE8F6E050E040E09D
:1049A000FF24F3942081222309F46CCA10824F5F04
:1049B0005F4F319644305105A9F702EE16E0A2EDA3
:1049C000B6E030E020E0DD24D394F80141918F017E
:1049D000442349F18D909D90AD90BC9013972B018D
:1049E0003C01481859086A087B085301420149E80C
:1049F000841643E19406A104B104A8F0F901E65538
:104A0000FA4F4081F901E656FA4FE081F4E04F9FFA
:104A1000A00111244E54594FE40FF52FF11D1082BF
:104A2000F80131971082498C442009F444C0F901FF
:104A3000EA55FA4F4081F901EE55FA4FE0812E2EEA
:104A4000312CE4E04E9FA0011124FA01EE54F94FFD
:104A50007F01E20CF31CF701B080F901E255F94F38
:104A6000C080F12CC11005C0F901E65FF84FF0805D
:104A7000FD24BF1020C08D909D90AD90BC901397E9
:104A80002B013C01481859086A087B085301420170
:104A9000E1E58E16E3EC9E06A104B10460F0C110BE
:104AA00004C0F901E65FF84FC0804E54594FF10140
:104AB000E40FF51FC0822F5F3F4F1496243031055D
:104AC00009F083CF0091AA061091AB062091AC06A5
:104AD0003091AD062B013C01401A510A620A730A5B
:104AE00093018201093843E114072105310548F09B
:104AF0001092C206013117422105310510F01092C3
:104B0000C40620919C06C090A606D090A706E0900F
:104B1000A806F090A9062B013C014C185D086E0810
:104B20007F087301620109E8C01603E1D006E104C1
:104B3000F10458F0211104C030919B06332319F081
:104B40003091970631111092BA06C0909306D0901A
:104B50009406E0909506F09096062B013C014C18C7
:104B60005D086E087F087301620109E8C01603E161
:104B7000D006E104F10430F02111B9C91092C60643
:104B800010929B06222391F02091370721110EC02D
:104B90002091330721110AC020913507211106C049
:104BA00020913107211102C01092C6062091920671
:104BB000222359F011E5C11613ECD106E104F104EA
:104BC00020F01092B80610929206209191062223AE
:104BD00051F0613523EC72078105910520F01092A8
:104BE000B80610929106309114074091EC0750914D
:104BF000EA07341383C92091130725137FC9209135
:104C0000130725139DC93091ED0720911C05321320
:104C100097C99DC98F929F92AF92BF92CF92DF9218
:104C2000EF92FF92CF93DF93EC01688179818A81C3
:104C30009B81611571058105910521F464E279ED8F
:104C40008BE597E02DE133EF41E050E00E94C42670
:104C500049015A019B01AC01A7EAB1E40E94E32695
:104C60006B017C01ACEEB4EFA50194010E94F1262A
:104C7000C60ED71EE81EF91EF7FE06C081E0C81A50
:104C8000D108E10880E8F80AC882D982EA82FB826A
:104C9000C701B6019F77DF91CF91FF90EF90DF9032
:104CA000CF90BF90AF909F908F9008958F929F92DA
:104CB000AF92BF92CF92DF92EF92FF9260911E056A
:104CC00070911F0580912005909121056115710556
:104CD0008105910521F464E279ED8BE597E02DE102
:104CE00033EF41E050E00E94C42649015A019B0184
:104CF000AC01A7EAB1E40E94E3266B017C01ACEEB3
:104D0000B4EFA50194010E94F126C60ED71EE81E3D
:104D1000F91EF7FE06C081E0C81AD108E10880E854
:104D2000F80AC0921E05D0921F05E0922005F0926D
:104D30002105C701B6019F77FF90EF90DF90CF90DC
:104D4000BF90AF909F908F90089560931E057093D1
:104D50001F0580932005909321050895F999FECFB2
:104D600092BD81BDF89A992780B50895262FF999AB
:104D7000FECF1FBA92BD81BD20BD0FB6F894FA9A3E
:104D8000F99A0FBE01960895052E97FB1EF4009424
:104D90000E94DB2657FD07D00E94F62607FC03D0B1
:104DA0004EF40C94DB2650954095309521953F4F5D
:104DB0004F4F5F4F089590958095709561957F4F07
:104DC0008F4F9F4F08950E941827A59F900DB49F65
:104DD000900DA49F800D911D11240895B7FF0C9490
:104DE000E3260E94E326821B930B0895A1E21A2E6C
:104DF000AA1BBB1BFD010DC0AA1FBB1FEE1FFF1F7F
:104E0000A217B307E407F50720F0A21BB30BE40BCE
:104E1000F50B661F771F881F991F1A9469F7609515
:104E20007095809590959B01AC01BD01CF010895CF
:104E3000A29FB001B39FC001A39F700D811D1124DB
:104E4000911DB29F700D811D1124911D0895991B14
:104E500079E004C0991F961708F0961B881F7A9571
:104E6000C9F7809508950E941827332312F48A1BEE
:104E70009B0B0C943D270E941827B7FF0895821BB7
:104E8000930B0895EE0FFF1F0590F491E02D099408
:044E9000F894FFCFC4
:104E9400010101010150C3000001070103010701E1
:104EA40003000700030107020506000007000000D5
:104EB40000000000030300000201000003030400DB
:104EC40001030300000403000300040007000000C2
:104ED40000010200050204000405010603010003A9
:104EE400070004060001020201000000070005009B
:104EF4000001010101020300020006000302020096
:104F0400010202000004060004050001070001007C
:104F14000200000005030202000005010703050169
:104F2400010205000000070006040000070000005D
:104F34000000010002020300010002000701020058
:104F44000101020001040300000004000700000046
:104F5400000100000407060204050102070104031E
:104F64000700050701000300020000040702030014
:104F74000003000000020200010004000700020018
:104F840007040000010504020404000107020700ED
:104F940000020100040201000001070107010701EA
:104FA40003000600010306000604000007000000D9
:104FB40000000200020200000100000007010400DA
:104FC40001010300050603030000040003020000BE
:104FD40004030200000304000404010207010003A7
:104FE4000500040701020301020100040700050093
:104FF4000201010000020000000006000702060092
:10500400010202000507070304040001070003006E
:10501400020000000202000003000501070307016B
:105024000102050001030602040400000700020057
:105034000200000000020301020000000703000058
:105044000703000001060202000104000704020035
:105054000201010402070600040401000301000721
:105064000300040301000004000200000302030023
:10507400000300000002000403000000030002001B
:1050840003000104010507010406000103020100F5
:105094000002000002020200020000000000000002
:1050A40000000000000000000000000000000000FC
:1050B40000000000000000000000000000000000EC
:1050C40000000000000000000000000000000000DC
:1050D40000000000000000000000000000000000CC
:1050E40000000000000000000000000000000000BC
:1050F40000000000000000000000000000000000AC
:10510400000000000000000000000000000000009B
:10511400000000000000000000000000000000008B
:10512400000000000000000000000000000000007B
:10513400000000000000000000000000000000006B
:10514400000000000000000000000000000000005B
:10515400000000000000000000000000000000004B
:10516400000000000000000000000000000000003B
:10517400000000000000000000000000000000002B
:10518400000000000000000000000000000000001B
:10519400000000000000000000000000000000000B
:1051A40000000000000000000000000000000000FB
:1051B40000000000000000000000000000000000EB
:1051C40000000000000000000000000000000000DB
:1051D40000000000000000000000000000000000CB
:1051E40000000000000000000000000000000000BB
:1051F40000000000000000000000000000000000AB
:10520400000000000000000000000000000000009A
:10521400000000000000000000000000000000008A
:10522400000000000000000000000000000000007A
:10523400000000000000000000000000000000006A
:10524400000000000000000000000000000000005A
:10525400000000000000000000000000000000004A
:10526400000000000000000000000000000000003A
:10527400000000000000000000000000000000002A
:10528400000000000000000000000000000000001A
:1052940000000000000000000000FF010101010106
:1052A40001010101010100010101010101400100AD
:1052B40000000101010101010101010001000100DF
:1052C40001000100000100000100010000000100D4
:1052D40000000200030004000500060007000201AC
:1052E40001010506040101010101040703013075F0
:1052F400000010270000905F0100F0490200010245
:10530400030408100011337755AA88CCEEFF030379
:10531400030303030303070001020304050600015A
:105324000101040602000605030200000000030157
:105334000200020202020300020706030100000049
:1053440000001F027F01AC016C02DD01BB01CF0133
:00000001FF
