:100000000C9462000C948A000C948A000C948A0070
:100010000C948A000C948A000C948A000C948A0038
:100020000C948A000C948A000C948A000C948A0028
:100030000C948A000C948A000C948A000C948A0018
:100040000C946D0A0C948A000C94DD0A0C94B70A87
:100050000C948A000C948A000C948A000C948A00F8
:100060000C948A000C948A000000000024002700F1
:100070002A0000000000250028002B0000000000DE
:1000800023002600290004040404040404040202DA
:100090000202020203030303030301020408102007
:1000A0004080010204081020010204081020000012
:1000B0000008000201000003040700000000000027
:1000C00000000F0B11241FBECFEFD8E0DEBFCDBF65
:1000D00015E0A0E0B1E0E2E1FEE402C005900D927F
:1000E000AE3BB107D9F727E0AEEBB5E001C01D92FA
:1000F000AC3EB207E1F710E0C2E6D0E004C02197C1
:10010000FE010E940127C136D107C9F70E944E0B9C
:100110000C9407270C940000833081F028F4813080
:1001200099F08230A9F008958730A9F08830C9F09D
:100130008430B1F4809180008F7D03C08091800075
:100140008F7780938000089584B58F7784BD08955C
:1001500084B58F7DFBCF8091B0008F778093B00006
:1001600008958091B0008F7DF9CFCF93DF93282F32
:1001700030E0F901E255FF4F8491F901E656FF4F57
:10018000D491F901EA57FF4FC491CC23A1F081111A
:100190000E948C00EC2FF0E0EE0FFF1FE458FF4FA1
:1001A000A591B491EC91ED2381E090E009F480E019
:1001B000DF91CF91089580E090E0FACF1F93CF9325
:1001C000DF93282F30E0F901E255FF4F8491F901C8
:1001D000E656FF4FD491F901EA57FF4FC491CC2363
:1001E000A9F0162F81110E948C00EC2FF0E0EE0F89
:1001F000FF1FEE58FF4FA591B4918FB7F894EC9183
:10020000111108C0D095DE23DC938FBFDF91CF9111
:100210001F910895DE2BF8CFCF93DF9390E0FC0180
:10022000E656FF4F24918A579F4FFC018491882303
:10023000C9F090E0880F991FFC01E859FF4FA59184
:10024000B491FC01EE58FF4FC591D49161110DC0DE
:100250009FB7F8948C91209582238C9388812823D2
:1002600028839FBFDF91CF910895623051F49FB7EB
:10027000F8943C91822F809583238C93E8812E2BD8
:10028000EFCF8FB7F894EC912E2B2C938FBFEACF42
:100290008E50806480937C0080917A00806480938B
:1002A0007A0080917A0086FDFCCF80917800909151
:1002B000790008953FB7F8948091450790914607DB
:1002C000A0914707B091480726B5A89B05C02F3FCE
:1002D00019F00196A11DB11D3FBFBA2FA92F982F6C
:1002E0008827BC01CD01620F711D811D911D42E067
:1002F000660F771F881F991F4A95D1F70895AF920F
:10030000BF92CF92DF92EF92FF920F931F93CF9302
:10031000DF936C017B018B01040F151FEB015E0164
:10032000AE18BF08C017D10759F06991D601ED91F9
:10033000FC910190F081E02DC6010995892B79F798
:10034000C501DF91CF911F910F91FF90EF90DF904A
:10035000CF90BF90AF900895FC01538D448D252F11
:1003600030E0842F90E0821B930B541710F0CF964F
:10037000089501970895FC01918D828D981761F081
:10038000A28DAE0FBF2FB11D5D968C91928D9F5F98
:100390009F73928F90E008958FEF9FEF0895FC0177
:1003A000918D828D981731F0828DE80FF11D858D2A
:1003B00090E008958FEF9FEF0895FC01918D228DBD
:1003C000892F90E0805C9F4F821B91098F73992742
:1003D000089589E497E00E94DD0121E0892B09F46A
:1003E00020E0822F089580E090E0892B29F00E9480
:1003F000E90181110C9400000895FC01A48DA80F5F
:10040000B92FB11DA35ABF4F2C91848D90E0019656
:100410008F739927848FA689B7892C93A089B18976
:100420008C91837080648C93938D848D981306C017
:100430000288F389E02D80818F7D80830895EF927B
:10044000FF920F931F93CF93DF93EC0181E0888F8E
:100450009B8D8C8D98131AC0E889F989808185FF5E
:1004600015C09FB7F894EE89FF896083E889F98900
:1004700080818370806480839FBF81E090E0DF9102
:10048000CF911F910F91FF90EF900895F62E0B8D55
:1004900010E00F5F1F4F0F731127E02E8C8D8E1110
:1004A0000CC00FB607FCFACFE889F989808185FF77
:1004B000F5CFCE010E94FD01F1CFEB8DEC0FFD2FAA
:1004C000F11DE35AFF4FF0829FB7F8940B8FEA8932
:1004D000FB8980818062CFCFCF93DF93EC01888D41
:1004E0008823B9F0AA89BB89E889F9898C9185FDAF
:1004F00003C0808186FD0DC00FB607FCF7CF8C913D
:1005000085FFF2CF808185FFEDCFCE010E94FD01F6
:10051000E9CFDF91CF9108950F931F93CF93DF938E
:1005200060E088E00E94DE0061E088E00E94DE007A
:100530000EE217E0CFEAD6E082E00E94B50021E0AB
:10054000892B09F020E0F801208389E00E94B500A2
:1005500021E0892B09F020E0F8012183688186E001
:100560000E94DE0069818EE00E94DE006A818AE0DE
:100570000E94DE006B8181E10E94DE0061E083E188
:100580000E94DE0060E083E10E94DE000E5F1F4FEC
:100590002496F6E0CF3CDF0779F661E082E10E9425
:1005A000DE0060E082E10E94DE008FE00E94B50084
:1005B00021E0892B09F020E020933E0787E00E948C
:1005C000B50021E0892B09F020E020933F0784E06B
:1005D0000E94B50021E0892B09F020E02093D70587
:1005E00083E00E94B50021E0892B09F020E02093F0
:1005F000D60580E10E9448019093580680935706E3
:10060000DF91CF911F910F9108950F931F93CF9377
:10061000DF93ACE9B5E008E915E0A8019D01E90127
:1006200089919E0190E0FA016191AF01E62FF0E01F
:10063000880F991FBC01625D784F6E0F7F1F845E2B
:10064000984FEF01C80FD91FFB019081888189174E
:1006500068F4E3E0F7E090E080E06191611150C060
:100660008D5F984F622F6A1BEC016883D5E0203ABA
:100670003D07A9F621E030E08D9190E0E801E99195
:100680008E01F0E0880F991FAC01425D584F4E0F6C
:100690005F1F845E984FEF01C80FD91FFA01908148
:1006A0008881981770F4E3E0F7E0819182171306D0
:1006B00021F4CF010197EC011882D7E0E730FD0764
:1006C000A1F72F5F3F4F25303105B1F6E3E0F7E0AA
:1006D00027E037E080E09191992331F0A82FB0E036
:1006E000AD5FB84F9C938F5F2E173F07A1F7E82FA0
:1006F000F0E0ED5FF84F843048F48F5F1192FBCF4C
:1007000001968430910509F0A8CFB0CF8093BE0543
:10071000DF91CF911F910F910895809199068111DA
:1007200017C081E08093C3060E945A01609390062F
:1007300070939106809392069093930681E0809344
:10074000980690919506911102C08093BF05089577
:10075000809194068111E8CF81E08093B706E4CFC1
:10076000CF93C1E0C093B7060E945A016093A306DD
:100770007093A4068093A5069093A6068091950693
:10078000811102C0C093BF05CF910C948D03EFEA95
:10079000F6E081E0808B828B0E945A016093A7066D
:1007A0007093A8068093A9069093AA0608951F93B4
:1007B000CF93DF93162FEC0121970E945A01FE017F
:1007C000EE0FFF1FEE0FFF1FE153F94F60837183A0
:1007D00082839383FE01E555F94F3081311106C0C4
:1007E000FE01E95FF84F8081882311F01123B9F0F1
:1007F000FE01E855FA4F8081FE01E856FA4F20814C
:1008000044E0849FC00111248155994F820F911DAE
:1008100021E0FC012083FE01E152F94F2083809109
:1008200016058823D1F020E0311106C0FE01E95FF2
:10083000F84F208181E02827FE01EC55FA4F808196
:10084000C056DA4F3881F4E08F9FC00111248155E2
:10085000994F830F911DFC012083DF91CF911F9150
:100860000895EF92FF920F931F93CF93DF93F09031
:10087000970600911A051091130570910706609173
:100880000B05E090680630915E06C0E9D5E04CE8C3
:1008900055E021E0899190E0DA01ED91AD01F0E0C1
:1008A000880F991FDC01A25DB84FAE0FBF1FAC913E
:1008B000AA2371F0845E984FE80FF91F808181119F
:1008C00007C0F11001C0022F3E2D622F70E011E031
:1008D0002F5F2530F9F600931A05109313057093D6
:1008E000070660930B0530935E06DF91CF911F9151
:1008F0000F91FF90EF900895CF9310920A06C1E0F8
:10090000C093D5051092CA050E945A016093C6058E
:100910007093C7058093C8059093C905109252063D
:1009200010920706C0930101C093020180910B054C
:1009300080931A0580915E06809368068091E10598
:10094000882319F0CF910C94B003C093E005CF91A8
:100950000895CF92DF92FF920F931F93CF93DF936F
:10096000CCE9D5E068E975E0ABEAB6E044EA55E0E9
:1009700020EA35E0FF24F394899190E0FB01119186
:10098000BF01E12FF0E0880F991F8C01025D184F25
:100990000E0F1F1F845E984F6F01C80ED91EF801FD
:1009A0009081F6018081891718F48C918F258C93A2
:1009B000FA018191AF01F90111919F01F4E08F9F3C
:1009C000C00111248155994F810F911DED911E2F6A
:1009D0001F25FC011083F5E0C03ADF0769F6DF91BF
:1009E000CF911F910F91FF90DF90CF900895EF92DC
:1009F000FF920F931F93CF93DF933CE9E32E35E0F3
:100A0000F32E08E915E0D0E0C0E0D7018D917D011B
:100A100090E0D801ED918D01F0E02196880F991FAB
:100A2000DC01A25DB84FAE0FBF1F2C91222359F0FD
:100A3000845E984FE80FF91F8081811104C061E046
:100A4000CE010E94D703C430D105F9F6DF91CF91D2
:100A50001F910F91FF90EF900895EFEAF6E0168A4C
:100A6000118E118A158208950E942D058091E70745
:100A70009FEF980F9430B0F48150990BFC01E05B2C
:100A8000FA4F2081845B9A4FFC013081F4E02F9F64
:100A9000C00111248155994F830F911D21E0FC0164
:100AA00020830895853049F481E08093C5068093C2
:100AB000C8068093C0068093B4060895EFEAF6E076
:100AC000128E158A1586118608950F931F930E9422
:100AD0005E0540911A05042F0150110B9801F80191
:100AE000EC56FA4F8081245B3A4FF9012081F4E003
:100AF0008F9FC00111248155994F820F911D21E0D4
:100B0000FC0120838091070690E02091130521507D
:100B1000330B82179307F4F5855F9A4FFC018181AF
:100B20008093000180910001481789F18130A9F577
:100B3000809159068093C906409118075091190772
:100B400060911A0770911B0780915A0690915B067D
:100B5000A0915C06B0915D068A019B01081B190BF0
:100B60002A0B3B0BD901C801813A9648A140B10537
:100B700070F08091590691E089278093590640933F
:100B80005A0650935B0660935C0670935D061F9156
:100B90000F91089580910B05C3CF823029F4809185
:100BA00059068093C406C8CF833029F48091590632
:100BB0008093BC06C1CF843009F0BECF8091590626
:100BC0008093B806B9CFEFEAF6E0178E138217824A
:100BD00013861786138A178A138E08950E94E305D9
:100BE000809152066091EB070E94E62680930A05E9
:100BF00090E0FC01EC57FA4F208184589A4FFC0199
:100C00003081F4E02F9FC00111248155994F830F4B
:100C1000911D21E0FC01208308950C9475264F92CC
:100C20005F926F927F928F929F92AF92BF92CF927C
:100C3000DF92EF92FF920F931F93CF93DF93609118
:100C40001A0590E080E00E940D060BE015E0D0E070
:100C5000C0E0F80161918F012196CE010E940D063E
:100C6000C830D105B1F76091130589E090E00E948A
:100C70000D06609104018AE090E00E940D066091EB
:100C80001B058BE090E00E940D06609114058CE03E
:100C900090E00E940D06609115058DE090E00E94A5
:100CA0000D066091AC06660F8091AD06F4E08F9F53
:100CB000C0011124682B8091AB06682B8091AE0691
:100CC00028E0829FC0011124682B8EE090E00E94F2
:100CD0000D0660914E06660F80914F06E4E08E9FF0
:100CE000C0011124682B80914D06682B809150061D
:100CF000F8E08F9FC0011124682B8FE090E00E94E4
:100D00000D066091510680E190E00E940D06609111
:100D1000050181E190E00E940D066091050170914E
:100D200006018091070190910801672F782F892F84
:100D3000992782E190E00E940D0660910501709173
:100D400006018091070190910801BC01882799272D
:100D500083E190E00E940D0660910501709106010B
:100D60008091070190910801692F7727882799279B
:100D700084E190E00E940D066091680685E190E0B4
:100D80000E940D0660919B06660F80919D0624E0EF
:100D9000829FC0011124682B80919906682B809155
:100DA0009F06E8E08E9FC0011124682B8091A10668
:100DB000F0E18F9FC0011124682B86E190E00E9432
:100DC0000D0660919C06660F80919E0624E0829F2E
:100DD000C0011124682B80919A06682B8091A0068F
:100DE000E8E08E9FC0011124682B8091A206F0E1FB
:100DF0008F9FC0011124682B87E190E00E940D06AF
:100E00006091E10588E190E00E940D066091E205A5
:100E100089E190E00E940D06609194068AE190E0DD
:100E20000E940D06609195068BE190E00E940D06F0
:100E3000609196068CE190E00E940D066091970605
:100E40008DE190E00E940D060EE516E0CEE1D0E0C7
:100E5000F80161918F01CE010E940D062196C632E4
:100E6000D105B1F7812C9924939494E0A92EB12C4B
:100E7000F12CE12C10E000E0E801C65FDE4F6701D5
:100E8000FEEFDF1A270120EC421A2DEF520A34013F
:100E90006E187F086885E0E16E9FC00111246881AB
:100EA000682BC6010E940D06FE01E01BF10BEA0D46
:100EB000FB1D6C8520E1629FC00111246081682BBD
:100EC000C3018C0D9D1D0E940D0660968FEFC81A00
:100ED000D80A4C145D04F1F60F5F1F4FE0E4EE0EEC
:100EE000F11CFFEFAF1ABF0A20E4820E911C043000
:100EF000110511F6DF91CF911F910F91FF90EF90A7
:100F0000DF90CF90BF90AF909F908F907F906F9029
:100F10005F904F9008950C946D264F925F926F9260
:100F20007F928F929F92AF92BF92CF92DF92EF9279
:100F3000FF920F931F93CF93DF9390E080E00E9486
:100F40008B0780931A050BE015E0D0E0C0E02196F6
:100F5000CE010E948B07F80181938F01C830D10523
:100F6000B1F789E090E00E948B07809313058AE037
:100F700090E00E948B07809304018BE090E00E9438
:100F80008B0780931B0582958F708093EB078CE015
:100F900090E00E948B07809314058DE090E00E9402
:100FA0008B07809315058EE090E00E948B07282F19
:100FB00081708093AB0621FB882780F98093AC0673
:100FC00022FB882780F98093AD0623FB222720F996
:100FD0002093AE068FE090E00E948B07282F81704F
:100FE00080934D0621FB882780F980934E0622FBD3
:100FF000882780F980934F0623FB222720F920932E
:10100000500680E190E00E948B0780935106109279
:10101000050110920601109207011092080181E16A
:1010200090E00E948B07C82ED12CF12CE12CC092AD
:101030000501D0920601E0920701F092080182E1D9
:1010400090E00E948B07D82AC0920501D092060139
:10105000E0920701F092080183E190E00E948B0783
:10106000E82AC0920501D0920601E0920701F092B1
:10107000080184E190E00E948B07F82AC0920501E4
:10108000D0920601E0920701F092080185E190E01C
:101090000E948B078093680686E190E00E948B0790
:1010A000282F81708093990621FB882780F98093EF
:1010B0009B0622FB882780F980939D0623FB8827C7
:1010C00080F980939F06229521702093A10687E1E5
:1010D00090E00E948B07282F817080939A0621FB55
:1010E000882780F980939C0622FB882780F98093CB
:1010F0009E0623FB882780F98093A0062295217005
:101100002093A20688E190E00E948B0791E0811174
:1011100001C090E09093E10589E190E00E948B0787
:1011200091E0811101C090E09093E2058AE190E0A6
:101130000E948B0791E0811101C090E0909394068A
:101140008BE190E00E948B0791E0811101C090E05B
:10115000909395068CE190E00E948B0791E08111BD
:1011600001C090E0909396068DE190E00E948B077D
:1011700091E0811101C090E0909397060EE516E092
:10118000CEE1D0E0CE010E948B07F80181938F0160
:101190002196C632D105B1F784E0A82EB12C812C5E
:1011A00099249394F12CE12C10E000E06701FEEF0C
:1011B000DF1AE801C65FDE4F270180EC481A8DEF89
:1011C000580A34016E187F08C6010E948B07982FB9
:1011D0009F70988382958F708887C3018C0D9D1DA9
:1011E0000E948B07FE01E01BF10BEA0DFB1D982FFF
:1011F0009F70908382958F708C87EFEFCE1ADE0AF6
:101200006096C414D50401F70F5F1F4FF0E4EF0E92
:10121000F11C80E4880E911CEFEFAE1ABE0A043078
:10122000110521F6DF91CF911F910F91FF90EF9063
:10123000DF90CF90BF90AF909F908F907F906F90F6
:101240005F904F900895CF92DF92EF92FF920F93AD
:101250001F93CF93E0915907F0915A0782E0808362
:10126000E0915507F09156071082E0915707F091F1
:1012700058078FEC808310926107E0915D07F09131
:101280005E0786E08083E0915B07F0915C078081D8
:1012900080618083E0915B07F0915C0780818860CA
:1012A0008083E0915B07F0915C0780818068808398
:1012B000E0915B07F0915C0780818F7D808384E102
:1012C0000E944801BC01990F880B990B61157105AB
:1012D0008105910511F00E94642661E088E00E947A
:1012E0000C0161E082E10E940C0161E083E10E9457
:1012F0000C0160E082E00E940C0160E089E00E9445
:101300000C0161E086E00E940C0161E08EE00E9429
:101310000C0161E08AE00E940C0161E081E10E9421
:101320000C0160E084E00E940C0162E08FE00E940A
:101330000C0160E087E00E940C0160E083E00E9405
:101340000C010E948C02C0913907CC2379F0809166
:101350003807882359F00E940F06CF911F910F91F3
:10136000FF90EF90DF90CF900C948D070E948D0737
:10137000CC2309F4AAC0ACE1B7E0EEE2F7E080814B
:101380008C93818111968C9311973296129647E037
:10139000E034F407A1F7C1E0909139078091270765
:1013A000891708F492C01092CE061092B2061092DD
:1013B000B6061092BA061092BE06C093C206C0933B
:1013C000C606C093CA060E945A016093180770931C
:1013D000190780931A0790931B0700915A061091E2
:1013E0005B0620915C0630915D066B017C01C01AA2
:1013F000D10AE20AF30A97018601013A1648214010
:10140000310568F0209159062C27209359066093E6
:101410005A0670935B0680935C0690935D068091FC
:1014200059068093C10628E535E054E5E52E55E0E0
:10143000F52E00E515E06CE475E0A4E9B6E0F901ED
:1014400081919F0190E0F70141917F01E42FF0E04D
:10145000880F991FAC01425D584F4E0F5F1F845E8D
:10146000984F6F01C80ED91EFA019081F601808154
:10147000891718F48C918C278C93F80181918F0136
:10148000FB014191BF01F4E08F9FC0011124815500
:10149000994F840F911D4D91FC014083F5E02C354F
:1014A0003F0769F6ACE1B7E0EEE2F7E080818C93AC
:1014B000818111968C9311973296129647E0E03411
:1014C000F407A1F70E948C0267CFCF911F910F9173
:1014D000FF90EF90DF90CF9008951F920F920FB67C
:1014E0000F9211242F933F938F939F93AF93BF93AA
:1014F0008091410790914207A0914307B091440722
:101500003091400723E0230F2D3758F50196A11D98
:10151000B11D209340078093410790934207A09309
:101520004307B09344078091450790914607A091E7
:101530004707B09148070196A11DB11D809345074B
:1015400090934607A0934707B0934807BF91AF9188
:101550009F918F913F912F910F900FBE0F901F90F1
:10156000189526E8230F0296A11DB11DD2CF1F9218
:101570000F920FB60F9211242F933F934F935F93C7
:101580006F937F938F939F93AF93BF93EF93FF934B
:1015900089E497E00E94FD01FF91EF91BF91AF9127
:1015A0009F918F917F916F915F914F913F912F917B
:1015B0000F900FBE0F901F9018951F920F920FB6AD
:1015C0000F9211242F938F939F93EF93FF93E091AA
:1015D0005907F0915A078081E0915F07F091600709
:1015E00082FD1BC09081809162078F5F8F73209175
:1015F0006307821741F0E0916207F0E0E75BF84F84
:10160000958F80936207FF91EF919F918F912F911A
:101610000F900FBE0F901F9018958081F4CFE9E4D2
:10162000F7E01382128288EE93E0A0E0B0E08483BA
:101630009583A683B78380EB95E09183808385ECC7
:1016400090E09587848784EC90E09787868780EC8C
:1016500090E0918B808B81EC90E0938B828B82EC7D
:1016600090E0958B848B86EC90E0978B868B118E27
:10167000128E138E148E80911B0582958F7080932D
:10168000EB0780911A058093EA078091E907809320
:10169000E8078091E7078093E6070895CF93DF93EB
:1016A000CDB7DEB7ED970FB6F894DEBF0FBECDBF56
:1016B000789484B5826084BD84B5816084BD85B52D
:1016C000826085BD85B5816085BD80916E00816039
:1016D00080936E00109281008091810082608093DF
:1016E00081008091810081608093810080918000E1
:1016F0008160809380008091B10084608093B1000C
:101700008091B00081608093B00080917A00846005
:1017100080937A0080917A00826080937A00809131
:101720007A00816080937A0080917A00806880934B
:101730007A001092C1000E9423098E01095D1F4F9B
:101740001AAB09AB0E948C028091D705882309F45B
:10175000FFC38091D6058093D50590910401913007
:1017600009F0AEC32091D405222309F4A2C340910D
:1017700018075091190760911A0770911B07009183
:10178000D0051091D1052091D2053091D305401B91
:10179000510B620B730B0091CC051091CD0520917C
:1017A000CE053091CF05041715072607370708F037
:1017B00080C39093CB051092D405811140C38091D2
:1017C000E105882309F4F4C38091D5058093CA0507
:1017D00050903807552009F446C00CE915E088E917
:1017E000A82E85E0B82E90E9C92E95E0D92E2CE8D8
:1017F000E22E25E0F22ED8018D918D0190E0D501E9
:10180000ED915D01F0E0880F991FDC01A25DB84FFA
:10181000AE0FBF1F845E984FE80FF91F9C91808127
:101820008917A8F0F601808190E0D701EC91F0E0F3
:10183000880F991FDC01A25DB84FAE0FBF1F845EF9
:10184000984FE80FF91F9C918081891710F40E942E
:101850007C04BFEFCB1ADB0AEFEFEE1AFE0AF5E0CD
:10186000003A1F0741F680913E078093E907909167
:101870002C07891731F090919606911102C01092B1
:10188000E70740903A0730913907442009F407C62A
:1018900090912807911106C08093E8079091E7077F
:1018A0009093E60720911405909115055091250716
:1018B00040913707541710F4282F91E050912B07CF
:1018C00040913D07541710F4282F92E050912307C0
:1018D00040913507541710F4282F93E050913107A9
:1018E00040911F07451710F4282F94E0209314050A
:1018F0009093150581E0211101C080E08093E907F4
:101900009093E707332309F4F6C50E945E050E9411
:101910002D050E94EE0581E08093B506A091570643
:10192000B091580680912707811106C0B0935606E2
:10193000A093550610925406809155069091560634
:101940008A1B9B0B97FF03C0919581959109069780
:101950003CF080915406811103C081E080935406CD
:1019600080915406882361F18091E205F4E08F9F15
:10197000C0011124FC01E45AFA4FC080D180E280FA
:10198000F3808C599A4FFC0120813181428153812F
:101990002C193D094E095F090E94AD262FEF33E057
:1019A00040E050E00E948326C20ED31EE41EF51EC6
:1019B000C0920501D0920601E0920701F092080161
:1019C0006090970610919F06F0911305FBAF309140
:1019D00068060091660670900B07809067068CAED3
:1019E00020900706312C4F2F4150550B58AF4FAB6D
:1019F0008090180790901907A0901A07B0901B07C5
:101A0000C0905A06D0905B06E0905C06F0905D06B0
:101A10002091590660E975E07CAB6BAB8CE895E0F2
:101A20009EAB8DAB40E051E0D101A15AB94FBAAFA6
:101A3000A9AFEBA9FCA98191FCABEBAB90E0ADA900
:101A4000BEA96D91BEABADAB70E0880F991FFC01D4
:101A5000E25DF84FE60FF71F845E984F860F971FE1
:101A60006081FC0180818617A0F4611001C0342FD1
:101A700081E0830FEEE5F6E04193112331F06BAD89
:101A8000623018F0712E082F1CAE76E0E636F707AC
:101A900099F7832F90E0FC01EC56FA4F7081FC011E
:101AA000E45BFA4F6081A4E07A9FC0011124815564
:101AB000994F860F911DFC0150836FA978ADE0917D
:101AC0005E06261637061CF4A9ADBAADEC91E317F5
:101AD00091F0E11157C52093C906C501B4016C19F5
:101AE0007D098E099F09613A76488140910518F079
:101AF0002527750164014F5F443009F09ACF209388
:101B00005906309368060093660670920B07FCAD89
:101B1000F0936706E0930301C0925A06D0925B06E9
:101B2000E0925C06F0925D062091E907E22FF0E07A
:101B300068E575E0B4E56B2EB5E07B2E00E515E0B9
:101B40008CE4C82E85E0D82EE756F94F1F0131E00E
:101B5000DB018D91BD0190E0D3014D913D0150E03D
:101B6000880F991FDC01A25DB84F7D01E40EF51EC0
:101B7000845E984F840F951FD7014C91DC018C91A6
:101B8000841718F4808183278083D8018D918D017B
:101B9000D6014D916D01B4E08B9FC0011124815598
:101BA000994F840F911D4081DC014C933296B5E032
:101BB0006C357B0769F690913C0780912A0789175D
:101BC00068F4F1018085E1E08E27D10118968C93AD
:101BD0002E27E22FF0E0E756F94F8087F10180854C
:101BE000882319F081E08093C60680912607851529
:101BF00030F48091E10591E089278093E10580919F
:101C0000E105882319F081E08093B20680912807CE
:101C1000841530F48091E20591E089278093E205F4
:101C20001091E205112329F081E08093BA06809398
:101C3000BE069091340780912207891740F4809165
:101C40000401883009F0AEC481E0809304019091D2
:101C5000300780911E07891798F580911B05803801
:101C600009F0A2C480E280931B0580911B05829538
:101C70008F708093EB0710920A06109207068091EE
:101C80000B0580931A0580915E068093680681E0BB
:101C90008093E0058093FC0680925A0690925B0642
:101CA000A0925C06B0925D068092DC059092DD0504
:101CB000A092DE05B092DF05809359060E947C0455
:101CC0008091FC06882309F464C00E94E3054091DA
:101CD00018075091190760911A0770911B0780919E
:101CE0005A0690915B06A0915C06B0915D063A01A0
:101CF0004B01681A790A8A0A9B0AD401C30181350B
:101D0000934CA105B10570F09091590681E0982798
:101D10009093590640935A0650935B0660935C0675
:101D200070935D068091DC059091DD05A091DE0544
:101D3000B091DF05481B590B6A0B7B0B41345244B1
:101D40006F40710510F01092FC0620911B05229542
:101D50002F7030E07091590681E0782790E080E0A4
:101D60008217930794F4FC01EC57FA4F4081FC0171
:101D7000E458FA4F6081A4E04A9FA0011124415524
:101D8000594F460F511DFA01708301968830910515
:101D900039F79091320780912007891708F021C404
:101DA000C0901807D0901907E0901A07F0901B0711
:101DB000C092D805D092D905E092DA05F092DB0501
:101DC000109254068091FD069091FE06A091FF06A8
:101DD000B09100070097A105B10509F4F3C3B7015D
:101DE000A601481B590B6A0B7B0BB2E076956795F1
:101DF00057954795BA95D1F7409305015093060141
:101E0000609307017093080104E0109FF001112412
:101E1000DF01AC59BA4F8D919D910D90BC91A02DD1
:101E200084179507A607B70708F0C0C3809305017C
:101E300090930601A0930701B0930801C3C380915A
:101E4000CA05811138C08091E105811134C021E0BB
:101E50002093CB05409118075091190760911A07FC
:101E600070911B078091D0059091D105A091D2056A
:101E7000B091D3052A013B01481A590A6A0A7B0A24
:101E8000D301C201B695A795979587958093CC0508
:101E90009093CD05A093CE05B093CF054093D00588
:101EA0005093D1056093D2057093D3052093D40548
:101EB00002C08111C4CF8091CB05811180CC84CC2C
:101EC0008823C9F38091CA058111F5CF8091E1057E
:101ED0008111F1CF009118071091190720911A076D
:101EE00030911B074091D0055091D1056091D205EA
:101EF0007091D30538014901641A750A860A970A58
:101F0000B401A30176956795579547954093CC0505
:101F10005093CD056093CE057093CF050093D00507
:101F20001093D1052093D2053093D30581E080939F
:101F3000D40580910201813011F48093CB059695F0
:101F4000891720F081E080930201B5CF8F5FFBCF2E
:101F50008091180790911907A0911A07B0911B075B
:101F60004091C6055091C7056091C8057091C9059B
:101F7000841B950BA60BB70B4091050150910601F0
:101F80006091070170910801481759076A077B079C
:101F900008F091CF81E08093CB050E945A016093B5
:101FA000C6057093C7058093C8059093C90583CF74
:101FB0001092CB0591E09093160780910A066091EC
:101FC0001B058617E8F48F5F80930A06E0910A06E6
:101FD000E0FF26C280910D07882399F181508093FC
:101FE000520680915206262F2695482F50E08111E7
:101FF0002CC021502093C50591E09093C40532C0B8
:1020000090930A0680910706209113052150330B07
:10201000821713069CF48F5F809307068091070652
:1020200090E0FC01E55FFA4F208120931A05825A67
:10203000994FDC018C9180936806C8CF10920706F7
:10204000EDCFE695E0935206CCCF9FEF980F21504D
:10205000330B9093C50591E0980F2417350769F667
:102060001092C4059091E907911125C09091E7075E
:10207000943009F5909167069923E9F090919F06B5
:1020800070915306613208F476C18F7121E030E01F
:10209000871710F430E020E02A59394FF901808188
:1020A000992309F474C190911305923008F46FC11B
:1020B00081508093680620911A052150330B220F1E
:1020C000331F220F331F8091680674E0440F551FA1
:1020D0007A95E1F7465F5E4FFA01E20FF31F6081E8
:1020E00070E0082E02C0759567950A94E2F761705A
:1020F0006DA7D9011196FA01EA0FFB1F608170E00C
:10210000082E02C0759567950A94E2F761706EA774
:102110007901E2E0EE0EF11CBA016E0D7F1DFB01AC
:10212000608170E0082E02C0759567950A94E2F709
:1021300061706FA789010D5F1F4F400F511FFA019A
:10214000408150E0082E02C0559547950A94E2F769
:10215000417048AB4091C505F0E14F9FA0011124AB
:10216000465F5E4FBA01620F731FFB01608170E032
:10217000082E02C0759567950A94E2F7617069A30D
:10218000BA016A0F7B1FFB01608170E0082E02C05C
:10219000759567950A94E2F761706AA3BA016E0DAE
:1021A0007F1DFB01608170E0082E02C07595679568
:1021B0000A94E2F761706BA3400F511FFA0140814E
:1021C00050E0082E02C0559547950A94E2F74170F9
:1021D0004CA34091C405F0E14F9FA0011124465F3C
:1021E0005E4F240F351FF901208130E0082E02C018
:1021F000359527950A94E2F721702983A40FB51F1E
:102200002C9130E0082E02C0359527950A94E2F70C
:1022100021702A83F701E40FF51F208130E0082E9A
:1022200002C0359527950A94E2F721702B83040F9D
:10223000151FD8012C9130E0F90102C0F595E79502
:102240008A95E2F7CF0181708C835E01F1E2AF0ED7
:10225000B11CE0ECEE2EE5E0FE2EFDE4CF2EF6E024
:10226000DF2E10E000E0ABEA9A2E88248394D5019B
:102270008D915D01811107C0E1E0F0E0EC0FFD1FE1
:10228000E00FF11F8081F7018083D6018D916D01F0
:102290008823C9F18091E907811135C080910D072C
:1022A000811131C00E94152624E630E040E050E064
:1022B0000E9483262B013C01BFEF4B1A5B0A6B0A7D
:1022C0007B0A90919D0620915106992309F464C0E0
:1022D000F701808190E0880F991F0196299D212D9B
:1022E00011242695289FA001299F500D11244416E2
:1022F00015064CF4EDE2F0E0EC0FFD1FE00FF11FCE
:102300008081882580830F5F1F4FFFEFEF1AFF0A40
:102310000430110509F0ABCF8E01035D1F4FF12C86
:10232000E12CD8018D918D01BFEFEB1AFB0A8823B8
:1023300021F060E0C7010E94D703E4E0EE16F1044B
:1023400081F78091E00590910906992381F181112F
:1023500030C00E948D03109209068091D705882312
:10236000E9F18091BF05811129C00E94C70381E076
:102370008093010129CA8F7021E030E0871710F4A3
:1023800030E020E02A59394FD9018C9189CE8093D1
:102390001A0580930B058FCE421608F0B4CFEDE2FC
:1023A000F0E0EC0FFD1FE00FF11F1082ACCF88238F
:1023B000A1F20E94B0031092E005CFCF1092BF05AA
:1023C0000E945A01609312077093130780931407B9
:1023D0009093150781E080931707C9CF10910101F1
:1023E000113031F48091BF0581110BC00E94C703E9
:1023F00080910401181708F0BACF1F5F10930101F4
:10240000E3C91092BF050E945A01609312077093AE
:102410001307809314079093150710931707E8CFBD
:1024200080916806682F01E010E002C0000F111FC4
:102430008A95E2F7E695E150FF0B34E0EE0FFF1FBF
:102440003A95E1F780911A058150990B880F991FF1
:10245000880F991FE80FF91F9F01265F3E4F690102
:10246000A3EEB5E027EE35E0F601F1906F014F2DB8
:1024700050E04023512381E0452B09F48C91A601C3
:1024800041505109062E01C0880F0A94EAF78F299E
:10249000FA0180831D922A173B0731F795C9311144
:1024A00034CA1091E707A8E5B5E064E575E030E0CF
:1024B00020E08D9190E0FB014191BF0150E02F5F42
:1024C0003F4F880F991FFC01E25DF84FE40FF51FA5
:1024D000845E984F840F951F4081FC018081841792
:1024E00028F41217130609F44BC0122F24303105BB
:1024F00001F71093E70780913C07882309F4D6C2BF
:10250000109216050E94A90480912A07811133C0F8
:102510008091180790911907A0911A07B0911B0795
:102520008093F8069093F906A093FA06B093FB0601
:102530008091F7068823E1F08091AB06882309F4A7
:10254000ABC28091AC06882309F4A6C28091AD0687
:10255000882309F4A1C28091AE06882309F49CC2A5
:102560001092AB061092AC061092AD061092AE0619
:1025700081E08093F7060E94EE050E9465053CC04D
:1025800010E0B4CFE13019F42093C406A6CAE230BB
:1025900019F42093BC06A1CAE33009F09ECA209327
:1025A000B8069BCA880F51CB880F5DCBE45AFA4F0F
:1025B00080819181A281B381481759076A077B07FF
:1025C00008F434CC80E10E94480190935606809331
:1025D0005506C092FD06D092FE06E092FF06F092EC
:1025E000000790912E0780911C07891728F4552029
:1025F00009F44FC20E948D0790913A0780912807F5
:10260000981740F48091E8078093E9078091E607E6
:102610008093E70780913E078093B00640911807AA
:102620005091190760911A0770911B0740906A0634
:1026300050906B0660906C0670906D0680906E06F0
:1026400090906F06A0907006B0907106D0906906C9
:10265000C0901605CBAA02E816E01EAB0DAB2AE728
:1026600036E038AF2FABB2E72B2EB6E03B2EF12C85
:10267000E12CCC24C394ADA9BEA99D91BEABADAB5A
:10268000EFA9F8AD8191F8AFEFAB981740F4D10105
:10269000CC924A015B012A013B01DD24D394EDA9D0
:1026A000FEA931978083EFA9F8AD31971082F1012F
:1026B0008081882309F466C0DB01CA018819990961
:1026C000AA09BB098135934CA105B10518F0DC249A
:1026D0004A015B01DB01CA0184199509A609B70902
:1026E00086319641A540B10510F0D1011C92ED2D27
:1026F000EC25B4E0EB16F10414F00C94BF24D701E0
:10270000AC55BA4F8C91D701A056BA4F2C91F4E03A
:102710008F9FC00111248155994F820F911DDC01BB
:10272000EC931BAAE4EAF5E0FDAFECAF00EA15E09C
:102730001AAF09AFA2E7B6E0ECADFDAD8191FDAFF8
:10274000ECAFE9ADFAAD2191FAAFE9AF30E0F4E0DA
:102750008F9FC00111248C010155194F020F131FC7
:10276000F801108111111C918155994F820F931F0F
:10277000FC011083119608EA15E02CAD3DAD02175F
:102780001307D1F63FEFE31AF30A8FEF281A380A3E
:1027900098E0E916F10409F06ECFCBA8C0921605B7
:1027A000D092690640926A0650926B0660926C065F
:1027B00070926D0680926E0690926F06A0927006DF
:1027C000B0927106809139072091380790912607C1
:1027D000921710F4882331F090913F0780912D07D4
:1027E000891710F40E947C040E945A016093180714
:1027F0007093190780931A0790931B07EAE8F6E095
:1028000050E040E0FF24F3942081222311F40C9443
:10281000D62410824F5F5F4F319644305105A1F7A7
:102820000FED16E0AFECB6E030E020E0DD24D3940D
:10283000F80141918F01442349F18D909D90AD9015
:10284000BC9013972B013C01481859086A087B0873
:102850005301420149E8841643E19406A104B104FE
:10286000A8F0F901E855FA4F4081F901E856FA4F0E
:10287000E081F4E04F9FA00111244155594FE40F2E
:10288000F52FF11D1082F801319710824BA84420DA
:1028900009F44AC0F901EC55FA4F5081F901E056AC
:1028A000FA4FE0812E2E312C44E0549F3001112448
:1028B0007EAA6DAAF301E155F94F7F01E20CF31CEA
:1028C000F701B080A9014555594FFA01C080F12C9C
:1028D000C11006C0A901495F584FFA01F080FD24DC
:1028E000BF1022C08D909D90AD90BC9013972B018E
:1028F0003C01481859086A087B085301420141E528
:10290000841643EC9406A104B10470F0C11004C015
:10291000F901E95FF84FC0804DA95EA94155594FB3
:10292000F101E40FF51FC0822F5F3F4F1496243052
:10293000310509F07DCF0091A7061091A8062091DE
:10294000A9063091AA062B013C01401A510A620ADD
:10295000730A93018201093843E114072105310507
:1029600048F01092BF06013117422105310510F0E1
:102970001092C10620919906C090A306D090A4069B
:10298000E090A506F090A6062B013C014C185D08CE
:102990006E087F087301620109E8C01603E1D006E2
:1029A000E104F10458F0211104C03091980633235A
:1029B00019F03091940631111092B706C09090062C
:1029C000D0909106E0909206F09093062B013C0186
:1029D0004C185D086E087F087301620109E8C01693
:1029E00003E1D006E104F10438F021110C940F2525
:1029F0001092C30610929806222391F0209134077A
:102A000021110EC02091300721110AC020913207F8
:102A1000211106C020912E07211102C01092C30679
:102A200020918F06222359F011E5C11613ECD1062F
:102A3000E104F10420F01092B50610928F06209167
:102A40008E06222351F0613523EC72078105910532
:102A500020F01092B50610928E0630911107409129
:102A6000E9075091E70734130C94182520911007BB
:102A700025130C9418252091100725130C943B2541
:102A80003091EA0720911A0532130C943B250C94DF
:102A900042250E940F06B0CD81E08093AB06809363
:102AA000AC068093AD068093AE0662CD0091E90737
:102AB0001091E707002309F4BDC70E943405FF24E5
:102AC000F394F09216051092B506123009F47FC205
:102AD00008F0DBC0112309F4FDC1113009F08CCDE1
:102AE0000E94EE050E946505DE011196CE01419619
:102AF000FD011192E817F907E1F720911A0521501D
:102B0000330B220F331F220F331F8091680661E0C1
:102B100070E001C0660F8A95EAF7962E9094809136
:102B20009A06882309F41CC2809134078093070712
:102B300080913007809308078091320780930907BE
:102B400080912E0780930A07809116078823A9F1A8
:102B500080910A0680FF31C00CE915E078E9E72E84
:102B600075E0F72E40915206E0E14E9FA00111243E
:102B7000420F531FD12CC12CF80181918F01F70115
:102B800071917F0190E0880F991F825D984F870FA8
:102B9000911DFC018081882349F0C601840F951F97
:102BA000865F9E4FFC01708179217083FFEFCF1A01
:102BB000DF0A64E0C616D104F9F64AE856E090E070
:102BC00080E071E0FA016191AF01662351F0FC01F0
:102BD000E20FF31FEA0FFB1F7083FC01E658F94F69
:102BE000708301968430910569F770E9E72E75E0EE
:102BF000F72E0CE815E09D0150E040E081E0F70180
:102C000091917F01692F70E0F801C1908F01D12C63
:102C10003B01660C771CB301625D784F5B01AC0C25
:102C2000BD1CF5019081992389F0F301E45EF84F12
:102C3000EC0DFD1D9081911109C0F9018083818304
:102C400082838383FA01E658F94F84834F5F5F4F95
:102C50002C5F3F4F4430510591F680E190E04AE10E
:102C600051E02D91222371F0FA01E81BF90B30E0BD
:102C700020E07081792170832F5F3F4F7096203460
:102C80003105B9F7019769F7B7CC133009F402C4DD
:102C9000143009F0B1CC0E94E305709168067DAB59
:102CA000809119058823E9F0409118075091190780
:102CB00060911A0770911B0710921905F09259063E
:102CC000F09213051092070640935A0650935B0644
:102CD00060935C0670935D06109206068DA9809342
:102CE0000901909106068091130560915906992378
:102CF00009F465C6282F30E0F901EC57FA4F4081FE
:102D000024583A4FD9015C91B4E04B9F90011124B3
:102D10002155394F250F311DF9016083F091A0062F
:102D2000FBAB70910901F0E94F2EF5E05F2EACE8A6
:102D30002A2EA5E03A2EB4E98B2EB5E09B2E2CE48A
:102D4000622E25E0722E3CE9C32E35E0D32E48E9F1
:102D5000A42E45E0B42E50E040E0D2012D912D018B
:102D600030E0F101A1911F01B0E0220F331FF90102
:102D7000E25DF84F7F01EA0EFB1EF701F080245E52
:102D8000384FFD01E20FF31FE080D4012D914D017A
:102D9000F30131913F01E32FF0E0A4E02A9F90017D
:102DA0001124BBA9B1110EC62155394FE20FF31FF3
:102DB0006083EF14C8F0F601208130E0F501A081B6
:102DC000EA2FF0E0220F331FD901A25DB84F7D0139
:102DD000EE0EFF1E245E384F2E0F3F1FD701EC91E1
:102DE000D9012C912E17A0F491118F5FE82FE1509B
:102DF000FF0B9F01E55FFA4F91E0940F9083225AF9
:102E0000394FEDA9D901EC93902F883009F410E0E7
:102E10004F5F5F4FBFEFCB1ADB0AEFEFAE1ABE0A70
:102E20004430510509F099CF80931305909306061D
:102E30001093E70770930901009118071091190783
:102E400020911A0730911B07C0905A06D0905B065C
:102E5000E0905C06F0905D06280139014C185D0891
:102E60006E087F087301620141EAC41646E8D40681
:102E700041E0E406F10460F041E064276093590604
:102E800000935A0610935B0620935C0630935D0610
:102E9000482F50E030E020E081E024173507A4F40B
:102EA000992391F0F901EC57FA4F6081D901A458A8
:102EB000BA4FEC91A4E06A9FB00111246155794F9B
:102EC000E60FF72FF11D80832F5F3F4F283031052C
:102ED00021F792CB0E94F704E3EEF5E030E020E02A
:102EE00061E0719171111BC0D901A456BA4F8C9148
:102EF00090E0D901A856BA4F4C9150E0880F991F25
:102F0000DC01A25DB84FA40FB51F7C91772339F087
:102F1000845E984F840F951FDC017C917627DF013A
:102F200011977C932F5F3F4F24303105D1F680916C
:102F3000A206882381F080912E0790913407909308
:102F4000070790913007909308079091320790936C
:102F5000090780930A070E94EE050E9431040DCBF9
:102F60000CE915E0F8E9EF2EF5E0FF2E90E080E0A7
:102F700071E0F80141918F01C42ED12CF7014191EC
:102F80007F01A42EB12C3601660C771CA301425D93
:102F9000584F6A01CA0CDB1CF601D080DD2091F08D
:102FA000F301E45EF84FEA0DFB1D408141110AC0B8
:102FB000FC01E20FF31FEA0FFB1F7083FC01E658D0
:102FC000F94F708301968430910599F60ECE0E94D8
:102FD00065050E94EE0540910E0741110BC0F0926D
:102FE0000F07E9EEF5E0119205E0E93FF007D9F7A8
:102FF0001092E80550910F07552309F475C04090D1
:103000001A05242D2150330B2901440C551C440C66
:10301000551CE090E705F090E8050CE9A02E05E0CE
:10302000B02E88E9682E85E0782E90E9C92E95E0CB
:10303000D92E2CE8822E25E0922EEAE7F6E0352EF6
:1030400021E030E022242394D5018D915D0190E0B0
:10305000D3016D913D0170E0880F991F8C01025DD5
:10306000184F060F171F845E984F860F971FD801C1
:103070006C91DC018C91861758F4C201820F931F6A
:1030800088519A4FDC012C92E22E2082452F312C60
:10309000D6018D916D0190E0D4016D914D0170E0EC
:1030A000880F991F8C01025D184F060F171F845E51
:1030B000984F860F971FD8016C91DC018C91861771
:1030C00020F4F22E2482452F312C2F5F3F4F319672
:1030D0002530310509F0B8CFE092E70530920F07AF
:1030E00040930E07F092E80580919C06882309F42E
:1030F00047C080910E07882309F442C02091E7055C
:103100002223A9F02150330BF901E456FA4F8081B4
:1031100090E028563A4FF9012081880F991F825D6F
:10312000984F820F911DDC018C918823C9F020916A
:10313000E805222329F12150330BF901E057FA4F1A
:10314000808190E024573A4FF9012081880F991F20
:10315000825D984F820F911DDC018C91811110C00E
:1031600081E080930F0710920E071092E7051092EE
:10317000E805E9EEF5E01192B5E0E93FFB07D9F784
:1031800080910E07882309F437CA8090E805809162
:103190001A058150990B880F991F880F991F20914C
:1031A000680641E001C0440F2A95EAF7882009F437
:1031B000B6C0912C3401E1E06E1A7108660C771CE0
:1031C000660C771C0CE915E01EAB0DAB28E935E069
:1031D00038AF2FABB0E92B2EB5E03B2E6CE875E095
:1031E0007CAB6BABAAE7B6E0BAAFA9AFB30130E0F6
:1031F00020E051E0F401E358F94F4F01ADA9BEA919
:10320000ED91BEABADABF0E0AFA9B8AD0D91B8AFED
:10321000AFABC02ED12CDF01AA0FBB1FFD01E25DB9
:10322000F84F7F01EC0CFD1CA45EB84FFD01EC0DC6
:10323000FD1DD7011C91A081A117E0F4DC01A65F60
:10324000BE4F10E000E0DC907D01E81AF90AE60EBE
:10325000F71EF701F080FD24F422DF24DC920F5FDB
:103260001F4F50960034110571F7A9ADBAAD5C93AC
:10327000F4015083F101A1911F01B0E0EBA9FCA979
:103280000191FCABEBAB10E0AA0FBB1FFD01E25DAF
:10329000F84F7F01E00EF11EA45EB84FA00FB11FE2
:1032A000F7011081AC91A11750F58901065F1E4FFF
:1032B000780110E000E0D701D12CC12C5C905D01B9
:1032C000A21AB30AA60CB71CF501B080B524B4222B
:1032D0005B245D92FFEFCF1ADF0AE4E0CE16D10443
:1032E00069F70F5F1F4FF0E1EF0EF11C003411057D
:1032F00011F7A9ADBAAD14965C93F401508309ADF2
:103300001AAD0F5F1F4F1AAF09AF2C5F3F4F0196E9
:103310006F5F7F4F2031310509F070CF6DC920916B
:10332000E7052150330B0CE9A02E05E0B02E68E92B
:1033300075E07CAB6BAB50E9652E55E0752E6CE803
:10334000262E65E0362EAAE7B6E0BEABADAB51E067
:10335000F901E658F94F4F01D5016D915D0170E01B
:10336000EBA9FCA9A191FCABEBABEA2FF0E0660F57
:10337000771F8B01025D184F0E0F1F1F645E784F81
:103380006E0F7F1FF801A081FB0160816A1760F555
:10339000B9EECB2EB5E0DB2E70E060E0F601A19136
:1033A0006F01AA23B9F0FC01E65FFE4F10E000E0D8
:1033B00050807F01E81AF90AE60EF71ED701FC904B
:1033C000F524F4225F2450820F5F1F4F7096003463
:1033D000110571F76F5F7F4F60317105F9F6EDA947
:1033E000FEA95083D4015C93F30161913F0170E029
:1033F000D101ED911D01F0E0660F771F8B01025D99
:10340000184F0E0F1F1F645E784F6E0F7F1FD8017D
:10341000EC91DB016C916E1760F569EEC62E65E0EC
:10342000D62E70E060E0D601ED916D01EE23B9F08B
:10343000F901E65FFE4F10E000E050807F01E21AE4
:10344000F30AE60EF71ED701FC90F524F4225F2460
:1034500050820F5F1F4F70960034110571F76F5F38
:103460007F4F60317105F9F6EDA9FEA95483D401AF
:103470005C93EDA9FEA93196FEABEDAB2C5F3F4FFF
:10348000019600EA402E05E0502E4A145B0409F034
:1034900063CFB2C880E2E0E2F5E0DE011196019070
:1034A0000D928A95E1F70E9431040E9465050E9401
:1034B000EE0580918E06811102C0F092B5060E9441
:1034C00005031091050610930406209157063091CC
:1034D000580621503109AAEFBFEF0E94F2262FEFC4
:1034E00033E040E050E00E94832669017A0105E064
:1034F000C00ED11CE11CF11CEC2DC0920506809180
:1035000052066091EB070E94E62680930A05E4309C
:1035100008F0CDC0ACEFB5E018E0C19E90011124D9
:1035200090E080E0FC01E20FF31F41E050E04C0F1F
:103530005D1FE40FF51F40814D9301968830910582
:1035400089F7E4E8F5E02CE735E00CEF15E04CE80E
:1035500055E08191D9017D919D01D8016D918D0139
:10356000B4E08B9FC00111248155994F870F911DA5
:10357000DC016C934E175F0761F780910A0590E0BC
:1035800030915906FC01EC57FA4F208184589A4F2C
:10359000DC01EC91B4E02B9FC00111248155994FBF
:1035A000E80FF92FF11D308340911807509119074A
:1035B00060911A0770911B0780915A0690915B06E3
:1035C000A0915C06B0915D062A013B01481A590A98
:1035D0006A0A7B0AD301C201813A9648A140B1052B
:1035E00060F081E083278093590640935A065093F8
:1035F0005B0660935C0670935D06809103075091B3
:103600000407409105079091060780901B0586945A
:10361000912C20911A0530E0B90161507109660FB3
:10362000771F660F771FE09168062E2E442443947F
:10363000512C01C0440CEA95EAF7742C7094F09078
:103640000506AAE8CA2EA6E0DA2E1CAA1BAADB01F0
:10365000A65FBE4F5D01D601ED916D01EE2309F429
:1036600004C1ABA9BCA9AA0DBB1D10E000E090E00D
:1036700080E0081519050CF0F4C0EC90E720AC01CF
:1036800044505A4FFA014081022C01C0440F0A9461
:10369000EAF74E294C93F2E0FF12DCC0823091052C
:1036A0000CF0DCC001960F5F1F4F5096E2CF1C114B
:1036B0003DC08091340790911607992391F0909125
:1036C0000A069F7071F481110CC09091300791111E
:1036D00008C090913207911104C090912E07992350
:1036E00029F190912207891798F020913007909145
:1036F0001E07291768F0209132079091200729179B
:1037000038F020912E0790911C07291708F07FC0F0
:1037100081117DC080913007811179C0809132077D
:10372000811175C080912E07811171C081E0809355
:10373000FC051092FD051092FE051092FF051092F7
:1037400000061092010610920206109203060E94D3
:10375000152626E030E040E050E00E948326AB01D1
:10376000BC014E5F5F4F6F4F7F4F4093FB052CE0D6
:10377000E0E4F5E0DE01919601900D922A95E1F7E3
:10378000FE01B196A0E010E000E0642F70E0CF01F0
:1037900002964081518146175707A9F4011511057A
:1037A00009F048C04DA15EA15AA349A34FA158A555
:1037B0005CA34BA349A55AA55EA34DA34BA55CA54D
:1037C00058A74FA3A2E00F5F1F4FFC010630110561
:1037D000F1F60A1B110960E070E0CB01101611062A
:1037E00044F40E9415269801110F440B550B0E94BA
:1037F0008326660F771F66246394712C6C0E7D1EE2
:10380000660D771DDB0190968C918093FA05E0910F
:10381000FB05F0E0E450FA4F81E0808390910506CB
:10382000953009F08ECEE091FA05F0E0E450FA4FC1
:10383000808387CE0530110529F2329749A85AA80E
:103840004E165F0629F04681578141935193F6CF7A
:10385000A3E0B9CF873091050CF424CF90E080E04D
:1038600022CF90E040E050E080E00BA91CA90F5F60
:103870001F4F1CAB0BAB0430110509F0ECCE80934D
:10388000030750930407409305079093060710928F
:103890000707109208071092090710920A07811172
:1038A00004C081E0809308067EC040919E064111CD
:1038B0000FC0A3E0B7E087E097E051E0ED91EE2381
:1038C00021F0F0E0EA5FF84F50838A179B07B1F7C9
:1038D00080911607882311F40C94FC1280910A063B
:1038E00080FD02C00C94FC1241111BC08091520655
:1038F000A3E0B7E047E057E010E1819FC001112449
:10390000865F9E4FED91EE2349F0E150FF0BE60FED
:10391000F71FE80FF91F1081172110834A175B0763
:1039200089F71091F905E12FF0E0E550FA4F808119
:10393000882399F180910806E82FF0E0EE5FF84FB8
:103940009081992311F0853018F081E0809308066A
:103950004091520600910806E02FF0E0EE5FF84F2C
:10396000808190E021503109220F331F220F331F35
:10397000FC0131972E0F3F1F50E1459FF0011124AC
:10398000E65FFE4FE20FF31F2081422A408261E092
:103990000E94D7030F5F009308061F5F1093F9057D
:1039A000193028F081E08093F9050C94FC1262E054
:1039B000F6120C94FC121430A8F70C94FC126093CD
:1039C000CE06ACC9EF1408F4742F2155394F2E0FD1
:1039D0003F1FE1E07417150609F0E0E0D901EC9310
:1039E000F601208130E0D501EC91F0E0220F331F89
:1039F000D901A25DB84F7D01EE0EFF1E245E384F47
:103A00002E0F3F1FD701EC91D9012C912E1708F0F2
:103A1000FFC991118F5FE82FE150FF0B9F01E55F18
:103A2000FA4F91E0940F9083225A394FD9017C9339
:103A30009BA9EBC90E94340501E000931605109282
:103A4000B506123009F4D8C108F098C0112309F462
:103A50009AC1113011F00C94FC120E9431040E94A2
:103A6000650580918F0681111093B5060E940503AC
:103A7000809116070091340710912E07882309F4CE
:103A800057C080910A0680FD53C001110BC0809180
:103A90003007811107C080913207811103C01123C3
:103AA00009F4A0C1F0900C072091570630915806F8
:103AB000ABEFBFEF0E94F2262FEF33E040E050E083
:103AC0000E9483262B5F3F4F4F4F5F4F24593A4F41
:103AD000F90180818150990BF81619060CF06CC120
:103AE000F394F0920C07E0910806F0E0EE5FF84FD7
:103AF000908180911B05992371F02FEF290F9091F0
:103B00000C079F5F382F369536953695329F900D6E
:103B1000112490930D07869590910D07891718F43D
:103B2000981B90930D0781E080938F068093B506D4
:103B300080919906882379F001110AC0809130079D
:103B4000811106C080913207811102C0112329F032
:103B500081E08093C30601110DC08091300781116F
:103B600009C080913207811105C0111103C081E0A5
:103B70008093B5060E94EE050C94FC12133009F4F4
:103B80005EC4143011F00C94FC120E94A90400933E
:103B9000B5060E945E050E94E30580910B07209107
:103BA000570630915806882309F445C010920B0738
:103BB00080919F06882309F49CC58091130582306B
:103BC00008F497C58091680691E0980F9093660677
:103BD0001092670680935E0680935F06809360066E
:103BE00080936106809362068093630680936406E7
:103BF000809365068091180790911907A0911A0784
:103C0000B0911B0780935A0690935B06A0935C06C5
:103C1000B0935D0681E08093590630935606209359
:103C200055061092540680911B05813208F46DC52B
:103C300080E2809353060091390780912707081787
:103C400030F4109254063093560620935506E090B7
:103C50006606F12C10916706B0E9CB2EB5E0DB2E9D
:103C60006CE875E050E040E0D6018D916D0190E088
:103C7000DB01ED91BD01F0E04F5F5F4F880F991FB1
:103C8000DC01A25DB84FAE0FBF1F845E984FE80FF6
:103C9000F91F9C918081891720F4E416F50609F03C
:103CA000142F4430510501F7109367068091550693
:103CB00090915606821B930B97FF03C091958195B7
:103CC000910906973CF080915406811103C081E070
:103CD000809354068091540690911B05913208F40C
:103CE00016C5882389F001110FC021503109AFEDAD
:103CF000BFEF0E94F2262FEF33E040E050E00E9439
:103D000083262195209353069091530620E230E0BC
:103D1000F901E91BF109CF0121E01E161F060CF085
:103D200020E02093CE0621E0853091050CF420E0C0
:103D30002093B20621E0893091050CF420E0209315
:103D4000B60621E08D3091050CF420E02093BA06F0
:103D500021E0813191050CF420E02093BE0621E0A2
:103D6000853191050CF420E02093C20621E08931D1
:103D700091050CF420E02093C60621E04D970CF04D
:103D800016C520E014C50E94F7048091A10688237F
:103D900081F080912E0790913407909307079091BE
:103DA000300790930807909132079093090780930A
:103DB0000A070E94F704CFC88091080610920C07EA
:103DC00091E090930906E82FF0E0ED5FF84F9081C5
:103DD000992331F0843020F48F5F8093080683CEDE
:103DE00081E0FBCF10920D0710920C0781E08093C9
:103DF000080610928F069CCE0E9431040E94650531
:103E000080919B068111FFC10093B5062091570652
:103E10003091580621503109A6EFBFEF0E94F226DB
:103E20002FEF33E040E050E00E948326275F3F4FB2
:103E30004F4F5F4FE22FF0E0EE58FA4F408150E0D5
:103E4000FE01319664E875E00CE7C02E05E0D02E47
:103E500027E030E0CA01022E02C0959587950A94AA
:103E6000E2F7082F01700193DB018D91BD01D601AE
:103E7000FD906D01B4E08B9FC00111248155994FD5
:103E80008F0D911DDC010C932150310918F7209101
:103E900001072111E1C081E02091220790913407B0
:103EA000291708F080E020911E079091300729170C
:103EB00008F0182F9091200780913207981708F486
:103EC00013E090912E0780911C07891708F414E0E5
:103ED0001093010720911A052150330B220F331F35
:103EE000220F331F40916806242E90914B0680913B
:103EF0004C06AA24A39401C0AA0C4A95EAF7609143
:103F000001075AE8652E56E0752E50E040E09924EE
:103F10009394265F3E4FF30171913F01772309F49B
:103F20006DC0FA01E658F94F90822901440E551EE2
:103F30005CAA4BAA890170E060E0F12CE12CABA9EE
:103F4000BCA9BC904B2C512C022C02C05594479418
:103F50000A94E2F76201B1E0CB22DD2480E0B0E018
:103F6000A0E04A175B0779F081110DC0C8018A0FE4
:103F70009B1FFC01808190E0022C02C095958795E3
:103F80000A94E2F781701196A430B10551F7CD285B
:103F900011F48823D9F0A1E0B0E0AC0FBD1FA60F4B
:103FA000B71F9C91911128C1BA28ABA9BCA9BC929A
:103FB000B0E0A0E04A175B0729F06801CA0EDB1EDB
:103FC000F60110821196A430B105A1F76730710592
:103FD0000CF016C16F5F7F4FBFEFEB1AFB0AEBA926
:103FE000FCA97096FCABEBAB005F1F4FF0E4EF1643
:103FF000F10409F0A4CF942D917060E04F5F5F4F02
:104000004430510509F087CF80934C0690934B06BE
:10401000609301078091340781110C94FC12809108
:10402000300781110C94FC128091320781110C949D
:10403000FC1280912E0781110C94FC121092010742
:1040400010920207109207071092080710920907B2
:1040500010920A070C94FC1267E077E00CE915E077
:10406000B8E9EB2EB5E0FB2E90E080E02150330B59
:1040700041E02817390709F440E0FB014193BF01F3
:10408000D8014D918D0150E0D701ED917D01F0E017
:10409000440F551FDA01A25DB84FAE0FBF1F445E3B
:1040A000584FE40FF51F5C914081451708F09EC002
:1040B00010920707109208071092090710920A073A
:1040C000E0911A05E150FF0BEE0FFF1FEE0FFF1FEF
:1040D00040916806E42E61E070E001C0660F4A95E9
:1040E000EAF76095D901AE0FBF1F8D01065F1E4F25
:1040F0001CAB0BABE80FF91FE65FFE4F10E000E0D2
:10410000D12CC12C71E0ABA9BCA97C90272C312CFF
:104110000E2C02C0359427940A94E2F74080512C6B
:104120000E2C02C0559447940A94E2F7762242017D
:10413000822893285401B1E0AB22BB2440E080FEEA
:104140000AC088248394912C8C0E9D1E800E911E93
:10415000D4014C9147270E2C01C0440F0A94EAF772
:104160004729ABA9BCA94C939080962240E0AB288C
:1041700049F0AA24A394B12CAC0EBD1EA00EB11E12
:10418000D5014C910E2C01C0440F0A94EAF749293D
:104190004083073011053CF50F5F1F4FBFEFCB1A6F
:1041A000DB0A4BA95CA9405F5F4F5CAB4BAB7096E1
:1041B00050E4C516D10409F0A6CF442D41704093B8
:1041C0004C06422D417040934B06F901E658F94FD9
:1041D00031E030838658994FDC013C9310920107FF
:1041E0001092020777CE10E000E0D8CF019684301D
:1041F000910509F03DCF6ECEABA9BCA91C92E6CECD
:1042000070E060E0E9CE80911705882309F440C092
:1042100080916806C82E01E010E002C0000F111F57
:104220008A95E2F7EBE0F6E080911A058150990B50
:10423000880F991F880F991F865F9E4F6BE476E069
:104240001192F12C50E040E09C01240F351FD90160
:104250002C9130E0202331230C2C02C0359527957A
:104260000A94E2F7042E01C0220F0A94EAF7F22A18
:104270004F5F5F4F4430510539F79F01215031099D
:10428000D901FC9240966E177F07D1F61092170560
:104290000CE915E01CAB0BAB18E9212E15E0312E13
:1042A000F12CE12CABA9BCA98D91BCABABAB90E0E0
:1042B000D101ED911D01F0E0880F991FDC01A25D95
:1042C000B84FAE0FBF1F845E984FE80FF91F9C9147
:1042D0008081891708F0AAC060901B05462C46947F
:1042E00046944694512C4E9CF0014F9CF00D5E9CE0
:1042F000F00D112480910A06282F30E08901025028
:10430000110917FF02C00F5F1F4F159507950F5F2B
:104310001F4F6694712C0615170511F410E000E08C
:104320009F01255F394F690180FF26C0D9018C911B
:10433000982F9170998381FB992790F99A8382FB3A
:10434000992790F99B8383FB882780F98C83FE0152
:1043500031964F01B12CA12CD4018D914D01BFEFAD
:10436000AB1ABB0A882321F060E0C5010E94D70385
:10437000E4E0AE16B10481F780916806882EAA2485
:10438000A394B12C02C0AA0CBB1C8A95E2F7BA2CEC
:10439000B09480911A058150990B880F991F880F4E
:1043A000991F9801F4E0220F331FFA95E1F7820F6D
:1043B000931F865F9E4FF60170E060E064157505FF
:1043C000ACF5A191CA2ED12CDEAACDAA50E040E0D6
:1043D0006C01C40ED51E21E030E0042E02C0220F75
:1043E000331F0A94E2F7ADA9BEA92A233B23042E6A
:1043F00002C0359527950A94E2F7082C01C0220FD8
:104400000A94EAF7D6013C913B21232B2C934F5F72
:104410005F4F44305105E1F640969B01200F311F5C
:104420006216730619F06F5F7F4FC8CFBFEFEB1AAC
:10443000FB0AE4E0EE16F10409F034CF9BCB0E94B6
:1044400031040E946505109216050E94E305009351
:10445000B5060091570610915806809118058823DB
:1044600041F0109356060093550610925406109290
:1044700018058091550690915606801B910B97FF69
:1044800003C091958195910906973CF0809154065F
:10449000811103C081E080935406809154068823E3
:1044A00009F4BFC09801A2EEBFEF0E94F2262FEFE1
:1044B00033E040E050E00E948326225E3F4F4F4FA2
:1044C0005F4F2093510664E8E62E65E0F62EACE7D8
:1044D000B5E030E020E04FEF53E0401B510BF70117
:1044E00081917F016D91F4E08F9FC001112481556E
:1044F000994F860F911D61E0241735070CF060E09D
:10450000FC01608321583F4F283FF3E03F0739F714
:10451000809152066091EB070E94E62680930A057F
:1045200090E030915906FC01EC57FA4F20818458F5
:104530009A4FDC01EC91B4E02B9FC001112481550E
:10454000994FE80FF92FF11D3083409118075091D2
:10455000190760911A0770911B0780915A06909174
:104560005B06A0915C06B0915D062A013B01481AEA
:10457000590A6A0A7B0AD301C201813A9648A140CE
:10458000B10560F081E083278093590640935A0675
:1045900050935B0660935C0670935D062CE935E0F2
:1045A00058E9E52E55E0F52E04EA15E060EA75E0DD
:1045B000ADE4B6E0DD24D394F90181919F0190E050
:1045C000F70141917F01E42FF0E0880F991FAC01C2
:1045D000425D584F4E0F5F1F845E984F5F01A80EDB
:1045E000B91EFA019081F5018081891718F48C9128
:1045F0008D258C93F80181918F01FB014191BF01C1
:10460000F4E08F9FC00111248155994F840F911DB3
:104610004D91FC014083F5E0203A3F0769F60C9488
:10462000FC122091510630E050E040E02E5131095B
:1046300041095109AFEFB3E00E94A22622EE3FEFFD
:104640004FEF5FEF0E9483268FEF93E0A0E0B0E092
:10465000821B930BA40BB50B21E0181619061A0642
:104660001B060CF020E02093CE0621E08038910557
:10467000A105B1050CF420E02093B20621E08F3FA4
:104680009105A105B1050CF420E02093B60621E0C8
:104690008E3701E09007A105B1050CF420E02093CE
:1046A000BA0621E08D3F11E09107A105B1050CF498
:1046B00020E02093BE0621E08C3732E09307A1056D
:1046C000B1050CF420E02093C20621E08B3F42E0CC
:1046D0009407A105B1050CF420E02093C60621E063
:1046E0008A379340A105B1050CF420E02093CA0657
:1046F0000FCF80911A05809366061092670691E0AD
:104700009093130580930B0575CA80E192CA8823A4
:1047100089F001110FC021503109AFEEBFEF0E94A7
:10472000F2262FEF33E040E050E00E9483262195EF
:10473000209353069091530620E130E02901491A55
:104740005108C20121E0181619060CF020E0209350
:10475000CE0621E0833091050CF420E02093B206D0
:1047600021E0853091050CF420E02093B60621E08D
:10477000873091050CF420E02093BA0621E08930BF
:1047800091050CF420E02093BE0621E08B309105CA
:104790000CF420E02093C20621E08D3091050CF44A
:1047A00020E02093C60621E00F970CF4EACA20937C
:1047B000CA068090180790901907A0901A07B09029
:1047C0001B0780915A0690915B06A0915C06B09100
:1047D0005D0624013501481A590A6A0A7B0A0091CC
:1047E00059069701215031096901112309F492C03A
:1047F000F701EC56FA4F8081F701E45BFA4F208114
:1048000034E0839FC00111248155994F820F911D7F
:10481000FF24F394DC01FC920E945E05B1EA4B1682
:10482000B6E85B06B1E06B06710458F00F25009303
:10483000590680925A0690925B06A0925C06B0924E
:104840005D0620915906F601EC56FA4F8081F6017B
:10485000E45BFA4F3081E4E08E9FC0011124815562
:10486000994F830F911DDC012C93E12FE150FF0B39
:10487000CF01EC56FA4F3081845B9A4FDC014C91AA
:10488000B4E03B9FC00111248155994F840F911DC5
:10489000FC01208380919F068823B9F18091130544
:1048A000823098F18091680690E0FC01EC56FA4F56
:1048B0003081845B9A4FDC014C91B4E03B9FC00196
:1048C00011248155994F840F911D31E0FC013083F3
:1048D000809152066091EB070E94E62680930A05BC
:1048E00090E0FC01EC57FA4F308184589A4FDC017C
:1048F0004C91B4E03B9FC00111248155994F840F26
:10490000911DFC0120830C94FC1280911A058150AA
:10491000990BCBCF0E94EE05F1EA4F16F6E85F0641
:10492000F1E06F06710460F081E0082700935906FA
:1049300080925A0690925B06A0925C06B0925D0649
:10494000809159068093C9068093C4068093BC0663
:104950008093B806F601EC56FA4F8081F601E45BCD
:10496000FA4F208104E0809FC00111248155994FA6
:10497000820F911D21E0DC012C930C94FC12970115
:1049800024503109D901AC56BA4F8C91245B3A4F6F
:10499000D9012C91B4E08B9FC00111248155994F0E
:1049A000820F911DDC01EC930C949213DA01A45652
:1049B000BA4F2C9130E0DA01A856BA4FAC91CA2E0A
:1049C000D12C220F331F8901025D184F0C0D1D1DC4
:1049D000D8011C91112311F40C940A14245E384F51
:1049E000D601A20FB31F2C9121110C940A14DA01E5
:1049F000AA0FBB1FAA0FBB1FA951B94F6D937D937F
:104A00008D939C931397DA01AD51B94F2C912111DD
:104A100003C0FC920C940A14F0820C940A14309196
:104A2000940631110C94FA141092B7060C94FA14EF
:104A300010920F0710920E0721E020931905109293
:104A40000D0710920C072093180520930B07109266
:104A5000070710920307109208071092040710929C
:104A600009071092050710920A07109206073417DB
:104A700011F40C943B1521E02093170510920107C7
:104A8000109202072091390721110AC01092FD06E9
:104A90001092FE061092FF06109200071092FC067C
:104AA0000091F8061091F9062091FA063091FB0664
:104AB0002B013C01401A510A620A730A93018201D8
:104AC0000139104D2340310510F01092F706E7EE42
:104AD000F6E0A3EEB6E027EF36E0C190D190E1908A
:104AE000F1902B013C014C185D086E087F087301A2
:104AF000620101E9C01600EDD00603E0E006F10412
:104B000008F01C9211962E173F0739F750931007A3
:104B100040931107209117072223A9F00091120753
:104B2000109113072091140730911507601B710B2A
:104B3000820B930B603D77408105910520F00E9428
:104B4000C7031092170710921607EEE2F7E0ACE1E8
:104B5000B7E080818C93818111968C931197329666
:104B6000129627E0E034F207A1F780911A058093AE
:104B7000EA0780E090E0892B11F40C94A20B0E94CC
:104B8000E901882311F40C94A20B0E9400000C94FC
:104B9000A20B8F929F92AF92BF92CF92DF92EF9231
:104BA000FF92CF93DF93EC01688179818A819B81A9
:104BB000611571058105910521F464E279ED8BE5BC
:104BC00097E02DE133EF41E050E00E948326490158
:104BD0005A019B01AC01A7EAB1E40E94A2266B0135
:104BE0007C01ACEEB4EFA50194010E94B026C60E84
:104BF000D71EE81EF91EF7FE06C081E0C81AD108CC
:104C0000E10880E8F80AC882D982EA82FB82C701FB
:104C1000B6019F77DF91CF91FF90EF90DF90CF901B
:104C2000BF90AF909F908F9008958F929F92AF9278
:104C3000BF92CF92DF92EF92FF9260911C0570912C
:104C40001D0580911E0590911F0561157105810557
:104C5000910521F464E279ED8BE597E02DE133EFE6
:104C600041E050E00E94832649015A019B01AC01BA
:104C7000A7EAB1E40E94A2266B017C01ACEEB4EF7E
:104C8000A50194010E94B026C60ED71EE81EF91E8B
:104C9000F7FE06C081E0C81AD108E10880E8F80AEA
:104CA000C0921C05D0921D05E0921E05F0921F05D2
:104CB000C701B6019F77FF90EF90DF90CF90BF9034
:104CC000AF909F908F90089560931C0570931D0581
:104CD00080931E0590931F050895F999FECF92BD0C
:104CE00081BDF89A992780B50895262FF999FECFAE
:104CF0001FBA92BD81BD20BD0FB6F894FA9AF99AF9
:104D00000FBE01960895052E97FB1EF400940E9495
:104D10009A2657FD07D00E94B52607FC03D04EF413
:104D20000C949A2650954095309521953F4F4F4FC2
:104D30005F4F089590958095709561957F4F8F4F47
:104D40009F4F08950E94D726A59F900DB49F900D68
:104D5000A49F800D911D11240895B7FF0C94A226E5
:104D60000E94A226821B930B0895A1E21A2EAA1B71
:104D7000BB1BFD010DC0AA1FBB1FEE1FFF1FA2170B
:104D8000B307E407F50720F0A21BB30BE40BF50B08
:104D9000661F771F881F991F1A9469F76095709591
:104DA000809590959B01AC01BD01CF010895A29F14
:104DB000B001B39FC001A39F700D811D1124911DEF
:104DC000B29F700D811D1124911D0895991B79E0EA
:104DD00004C0991F961708F0961B881F7A95C9F78B
:104DE000809508950E94D726332312F48A1B9B0BCB
:104DF0000C94FC260E94D726B7FF0895821B930BC4
:104E00000895EE0FFF1F0590F491E02D0994F8949A
:024E1000FFCFD2
:104E1200010101010150C300000107010301070163
:104E22000300070003010702050600000700000057
:104E3200000000000303000002010000030304005D
:104E42000103030000040300030004000700000044
:104E5200000102000502040004050106030100032B
:104E6200070004060001020201000000070005001D
:104E72000001010101020300020006000302020018
:104E820001020200000406000405000107000100FF
:104E920002000000050302020000050107030501EC
:104EA20001020500000007000604000007000000E0
:104EB20000000100020203000100020007010200DB
:104EC20001010200010403000000040007000000C9
:104ED20000010000040706020405010207010403A1
:104EE2000700050701000300020000040702030097
:104EF200000300000002020001000400070002009B
:104F0200070400000105040204040001070207006F
:104F1200000201000402010000010701070107016C
:104F2200030006000103060006040000070000005B
:104F3200000002000202000001000000070104005C
:104F42000101030005060303000004000302000040
:104F52000403020000030400040401020701000329
:104F62000500040701020301020100040700050015
:104F72000201010000020000000006000702060014
:104F820001020200050707030404000107000300F1
:104F920002000000020200000300050107030701EE
:104FA20001020500010306020404000007000200DA
:104FB20002000000000203010200000007030000DB
:104FC20007030000010602020001040007040200B8
:104FD20002010104020706000404010003010007A4
:104FE20003000403010000040002000003020300A6
:104FF200000300000002000403000000030002009E
:105002000300010401050701040600010302010077
:105012000002000002020200020000000000000084
:10502200000000000000000000000000000000007E
:10503200000000000000000000000000000000006E
:10504200000000000000000000000000000000005E
:10505200000000000000000000000000000000004E
:10506200000000000000000000000000000000003E
:10507200000000000000000000000000000000002E
:10508200000000000000000000000000000000001E
:10509200000000000000000000000000000000000E
:1050A20000000000000000000000000000000000FE
:1050B20000000000000000000000000000000000EE
:1050C20000000000000000000000000000000000DE
:1050D20000000000000000000000000000000000CE
:1050E20000000000000000000000000000000000BE
:1050F20000000000000000000000000000000000AE
:10510200000000000000000000000000000000009D
:10511200000000000000000000000000000000008D
:10512200000000000000000000000000000000007D
:10513200000000000000000000000000000000006D
:10514200000000000000000000000000000000005D
:10515200000000000000000000000000000000004D
:10516200000000000000000000000000000000003D
:10517200000000000000000000000000000000002D
:10518200000000000000000000000000000000001D
:10519200000000000000000000000000000000000D
:1051A20000000000000000000000000000000000FD
:1051B20000000000000000000000000000000000ED
:1051C20000000000000000000000000000000000DD
:1051D20000000000000000000000000000000000CD
:1051E20000000000000000000000000000000000BD
:1051F20000000000000000000000000000000000AD
:10520200000000000000000000000000000000009C
:105212000000000000000000000001010101010186
:105222000101010100010101010101400100000031
:105232000101010101010101010001000100010060
:105242000100000100000100010000000100000057
:10525200020003000400050006000700020101012C
:105262000506040101010101040703013075000074
:1052720010270000905F0100F049020001020304C0
:1052820008100011337755AA88CCEEFF03030303FD
:1052920003030303070001020304050600010101E1
:1052A20004060200060503020000000003010200DA
:1052B20002020202030002070603010000000000CE
:0E52C2001F027F01AC016C02DD01BB01CF01B8
:00000001FF
